:100000000C94CB2018951895189518951895189557
:10001000189518950C94BB0F189518951895189568
:100020001895189518951895189518951895189568
:100030001895189518951895189518951895189558
:100040000C94CF0F189518950C94092018951895B5
:100050000C947F2018951895189518951895189553
:1000600018951895189518950C94AC161895189520
:100070001895189518951895189518951895189518
:10008000189518951895189518951895200B452DC5
:10009000303034003E101300000800000C000B004C
:1000A0000000000001000500000000000007000043
:1000B0000000000004020D0000000000000000002D
:1000C0000000000000000000000000000000000030
:1000D000000000000000005EBCE2613FDD83C29CC6
:1000E0007E20A3FD1F419DC3217FFCA2401E5F0116
:1000F000E3BD3E6082DC237D9FC1421CFEA0E1BFC8
:100100005D0380DE3C62BEE0025CDF81633D7C22F9
:10011000C09E1D43A1FF4618FAA427799BC584DA27
:100120003866E5BB5907DB856739BAE406581947D5
:10013000A5FB7826C49A653BD987045AB8E6A7F987
:100140001B45C6987A24F8A6441A99C7257B3A64B9
:1001500086D85B05E7B98CD2306EEDB3510F4E10E7
:10016000F2AC2F7193CD114FADF3702ECC92D38D95
:100170006F31B2EC0E50AFF1134DCE90722C6D3347
:10018000D18F0C52B0EE326C8ED0530DEFB1F0AE79
:100190004C1291CF2D73CA947628ABF517490856A7
:1001A000B4EA6937D58B5709EBB536688AD495CB55
:1001B0002977F4AA4816E9B7550B88D6346A2B7507
:1001C00097C94A14F6A8742AC896154BA9F7B6E839
:1001D0000A54D7896B35CE0BD00BE80B360F360F90
:1001E000F90B060C180C2C0C420C790C990CB40C65
:1001F000D70C130DF50D880E210F280F43186E181C
:10020000AA186E184318F01825195C199119E719E6
:1002100017194C19C819D119169AD09A2091620051
:100220002068209362002091610020682093610083
:10023000209162002064209362002091610020647C
:1002400020936100D198D29821E0F801278320E023
:1002500026830895F801268327810681202B0091AB
:10026000620011F0006401C00F7B009362000895EA
:10027000F801368121E0322736830781032BEFCF47
:10028000F8012783EACF22230091620029F4006855
:1002900000936200D89808950F7700936200D89A6F
:1002A0000895222311F01E9A08951E98089500E0E3
:1002B0001091620016FD01E0D89902601E99046059
:1002C00008959A938A93C80106E010E00E945C2189
:1002D000202F212B21F09C010E94130202C000E07C
:1002E00010E0899199910895BA93AA93D801BA9A86
:1002F0000091620008600093620000916100086054
:10030000009361000091620000610093620000911F
:1003100061000F7E0093610001E017960D9300E0ED
:100320000D930C93169700ED17E00E9461010D9359
:100330001C9314970E9449028D01A991B9910895C7
:10034000BA93AA93D80119960C911997002359F4DE
:1003500013960D911C9114970E940917002319F010
:1003600001E019960C93A991B9910895BA93AA93B3
:100370008A93D801822FF8010085021769F02223A1
:1003800011F0C29A01C0C29800E001870381148174
:100390000E944902FD0180878991A991B991089530
:1003A000F80107810895F80100850895F801018595
:1003B0000895AD01F801258336832581A381B48199
:1003C00014962D933C93DA010895F8010581168166
:1003D0000895BA93AA93D80140ED57E022E0009126
:1003E000820A1091830A0E94FE0815960D931C93B1
:1003F0001397ED91FC9115962C91222329F49801E5
:100400008F010E942D0202C004831583A991B99126
:100410000895F8014581568122E00091820A1091E9
:10042000830A0C941A09F8012483358320E023837E
:1004300022832091910A3091920A2083318308957A
:10044000F8012483358320E0238322832091910ABD
:100450003091920A208331830895F80124833583F3
:1004600021E0238320E022832091910A3091920A97
:10047000208331830895F8012483358321E0238389
:1004800020E022832091910A3091920A20833183C7
:10049000089521E0F801238320E022832091910A2E
:1004A0003091920A20833183089521E0F80123835B
:1004B0002091910A3091920A44815581241B350B79
:1004C000208331830895BA93AA93D8010E942C0502
:1004D00001E010E00E945C21202F212B39F00E94C6
:1004E000CE080093820A1093830A05C000E00093AF
:1004F000820A0093830A00E110E00E945C21202F11
:10050000212B19F00E94F90A02C000E010E00D93BF
:100510001D930BE010E00E945C21202F212B19F08D
:100520000E94900F02C000E010E00D931C931C96F7
:1005300000E00C931B9704E010E00E945C21202F48
:10054000212B19F00E94751002C000E010E00D93FD
:100550001C9313960AE210E00E945C21202F212BAD
:1005600019F00E94201702C000E010E00D931C93C8
:1005700013970FE010E00E945C21202F212B19F02F
:100580000E944A0A02C000E010E00D931C931E96E0
:1005900008EB1BE00E9461010D931C931E970D91C7
:1005A0001C9118960E94A91C0C93179700E00C93BD
:1005B00019960C9315960D930C9312970C931C9708
:1005C0000D930D930D930C93129601E00C9350979D
:1005D0008D0105D230E02FEF16960D911C911197E9
:1005E0000E94A20A0D911C9111970E94690A08EEBF
:1005F00013E00E94DA1634E02FEF0D911C91119751
:100600000E94A20A0D911C9113970E94690A0D91F4
:100610001C9115970E94B4108D01A991B99108956C
:10062000BA93AA93D8010D911D910E94E6090D91EC
:100630001D910E94E6090D911C9113960E94931042
:100640000D911C9119970E94E3170D911C911E9614
:100650000E94400A0C931F97002341F412960D91BB
:100660001C911C960E94400A0C931F979D01215FCC
:100670003F4F8D010E9455051F962C911F972223F5
:1006800011F08D0127D08D010E949506002349F0BD
:100690008D010E94B4068D010E9432088D010E94D6
:1006A0006608A991B9910895253041F4F80103A194
:1006B00003FF02C007E0089505E00895263041F4E5
:1006C000F80103A103FF02C008E0089506E00895C1
:1006D000022F0895BA93AA9321972883D8011496DC
:1006E0000D911C9115970E94B8109E018D010E94DA
:1006F000790508810A9509F448C00A95D1F00A9550
:1007000001F10A9509F489C00A9509F492C00A9585
:1007100031F10A9509F462C00A9509F4A4C00A955A
:1007200009F4F5C0035009F402C10A9509F42BC17C
:1007300032C100E01B960C9312960C93159720E0A3
:100740008AC000E01D960C9312970C911B97033002
:1007500009F4E9C001E01B960C931B97E4C002E08A
:100760001B960C93129600E00C93159720E0ED91E8
:10077000FC91149606A117A10E9451010C911D979E
:10078000002309F4D0C02DE040C01B960C911B97AC
:10079000002349F0013009F0FEC01D960C911D9711
:1007A000002309F4F8C003E01B960C9358960C91B3
:1007B000939701FF04C001E01D960C931D9721E063
:1007C0001896ED91FC91149606A117A10E94510173
:1007D0000C911D97002309F0CCC0A5C01D961C915B
:1007E00001E010271C931D97112309F49CC01B9650
:1007F0000C911B97013041F0023031F0033021F0B1
:1008000000E01B960C931B9724E018960D911C9109
:1008100011970E94751C21E074C000E01D960C9396
:1008200012970C911B97073011F405E00FC025E0DB
:100830000BC000E01D960C9312970C911B9708308B
:1008400011F406E003C026E08D012EDF1B960C9309
:100850001B9720E01896ED91FC91129606A117A126
:100860000E94510161C01B960C911B97033069F4E3
:1008700020E01896ED91FC91129606A117A10E9416
:10088000510101E00C931B9702C0013031F401E0EB
:100890001C960C931C9726E007C0023071F402E00E
:1008A0001C960C931C9725E08D01FEDE1B960C9385
:1008B000139601E00C931E9716C0073011F0083014
:1008C00061F493960C91939705FF07C021E0189669
:1008D0000D911C9119970E94811C1E960C911E97D8
:1008E000002309F458C01B962C9113970D911C916D
:1008F0005A960E94751C0C91939704FF4CC021E0FE
:1009000018960D911C9119970E94811C44C01E9647
:100910000C911E97002339F01C960C910E931396A0
:1009200000E00C931E971B962C91139726C01B96E4
:100930000C911B97033079F1013051F402E01B96C2
:100940000C9312960C911D970023A9F422E014C079
:10095000023051F401E01B960C9312960C911D97F6
:10096000002339F421E008C051960C91519701FF02
:1009700002C02CE001C02DE018960D911C91199732
:100980000E94751C08C01896ED91FC91199706A15C
:1009900017A10E94380101E050960C93139600E0D5
:1009A0000C932196A991B9910895BA93AA93D8016D
:1009B00093962D933C93909726FB20E020F901E03D
:1009C00020270D911C911B960E94AC1001E00C9306
:1009D000A991B9910895F80103A114A10895BA93BA
:1009E000AA93D80140E050E022E30091820A1091DE
:1009F000830A0E94FE0893960D931C932E915F9795
:100A000026FB20E020F901E020270D911C91139690
:100A10000E94AC100D911C910E94B01DA991B9913A
:100A20000895BA93AA93D80193964D915C915C97DF
:100A300022E30091820A1091830A0E941A090D9103
:100A40001C910E94021E0091820A1091830A0E944A
:100A50003B09A991B9910895009165000160009347
:100A60006500009164000E7F0093640000916400B3
:100A7000006100936400909A8898919A8998929A5C
:100A80008A98939A8B9AC19AB998009161000B7FCA
:100A900000936100009161000F7D00936100A895B3
:100AA00008E101BD0CE001BD0895AD01D801F901D7
:100AB00000810023E1F00B3041F451960C9101FFCD
:100AC00002C006E001C003E00083008106FF06C00B
:100AD000083411F409E001C000E00083008107FF41
:100AE00006C0023811F40AE001C000E00083DA0118
:100AF0000895BA93AA939A938A93D801C901F801E9
:100B000004A100FF0DC103850023F901008109F054
:100B1000F1C00A3071F4EA2FF12F17891123E9F49B
:100B200001E0078B058916890E94490200E0FD015A
:100B3000F3C0023091F4EA2FF12F0789002309F462
:100B4000EFC000E0078B20E00589F689E02F2383C2
:100B5000EA2FF12F208F218FE1C0FD0117891A950F
:100B600031F01A9581F11A9509F49EC0D9C006306A
:100B700011F402E010C0053011F426E003C0043087
:100B800039F425E08D010E945403FD01008F12C04D
:100B9000033019F401E0008F12C0073021F001305A
:100BA00011F0083039F4048115810E94BC1002E074
:100BB000FC010083FD01008D002309F470C002E0F8
:100BC000FC01008368C0108D183021F4053069F4F1
:100BD00006E005C0173029F4043081F505E0008FE8
:100BE00070C0163011F0123021F5033011F401E01D
:100BF0000BC0043031F425E08D010E945403FD0147
:100C000003C0073019F404E0018F0FC0063031F043
:100C1000053021F0013011F0083039F404811581DC
:100C20000E94BC1002E0FC010083FD01008D073032
:100C300029F0008D053011F0013029F5FC0100810B
:100C4000063011F402E00CC0053039F426E08D01C5
:100C50000E945403FD01018F16C0073021F404E007
:100C6000FD01018F14C0033031F0043021F0013058
:100C700011F0083041F4FD01048115810E94BC107F
:100C800002E0FC010083FD01018D002341F002E040
:100C9000FC01008303E0FD01078B01E0008B058967
:100CA00016890E9449023CC0118D183021F405308C
:100CB00069F406E005C0173049F4043039F405E062
:100CC000018F058916890E94490210C0063051F033
:100CD000033041F0053031F0043021F0013011F0E3
:100CE0000830F1F4048115810E94BC1002E0FC017F
:100CF000008316C0063061F0033051F0053041F03A
:100D0000043031F0013021F0023011F00C3041F4A8
:100D100000E0EA2FF12F078B008F018F01E0008B9D
:100D200089919991A991B9910895BA93AA93D801FB
:100D30000091940A0023A1F01A960C9103950C934C
:100D40001A970A3069F400E01A960C9312970D91E5
:100D50001C9118960E94A91C0C93A89501E001C053
:100D600000E0A991B9910895BA93AA93D801169673
:100D70000D911C911A960E94690A0C911E91509730
:100D8000112331F452961C915297101709F467C140
:100D900052960C93129700E00C931A9734E02FEFC1
:100DA0000D911C9150960E94A20A0C915797013008
:100DB00019F430E02CE34EC1023011F00330F1F4AD
:100DC00058960C915897083021F0063011F00230F7
:100DD00041F430E02CE416960D911C9117970E9477
:100DE000A20A58960C915897073029F0053019F04F
:100DF000013009F034C130E020E72CC151960C914C
:100E0000519700FF19C002FD02C033E008C093965D
:100E10000C91939702FF02C031E001C034E01696B6
:100E20000D911C911A962C91519721FF02C020E23E
:100E300001C024E00E94A20A1B960C911B9700237C
:100E4000A1F00A9501F10A9591F10A9509F443C0C0
:100E5000025009F44FC00A9509F45BC00A9509F4E1
:100E600067C00A9509F487C0AEC016960D911C9113
:100E70001A962C91519724FF03C030E022E0A1C0C4
:100E800034E020E09EC01D960C911D97002339F0A0
:100E900093960C91939700FF02C032E006C05196E2
:100EA0000C91519702FF8FC030E024E086C01D9660
:100EB0000C911D97002339F093960C91939700FFA6
:100EC00002C032E006C051960C91519702FF7BC0E0
:100ED00030E020E272C01D960C911D97002339F07E
:100EE00093960C91939700FF02C032E001C030E06E
:100EF00025E063C01E960C911E97002341F030E060
:100F000020E216960D911C9117970E94A20A30E0DC
:100F100030C01E960C911E97002341F030E024E073
:100F200016960D911C9117970E94A20A30E044C0BA
:100F30001E960C911E97002341F030E020E2169699
:100F40000D911C9117970E94A20A51960C915197EE
:100F500006FF0EC016960D911C911A962C91519772
:100F600033E021FF02C020E201C024E00E94A20A77
:100F700032E028E022C01E960C911E97002341F01B
:100F800030E024E016960D911C9117970E94A20A5A
:100F900051960C91519706FF0EC016960D911C911B
:100FA0001A962C91519733E021FF02C020E201C034
:100FB00024E00E94A20A32E020E116960D911C91D5
:100FC00017970E94A20A51960C9151970872083205
:100FD00041F433E022E016960D911C9117970E9480
:100FE000A20A1D960C911D97002371F016960D9183
:100FF0001C915C962C91939720FF02C032E001C0B7
:1010000030E020E40E94A20A59961C9159971123BE
:1010100031F194960C91949701FF02C001E001C058
:1010200000E0302F1A95A9F01A9569F0125049F096
:101030001A9569F01A9549F01A9549F01A9529F010
:101040000EC020E407C020E205C020E103C028E074
:1010500001C024E016960D911C910E94A20AA9914C
:10106000B9910895BA93AA93D80118960D911C913D
:1010700019970E94EC1C002331F153961C91539751
:101080001123A9F4033099F41B960C911B9701309E
:1010900011F402E005C0023011F401E001C000E0EB
:1010A00054960C93549701E053960C93539700E099
:1010B0001B960C93139729E00D911C9117960E9493
:1010C000751C01E00C93A991B9910895BA93AA9364
:1010D000D80155960D911C9156970E94091700232F
:1010E00021F157960C915797033071F458962C9133
:1010F0001D972C931D9600E00C9350970D911C9119
:1011000019970E94751C0AC014960D911C91539654
:101110000E94B81000E00D930C93599700E0579689
:101120000C93179701E00C93509753960C9153979B
:10113000002389F118960D911C9119970E947E1C2D
:10114000002349F551960C915197007A09F559966B
:101150002C915997222339F01B962C931E9600E070
:101160000C9351970DC093960C91939707FF10C065
:1011700054962C915497222359F01B962C93139735
:101180000D911C9117960E94751C01E00C935097CD
:1011900000E053960C93A991B9910895BA93AA933C
:1011A000D80101E00C9340E050E020E00A2F26D067
:1011B0000A3D1E4B11F401E001C000E00C938D01CB
:1011C000A991B9910895F8010081002339F030E028
:1011D00040E050E0420F531F0C94E720032F089586
:1011E00010E040E050E0420F511F0E94E72003173B
:1011F00021F0032F0E94F320A89508952297F8016B
:101200000081002389F030E040E050E0420F531F9E
:101210000E94E7200883239540E050E0420F531FCF
:101220000E94E720098302C04883598308811981FD
:1012300022960895229748835983188130E040E030
:1012400050E0420F531F0E94E720011721F0012FA9
:101250000E94F320A8951981239540E050E0420FA9
:10126000531F0E94E720011721F0012F0E94F32055
:10127000A89522960895BA93AA93D8014AED5EEBF9
:1012800020E0D8DF40E050E020E08D01B7DF0A3DEC
:101290001E4B11F401E001C000E00C93A991B9913B
:1012A000089520E0F80120830895BA93AA93D80105
:1012B0001A9812981B98139800E012960D930C93AD
:1012C000139608EC10E00E9461010D931C93179790
:1012D0008D01A991B9910895BA93AA93D801459B1C
:1012E00002C001E001C000E012961C911297101795
:1012F00041F012960C9314960D911C910E94490294
:1013000010C013960C911397011759F016960D9172
:101310001C9117970E940917002319F012960D913E
:101320000C93A991B9910895F80103810895AD0135
:10133000F801248335832481A681B78114962D93E7
:101340003C93DA010895F801048115810895BA9358
:10135000AA93D80148EC50E024E00091820A109151
:10136000830A0E94FE0814960D931D93ED91FC9143
:1013700004831583A991B9910895F8014481558199
:1013800024E00091820A1091830A0C941A09BA93FE
:10139000AA93D80100E012960D930D930D930C9330
:1013A000159706E010E00E945C21202F212B29F0E8
:1013B00020E030E00E94130202C000E010E00D9334
:1013C0001C9311978D01A991B9910895BA93AA938D
:1013D0008A93D8010091940A002309F44DC00A2F82
:1013E0001696ED91FC9117972591F491E22F0995AE
:1013F000802FFD010381801759F022E330E00D9129
:101400001C9111970E942D02FD01838301E033C0DE
:101410000281002389F10D911C9111970E940917F7
:10142000002351F1FD0102810130F9F48823058187
:10143000C1F006FD0BC00F7705830064058322E32E
:1014400030E0008111810E942D0216C085832CEDB1
:1014500035E00D911C9111970E942D0202E0FD01D3
:101460000AC00F770583006404C0023029F40581A7
:101470000068058300E002838991A991B9910895DC
:10148000F80125813481321711F400E00895248396
:10149000022F0895BA93AA93D801D39AD49AD59AD1
:1014A000D69AD79A00916400046000936400A79ACA
:1014B00000E017960C9312960C930E9316960C93CD
:1014C0001E9734E02FEF0A2F3DD08D01A991B991DD
:1014D0000895F80122851385112331F40485002332
:1014E00019F40585002311F10781053608F4212B35
:1014F00003950783083C11F400E00783018503335B
:1015000010F40485202B018503950187043611F41E
:1015100000E001870085093010F40585202B008547
:1015200003950087003131F400E003C000E0078339
:10153000018700870685021721F026878F010E9408
:10154000D10A0895F801022F00953323128571F412
:10155000122B1287138510231387323071F41485F0
:10156000122B1487158510231587089510231287D1
:10157000313081F71385122B1387148510231487BC
:10158000333081F70585022B05870895F8014285E0
:10159000538564857585F901408351836283738324
:1015A000089522FB16F4DD9A01C0DD9825FB009119
:1015B000650016F4046001C00B7F0093650026FBF4
:1015C00016F4AF9A01C0AF9820FB16F4DB9A01C065
:1015D000DB9823FB16F4DE9A01C0DE9824FB16F498
:1015E000DF9A01C0DF9821FB16F4DC9A0895DC989D
:1015F0000895BA93AA93D8010E94C7090CE810E095
:1016000016960D931C931797A99AA198AA9AA29837
:10161000AE9AA698AD9AA598AC9AA498AB9AA398BE
:1016200000916500026000936500009164000D7FE9
:1016300000936400A89AA0988D01A991B99108958A
:1016400000E0999B01E09A9B02609E9B04609D9B39
:1016500008609C9B00619B9B00621091630011FFDE
:101660000064989B0068002309F10058E9F00258D3
:1016700079F0025079F00A9549F0035069F008506A
:1016800069F0005169F0005269F010C001E008955E
:1016900002E0089503E0089504E0089505E0089548
:1016A00006E0089507E0089508E0089500E0089531
:1016B000BA93AA930E94951605E210E00E945C215D
:1016C000A4E8BAE0202F212B29F00E9463020D9399
:1016D0001C9303C000E00D930C93119702E010E0FF
:1016E0000E945C21202F212B31F00E949B0B12962F
:1016F0000D931C9304C000E012960D930C93139766
:101700000E94C4160D911D910E9410030D911C9111
:1017100013970E94AA0BF4CF1D9A1598C39ABB9AEF
:101720000895222311F0C39A0895C398089500E004
:101730000D9901E00895BA93AA93D80128E104E332
:1017400010E00E94D41F0D931C9311978D01A99155
:10175000B9910895DA92CA929A928A927A926A928A
:101760005A924A92BA93AA939A938A932497D80149
:101770000D911C9111970E94DF1E902F002309F4F8
:1017800080C30A95033108F071C3F2E00F9FF001A6
:10179000EA52FE4F05901490F001099421E067C3CE
:1017A0000D911C9111970E942A1F002309F464C314
:1017B000802F0D911C9111970E942D1F202F0D91AC
:1017C0001C9111970E94461F8A9509F455C3F1CFC9
:1017D0000EE8402E00E0502EF2010491002309F49F
:1017E0004BC325912F010D911C9111970E94461F0B
:1017F000F3CF0D911C9111970E942D1F202F009166
:10180000840A1091850A0E946A032EC30D911C91CF
:1018100011970E942D1F202FE091840AF091850AD4
:101820000085F185E02F008111810E94B6131CC351
:101830000D911C9111970E942D1F01FB20E020F9B2
:10184000E091840AF091850A0085F185E02F00A5DA
:1018500011A50E94B60108C30D911C9111970E9419
:101860002D1F002311F021E001C020E0E091840A47
:10187000F091850A0085F185E02F028113810E9495
:10188000910BF2C20D911C9111970E942D1F802F78
:10189000E091840AF091850A0085F185E02F0681A8
:1018A000178180FB1EF40E944F0F02C00E94680F38
:1018B000E091840AF091850A0085F185E02F00858A
:1018C000118581FB1EF40E945A0F02C00E94780FFE
:1018D000E091840AF091850A0085F185E02F028568
:1018E000138582FB1EF40E94610FBEC20E94840F0A
:1018F000BBC20D911C9111970E942D1F802F0D913D
:101900001C9111970E94361F68010D911C9111972F
:101910000E94361FA601B801282FE091840AF09199
:10192000850A0085F185E02F008111810E94A314B2
:101930009BC20D911C9111970E942D1F202FE091A9
:10194000840AF091850A0085F185E02F00811181DC
:101950000E94C0142801390120E00D911C911197BB
:101960000E94461F92013AC10D911C9111970E944D
:10197000361F9801E091840AF091850A0085F1856F
:10198000E02F008111810E9471140D911C9111971B
:101990000E94361F9801E091840AF091850A008523
:1019A000F185E02F008111810E9487145DC20D91A5
:1019B0001C9111970E942D1F802F202F2170E091E4
:1019C000840AF091850A0085F185E02F06A117A110
:1019D0000E94400181FB20E020F9E091840AF0910F
:1019E000850A0085F185E02F06A117A10E94430119
:1019F00082FB20E020F9E091840AF091850A0085BD
:101A0000F185E02F06A117A10E94510120E0E0918D
:101A1000840AF091850A0085F185E02F06A117A1BF
:101A20000E942A0121C220E00D911C9111970E9471
:101A3000461F9E01E091840AF091850A0681178174
:101A40000E94C60A28810D911C9111970E94461F81
:101A500029810D911C9111970E94461F2A810D9199
:101A60001C9111970E94461F2B810D911C9111977B
:101A70000E94461F80E00091650003FD81E0C4994B
:101A8000826094998460E091840AF091850A0085CF
:101A9000F185E02F028113810E94970B002309F04A
:101AA0008860E091840AF091850A0085F185E02F35
:101AB000048115810E949409002309F08061E0915E
:101AC000840AF091850A0085F185E02F00A511A513
:101AD0000E94D001002309F08062E091840AF09115
:101AE000850A0085F185E02F00A511A50E94D3018C
:101AF000002309F08064E091840AF091850A008552
:101B0000F185E02F00A511A50E94D601002309F060
:101B10008068282F0D911C9111970E94461FE0911B
:101B2000840AF091850A0085F185E02F06A117A1AE
:101B30000E945701202F0D911C9111970E94461F62
:101B4000E091840AF091850A0085F185E02F0081FB
:101B500011810E945114202F0D911C9111970E9408
:101B6000461FE091840AF091850A0085F185E02FF7
:101B7000008111810E94DB14390198010D911C91A3
:101B800011970E945D1F93010D911C9111970E9466
:101B90005D1FE091840AF091850A0085F185E02FB0
:101BA000008111810E949D14390198010D911C91B1
:101BB00011970E945D1F93010D911C9111970E9436
:101BC0005D1FE091840AF091850A0085F185E02F80
:101BD000008111810E94CA14390198010D911C9154
:101BE00011970E945D1F930126C10D911C911197C1
:101BF0000E942D1F802E0D911C9111970E942D1F68
:101C0000902E0D911C9111970E942D1FA401602F01
:101C1000E091840AF091850A0085F185E02F00812A
:101C200011810E9454140D911C9111970E94361F2E
:101C30009801E091840AF091850A0085F185E02FF2
:101C400000A511A50E94D9010D911C9111970E9428
:101C5000361F9801E091840AF091850A0085F1858C
:101C6000E02F048115810E9497090D911C91119715
:101C70000E94361F9801E091840AF091850A008540
:101C800011850E948D1D0D911C9111970E94361F88
:101C9000E091840AF091850A2085F185E22F038B7B
:101CA000148B0D911C9111970E94361FE091840AAC
:101CB000F091850A2085F185E22F058B168B0D9119
:101CC0001C9111970E94361FE091840AF091850AB9
:101CD0002085F185E22F078B108F0D911C911197B4
:101CE0000E942D1F202FE091840AF091850A008523
:101CF000F185E02F258F0D911C9111970E94361FC1
:101D000098010091840A1091850A0E94D504ACC004
:101D100020E00D911C9111970E94461FE091840ACA
:101D2000F091850A0085F185E02F008111810E94E4
:101D30006C14512E622E202F0D911C9111970E9430
:101D4000461F252D0D911C9111970E94461F262D8F
:101D50000D911C9111970E94461FE091840AF09109
:101D6000850A0085F185E02F00A511A50E94E501F7
:101D700098010D911C9111970E945D1FE091840ABA
:101D8000F091850A0085F185E02F048115810E947C
:101D9000A30998010D911C9111970E945D1FE0917C
:101DA000840AF091850A008511850E94AC1D980176
:101DB0000D911C9111970E945D1FE091840AF09192
:101DC000850A0085F185E02F238934890D911C91C6
:101DD00011970E945D1FE091840AF091850A0085A9
:101DE000F185E02F258936890D911C9111970E946C
:101DF0005D1FE091840AF091850A0085F185E02F4E
:101E00002789308D0D911C9111970E945D1FE091E3
:101E1000840AF091850A0085F185E02F258D0D91CA
:101E20001C9111970E94461F0091840A1091850A07
:101E30000E94EB0498010D911C9111970E945D1F67
:101E40001BC00091840A1091850A0E9411050CC0E4
:101E50000091820A1091830A0E9451090091840A1C
:101E60001091850A0E94EF0420E001C024E00D914A
:101E70001C9111970E94461F292F0D911C910E94C1
:101E8000BD20249689919991A991B9914990599031
:101E90006990799089909990C990D99008952091EE
:101EA0006500286020936500969AF80100811181F1
:101EB0000C944902C49A979AF801008111810C94FC
:101EC0004902949A959AF801008111810C94490273
:101ED0003B2F4A2F20916500277F2093650096981D
:101EE00020E0D801ED91FC912383A42FB32F089516
:101EF0003B2F4A2FC498979820E0D801ED91FC9190
:101F00002383A42FB32F08953B2F4A2F949895989D
:101F100020E0D801ED91FC912383A42FB32F0895E5
:101F2000BA93AA93D8010E94C70904E910E0169653
:101F30000D931C9312961C9A149808E710E00E94C7
:101F400061010D931C9312970FEF00938C0A0C9371
:101F5000189704E003BF01E00ABF03E000938A0A78
:101F600002E202BF01E006BF07B7016007BF8D01B3
:101F7000A991B99108951A930A931FB709B70F7ED3
:101F800009BF01E902BF01E006BF07B7016007BF53
:101F900001E000938A0A1FBF099119911895FA93DD
:101FA000EA934A933A932A931A930A933FB70C9B66
:101FB00002C021E001C020E0E8E8FAE0028102303E
:101FC00011F403E002830281002329F5268300E156
:101FD00008BF09B7006109BF02E202BF01E006BF06
:101FE00007B7016007BF02E0028305810A950583F8
:101FF00091F446E0008111810E94FF200F7103835C
:1020000000810F730483018103FF03C00481006812
:10201000048303E0028302810130C1F406812017AA
:1020200099F000811181000F111F00831183222379
:1020300011F40160008302E202BF01E006BF07B7AE
:10204000016007BF00E001C003E0028302810330AA
:1020500061F40EE0058301E0068307B70E7F07BF3A
:1020600000E108BF09B7006109BF3FBF099119919D
:10207000299139914991E991F9911895BA93AA93C7
:102080009A938A93D8018FEFE8E8FAE0948103816C
:102090009F3FA9F0033199F48483EA2FF12F018542
:1020A00012850E944902FD010085901709F4892FCD
:1020B000FD0190878F77803468F080E010C0EA2FB0
:1020C000F12F9085018512850E940917002379F36D
:1020D0009FEFEECFF0E0E82FE956FF4F8491082FF5
:1020E00089919991A991B9910895BA93AA93D80128
:1020F00006E010E00E945C21202F212B29F020E037
:1021000030E00E94130202C000E010E011960D932F
:102110001D930CE205BDBF9A01E00C9313978D014E
:10212000A991B9910895F801018112810E940917BE
:10213000002311F00CE205BD0895F801338133232B
:1021400041F023BD9A01018112810E942D020CE110
:1021500001C00CE205BD0895F8012383038100232B
:1021600011F40CE205BD089544E650E02FE1E5CFFF
:1021700048E250E02FE1E1CF4CE251E026E5DDCF2F
:1021800040E0F8014483458346834783408341838D
:102190004283438340870895FA92EA92DA92CA9280
:1021A000BA92AA929A928A927A926A925A924A928F
:1021B000BA93AA939A938A93202E7901F801C0804A
:1021C000D180A60160E070E0890120E030E08480E9
:1021D0009580A680B7804084C801A0E0B0E08C194B
:1021E0009D09A040B040B49DB02DA49DA02DB10D7F
:1021F000949D902DA10DB61F849D910DA61FB61F15
:10220000402C82E38B9FB02D8A9FA02DB10D899F1A
:10221000902DA10DB61F849D910DA61FB61F80188D
:10222000990AAA0ABB0A418483859485A0E0B0E09C
:10223000801B910BA040B040B49DB02DA49DA02D5B
:10224000B10D949D902DA10DB61F849D802D910DF3
:10225000A61FB61F880F991FAA1FBB1F880D991DA7
:10226000AA1DBB1D2C013D01EFEF4E0E5E1E6E1E22
:102270007E1EEBE04E16EEEF5E06E3EF6E06E1E04B
:102280007E06E0F5E22D4284440F551F661F041BB5
:10229000150B260B304042815381040F151F271F59
:1022A000371F349D302D249D202D310D149D102D70
:1022B000210D371F049D110D271F731F402D512F16
:1022C000622F02EE14E0E0E0129F302D079F300DE8
:1022D000159F202D310D069F200D311D149F102DAF
:1022E000210D3E1F059F100D211D3E1F049F110D46
:1022F0002E1F3E1F8019910BA20BB30BBB232AF498
:1023000080E090E0A0E0B0E00CC08D300EEF9007D0
:1023100003EFA00701E0B00724F08CE09EEFA3EFED
:10232000B1E0E22D84839583A683B783C282D382F2
:10233000E082F18244EF51E060E070E08C019D01A9
:102340000E94282189919991A991B9914990599018
:102350006990799089909990A990B990C990D990F5
:10236000E990F9900895F801A90104EF11E030E037
:102370002224159F202D149F102D059F100D211D27
:10238000331F049F110D221D321D048215832683E5
:10239000378340835183428353830895BA93AA932A
:1023A000D801009161000D7F0093610000916100F0
:1023B0000E7F00936100BE9ABD9AB89A179A0DE0FD
:1023C00010E00E945C21202F212B11F0D9DE02C0E9
:1023D00000E010E057960D931D930DE010E00E9471
:1023E0005C21202F212B11F0CBDE02C000E010E099
:1023F0000D931C93589704E00D9300E00D930C93FC
:1024000011960D930C9311960D930D930D930C93C0
:1024100011960D930C93119601EC07B907EC06B9D0
:102420000FEF1FE317BD06BD00E00D930C9311964F
:102430000FEF19BD08BD00E00D930C9350970FEFFF
:102440001BBD0ABD02EF0FBD09E10EBD20E08D01ED
:102450008DD18D01A991B9910895BA93AA93D8010C
:102460000091940A002309F458C007B1013C04B15B
:1024700015B151F413962D913C91200F311F3C93CF
:102480002E93139700EC09C015962D913C91200FC7
:10249000311F3C932E93159701EC07B907EC06B951
:1024A00012960C9112970230B1F42FEF3FEF139672
:1024B0000D911C91159645E00E94F920201B310BCF
:1024C0002D933C93139701E00C93149700E00D9328
:1024D0000C93149717C00130A9F42FEF3FEF159616
:1024E0000D911C91159645E00E94F920201B310B9F
:1024F0002D933C93149701E00C93139700E00D93F8
:102500000C93169712960C910A950C931297002330
:1025100021F404E012960C93129711960C911197E6
:102520000A9561F00A9591F10A9509F452C00A954D
:1025300009F48EC00A9509F457C0CEC017960C91C5
:1025400017970023E1F019962D913C911D960D915E
:102550001C911B9721DEA8010D931C931E970FEF72
:102560001FEF20E030E060E070E0041B150B20401E
:10257000304044E050E00E94282119BD08BD189663
:102580000C911897002309F4A7C058C018960C9115
:102590001897002309F4A0C01B962D913C911B961F
:1025A0000D911C911B97F8DDA8010D931C931E97AC
:1025B0000FEF1FEF20E030E060E070E0041B150B30
:1025C0002040304044E050E00E94282119BD08BD61
:1025D00083C017960C911797002309F47DC01996B4
:1025E0002D913C911F962EC018960C9118970023A0
:1025F00009F472C01B964D915C911B960D911C9134
:102600001F972D913C911A974217530708F09A0192
:10261000C3DDA8011D960D931C931E970FEF1FEFAE
:1026200020E030E060E070E0041B150B20403040FB
:1026300044E050E00E94282119BD08BD1B962D9151
:102640003C911D960D911C911B97A6DDA80131C0F0
:1026500017960C9117970023F9F119962D913C913B
:102660001D960D911C911B9797DDA8010D931C934E
:102670001B960FEF1FEF20E030E060E070E0041BDE
:10268000150B2040304044E050E00E94282119BD45
:1026900008BD0D911C911F972D913C9113974D9161
:1026A0005C911A974217530708F09A0175DDA8014B
:1026B0001F960D931C9350970FEF1FEF20E030E013
:1026C00060E070E0041B150B2040304044E050E017
:1026D0000E9428211BBD0ABD00E017960D930C93A4
:1026E000A991B9910895AD01D8015796ED91FC914A
:1026F000293061F4D80196962D913C912C5C3C4098
:1027000023873487F80120A531A529C02A3061F438
:10271000D8019A962D913C9123873487F80124A5FE
:1027200035A52C5C3C401BC0222351F420E02387BC
:102730002487F801A18DB28D1B962D932C9314C084
:1027400034E0239FD801A00DB11D5E962D913C91E0
:102750005F9723873487FD0120A131A1F801A18D66
:10276000B28D1B962D933C93DA010895BA93AA93E8
:102770008A93D801822FC0981F98B5DF082F88232D
:10278000C1F00A9509F445C00A9571F10A95A9F1BD
:102790000A9509F440C00A9509F44FC00A9509F456
:1027A0005EC00A9509F469C00250F1F00A9529F15A
:1027B00073C000E0FD01058706870FEF1FE319BD19
:1027C00008BD00E00787008B0FEF1BBD0ABD20E0AE
:1027D00030E00789108DC7DD20E030E0FD01018D7C
:1027E000128DC1DD00E056C020E030E0FD01078918
:1027F000108DB9DD2FEF3FEF08C02FEF3FEFFD0148
:102800000789108DB0DD20E030E0FD01018D128DD3
:10281000AADD01E03FC000E0FD010787008B0FEF5C
:102820001FE31BBD0ABD20E030E00789108D9BDD52
:1028300002E0FD010183C09A2FC000E0FD01058781
:1028400006870FEF1FE319BD08BD20E030E0018DC2
:10285000128D89DD03E0FD0101831F9A1DC02FEF5A
:102860003FEFFD010789108D7EDD2FEF3FEFFD016A
:10287000018D128D78DD05E00DC02FEF3FEFFD01DA
:102880000789108D70DD2FEF3FEFFD01018D128D57
:102890006ADD04E0FD0101838C938991A991B991CE
:1028A0000895F801008108959D01F801438F548F28
:1028B000658F438D548DA789B08D18964D935D9388
:1028C0006C93438D548D658DA18DB28D18964D936B
:1028D0005D936C93D9010895F801038D148D258DB6
:1028E0000895F801258736874FEF5FEF60E070E0CD
:1028F000421B530B604070408A019B0144E050E052
:1029000060E070E00E94282119BD08BD0895F8011B
:102910002787308B4FEF5FEF60E070E0421B530B77
:10292000604070408A019B0144E050E060E070E04C
:102930000E9428211BBD0ABD0895F8010585168552
:102940002785308908951D012830C0F434E0239F85
:10295000F801E00DF11D468F578F60A371A3F801B8
:102960003081231759F42789F08DE22F438754874C
:10297000F801A18DB28D1B966D937C93D1010895C2
:1029800034E0239F000D111DF801068D178D20A145
:1029900031A108955B2F6A2FF801A789B08D1B968E
:1029A0004D911C91042F418DF28DE42F23853485A8
:1029B000A62FB52F0895F80101851285238534854A
:1029C0000895F801268D378D01851285201731076E
:1029D00010F001E0089500E00895F80120A131A170
:1029E000038514852017310710F001E0089500E0F9
:1029F0000895F801268D378D4185528524173507B6
:102A000038F420A131A1038514852017310710F077
:102A100001E0089500E00895BA93AA93D8013CE339
:102A200026E00091820A1091830A0E94E3085B96D7
:102A30000D933EE127E00091820A1091830A0E94E3
:102A4000E3080D933EE128E00091820A1091830A89
:102A50000E94E3080C9312974D915D91602F5D9752
:102A60008D0122DF4AE754E129E00091820A1091AA
:102A7000830A0E94FE085E960D931D934AE754E177
:102A80002BE00091820A1091830A0E94FE080D93A8
:102A90001D934FEF5FE32DE00091820A1091830AAE
:102AA0000E94FE080D931D934FEF5FE32FE000910E
:102AB000820A1091830A0E94FE080D931D934FEF26
:102AC0005FE321E10091820A1091830A0E94FE08CF
:102AD0000D931D934FEF5FE323E10091820A109164
:102AE000830A0E94FE080D931D934FEF5FE325E1DB
:102AF0000091820A1091830A0E94FE080D931D9393
:102B00004FEF5FE327E10091820A1091830A0E9450
:102B1000FE080D931D934FEF5FE329E10091820AB8
:102B20001091830A0E94FE080D931D934FEF5FEFF3
:102B30002BE10091820A1091830A0E94FE080D93F6
:102B40001D934FEF5FEF2DE10091820A1091830AF0
:102B50000E94FE080D931D934FEF5FE32FE100915C
:102B6000820A1091830A0E94FE080D931D9346E687
:102B700056E221E20091820A1091830A0E94FE0827
:102B80000D931D934CEC5CE423E20091820A1091BA
:102B9000830A0E94FE080D931D934CEC5CE425E231
:102BA0000091820A1091830A0E94FE080D931D93E2
:102BB00046E656E227E20091820A1091830A0E94BB
:102BC000FE080D931C93A991B9910895BA93AA9305
:102BD000D8015B963D9126E00091820A1091830A0C
:102BE0000E94F0083D9127E00091820A1091830A2B
:102BF0000E94F0083D9128E00091820A1091830A1A
:102C00000E94F0084D915D9129E00091820A109197
:102C1000830A0E941A094D915D912BE00091820A6E
:102C20001091830A0E941A094D915D912DE0009147
:102C3000820A1091830A0E941A094D915D912FE03A
:102C40000091820A1091830A0E941A094D915D91A8
:102C500021E10091820A1091830A0E941A094D9184
:102C60005D9123E10091820A1091830A0E941A0962
:102C70004D915D9125E10091820A1091830A0E9495
:102C80001A094D915D9127E10091820A1091830A02
:102C90000E941A094D915D9129E10091820A1091DB
:102CA000830A0E941A094D915D912BE10091820ADD
:102CB0001091830A0E941A094D915D912DE10091B6
:102CC000820A1091830A0E941A094D915D912FE1A9
:102CD0000091820A1091830A0E941A094D915D9118
:102CE00021E20091820A1091830A0E941A094D91F3
:102CF0005D9123E20091820A1091830A0E941A09D1
:102D00004D915D9125E20091820A1091830A0E9403
:102D10001A094D915C9127E20091820A1091830A71
:102D20000E941A09A991B991089509E000938A00B7
:102D30000FE71EE3109387000093860000E10093E5
:102D40007C0000937D00EFE8FAE000E0008301835F
:102D500002830383789408957894FA93EA932A93EC
:102D60001A930A932FB7EFE8FAE0008111810F5F01
:102D70001F4F0083118301E004832FBF0991199134
:102D80002991E991F99118952FB7F894EFE8FAE0B5
:102D900000811181028313830481058300E0048391
:102DA0002FBF08952FB7F89400918F0A1091900AC1
:102DB0002FBF0895BA93AA939A938A93D801F2DF0A
:102DC000C801E2DFA8950091910A1091920A081BB0
:102DD000190B0A171B07A8F389919991A991B99129
:102DE00008952091910A3091920AF8014081518111
:102DF000241B350B448155812417350718F021E039
:102E0000228303C02281222311F00381089500E070
:102E100008952091910A3091920AF80140815181E0
:102E2000241B350B448155812417350738F0228146
:102E3000222321F421E022830381089500E00895F4
:102E4000BA93AA93D8018D9A8C9A8E9A00916400B5
:102E50000860009364008F9ABC9A02E010E00E9420
:102E60005C21202F212B19F00E94451E02C000E09A
:102E700010E016960D931D9302E010E00E945C2175
:102E8000202F212B19F00E945B1E02C000E010E0F1
:102E90000D931D9302E010E00E945C21202F212B56
:102EA00019F00E946D1E02C000E010E00D931C930B
:102EB0005D960AE010E00E945C21202F212B19F082
:102EC0000E94740102C000E010E00D931C939797DC
:102ED00002E010E00E945C21202F212B19F00E94BB
:102EE0008C0B02C000E010E00D931D9308E010E091
:102EF0000E945C21202F212B19F00E94550902C04D
:102F000000E010E00D931C93919608E010E00E9401
:102F10005C21202F212B19F00E940C0102C000E03F
:102F200010E00D931C9397970EE310E00E945C2134
:102F3000202F212B19F00E94CE1102C000E010E0DA
:102F40000D931C93509604E010E00E945C21202F0A
:102F5000212B19F00E94A01E02C000E010E00D938A
:102F60001C931C9606E010E00E945C21202F212B70
:102F700029F020E030E00E94200202C000E010E0D2
:102F80000D931C93129606E010E00E945C21202F06
:102F9000212B29F020E030E00E94200202C000E056
:102FA00010E00D931C93569700E00D930D930C9336
:102FB00055960C9353970C9355960C9395978D01BA
:102FC000A991B9910895BA93AA93D801F8010285FD
:102FD00013850E94951EFD01068117810E947F1EA8
:102FE000FD01008511850E948A1EFD0100A511A525
:102FF0000E94A001FD01048115810E946C090D91C0
:103000001C9111970E942D12FD0105851485101742
:1030100009F405C226852017D9F0173021F40530B0
:1030200049F41AE005C0183029F4063019F41BE001
:10303000178701C0078706870EE004875196ED9138
:10304000FC91529701E00183028113810E94550295
:103050005196ED91FC91529700E00083028113811B
:103060000E94F116002309F4DAC1FD0107850E3034
:1030700008F0D5C1F2E00F9FF001E450FE4F05903B
:103080001490F00109944AE050E021E08D0179D3D9
:1030900044E650E020E08D0123D240E050E021E002
:1030A0008D01C0D240E050E025E08D011AD38D01A2
:1030B000F4D240E050E020E08D0113D340E951E02C
:1030C00020E08D0174D244E650E020E08D013BD237
:1030D00044E650E020E08D01A5D26FC14AE050E007
:1030E00021E08D014ED340E050E020E08D019AD1E7
:1030F00044E650E020E08D01F3D140E050E021E0D3
:103100008D0190D240E050E025E08D01EAD28D01A2
:10311000C4D240E050E020E08D01E3D240E951E02C
:1031200020E08D0144D244E650E021E08D010BD235
:1031300040E050E021E08D01D4D28D01F7D28D0125
:10314000AFD140E050E022E08D01CBD240E050E032
:1031500022E03BC04AE050E021E08D0112D340E084
:1031600050E021E08D015ED144E650E020E08D0189
:10317000B7D140E050E021E08D0154D240E050E072
:1031800025E08D01AED28D0188D240E050E020E0F4
:103190008D01A7D240E951E020E08D0108D242E341
:1031A00050E021E08D01CFD140E050E021E08D01E1
:1031B00098D28D01BBD28D0173D140E050E022E066
:1031C0008D018FD240E050E023E08D012BD24CE204
:1031D00051E021E08D0184D140E050E020E0F3C0D7
:1031E00044E150E021E08D01CCD244E650E020E003
:1031F0008D0176D140E050E021E08D0113D240E016
:1032000050E025E08D016DD28D0147D240E050E0C5
:1032100020E08D0166D244E650E021E08D0193D19B
:1032200040E050E021E08D015CD28D017FD244E688
:1032300050E021E08D01BBD140E050E024E08D0161
:10324000F1D140E050E023E034C044E150E021E01F
:103250008D0197D244E650E020E08D0141D140E05D
:1032600050E021E08D01DED140E050E025E08D010D
:1032700038D28D0112D240E050E020E08D0131D2F1
:1032800044E650E021E08D015ED140E050E021E0D5
:103290008D0127D28D014AD244E650E021E08D0114
:1032A00086D140E050E025E08D01BCD140E050E007
:1032B00024E08D0116D289C044E150E021E08D0167
:1032C00060D244E650E020E08D010AD140E050E0B9
:1032D00021E08D01A7D140E050E025E08D0101D231
:1032E0008D01DBD140E050E020E08D01FAD144E6D1
:1032F00050E021E08D0127D140E050E021E08D0138
:10330000F0D18D0113D244E650E021E08D014FD180
:1033100044E650E026E08D0185D140E050E023E016
:1033200034C044E150E021E08D012BD244E650E06E
:1033300020E08D01D5D040E050E021E08D0172D138
:1033400040E050E025E08D01CCD18D01A6D140E0D8
:1033500050E020E08D01C5D144E650E021E08D0130
:10336000F2D040E050E021E08D01BBD18D01DED1F3
:1033700044E650E021E08D011AD144E650E027E018
:103380008D0150D140E050E024E08D01AAD115C05C
:103390004AE050E021E08D01F4D14AE050E020E025
:1033A00008C04AE050E021E08D01EBD140E050E060
:1033B00021E08D0137D08D0173D040E050E0FD0158
:1033C000208901E020278D01DCD12EE026C04AE0D3
:1033D00050E021E08D01D5D140E050E020E08D01AA
:1033E0007FD040E050E021E08D011CD140E050E072
:1033F00020E08D01A8D08D0150D140E050E020E0C8
:103400008D016FD142E350E020E08D01D0D040E04B
:1034100050E020E08D0106D120E08D01E7D1A99197
:10342000B99108955A924A92BA93AA938A93D8016D
:10343000822F2A01F8010189F289E02F208123954A
:1034400020830181201731F5EA2FF12F00A511A566
:103450000E94D3010817A9F0282FFD0100A511A58E
:103460000E94B601282FFD0106A117A10E94430169
:1034700092015196ED91FC915297028113810E9425
:103480003B02FD01A189B28911960C9103950C9321
:103490000FE70E938991A991B99149905990089598
:1034A000BA93AA93D8015196ED91FC91529700815D
:1034B000039500831181011781F4FD0100A511A579
:1034C0000E94D601002349F0FD01A189B28911961D
:1034D0000C9103950C930FE70E93A991B991089560
:1034E000BA93AA939A938A93D801CA01F8010189E1
:1034F000F289E02F3081339530830181301711F547
:1035000000E0C49901E00217A1F0EA2FF12F008535
:103510001185222319F00E945A0F02C00E94780FD1
:103520009C015196ED91FC915297028113810E946A
:103530003B02FD01A189B28911960C9103950C9370
:103540000FE70E936AC0BA93AA939A938A93D8010D
:10355000CA01F8010189F289E02F30813395308367
:103560000181301719F50091650003FB10E010F997
:10357000121799F0FD0106811781222319F00E948C
:103580004F0F02C00E94680F9C015196ED91FC9173
:103590005297028113810E943B02FD01A189B289E9
:1035A00011960C9103950C930FE70E9336C0BA93C6
:1035B000AA939A938A93D801CA01F8010189F289E2
:1035C000E02F3081339530830181301731F5EA2FB8
:1035D000F12F0089002309F020E000E0949901E038
:1035E000021791F002851385222319F00E94610FC2
:1035F00002C00E94840F9C015196ED91FC9152975C
:10360000028113810E943B02FD01A189B2891196BA
:103610000C9103950C930FE70E9389919991A991C1
:10362000B99108954A92BA93AA939A938A93D8012A
:10363000422ECA01F8010189F289E02F20812395E9
:1036400020830181201719F50D911C9111970E947B
:1036500051140D911C9111970E945114041571F091
:10366000242D0D911C9150960E94B6139C01ED9152
:10367000FC915297028113810E943B02FD01A189B6
:10368000B28911960C9103950C930FE70E938991D3
:103690009991A991B99149900895BA93AA93D801A3
:1036A0005196ED91FC915297008103950083118111
:1036B0000117A1F4FD01028113810E94970B0023E1
:1036C00021F0FD0105A1002349F0FD01A189B28986
:1036D00011960C9103950C930FE70E93A991B99154
:1036E0000895BA93AA939A938A93D801CA01F801CC
:1036F0000189F289E02F30813395308301813017C1
:10370000A1F40A2F92D09C015196ED91FC91529711
:10371000028113810E943B02FD01A189B2891196A9
:103720000C9103950C930FE70E9377CFBA93AA935E
:10373000D8015196ED91FC91529700810395008339
:1037400011810117D9F40D911C9111970E94E11478
:10375000002339F40D911C9111970E94ED14002360
:1037600021F0FD01058D01FD09C0FD01A189B2898E
:1037700011960C9103950C930FE70E93A991B991B3
:1037800008954A92BA93AA939A938A93D801422EA3
:10379000CA01F8010189F289E02F20812395208355
:1037A0000181201711F5EA2FF12F06A117A10E9420
:1037B0005701102F1170141579F0242DFD0106A169
:1037C00017A10E9440019C015196ED91FC915297E6
:1037D000028113810E943B02FD01A189B2891196E9
:1037E0000C9103950C930FE70E9351CF5B2F6A2F2B
:1037F000D8015196ED91FC91308133953083418110
:10380000341781F43EE0F80136872E3009F0258721
:1038100025852487A189B28911960C9103950C9373
:103820000FE70E93A62FB52F0895BA93AA938A9304
:10383000D801822F00E0EA2FF12F00A3022F2223CC
:1038400059F00A9559F00A9589F00A9529F10A95D7
:1038500019F10A95B1F145C000E01CC025893689EF
:1038600001A112A10E943B0201E013C02789308D03
:1038700001A112A10E943B02FD01048115810E9459
:103880009409FD0104A321E0028113810E94910BA0
:1038900002E0FD0103A325C02789308D01A112A1FB
:1038A0000E943B02FD01048115810E949409FD01E3
:1038B00004A320E0028113810E94910BFD0183A3E8
:1038C00010C023893489068D178D0E943B02FD01AB
:1038D0002789308D01A112A10E943B0201E0FD0168
:1038E00000A38991A991B9910895F80125872C30F9
:1038F00021F02D3011F020E004D00895F801048566
:103900000895BA93AA938A93D801822FF801048567
:1039100015850117A1F4073011F0083081F40285F4
:103920001385222321F00E94840F20E003C00E940F
:10393000610F21E0FD0106A117A10E944001FD01D8
:1039400023A18D0172DFFD01808B8991A991B9912D
:103950000895BA93AA938A93D80180E0F80100A54C
:1039600011A50E94D001002309F081E0FD0100A50E
:1039700011A50E94D301002309F08260FD0100A57A
:1039800011A50E94D601002309F084600D911C91BD
:1039900011970E945114013009F48860FD010481DF
:1039A00015810E949409002309F08061FD010281C4
:1039B00013810E94970B002309F08062FD010089AA
:1039C000002309F0806405A1002309F08068082F16
:1039D0008991A991B9910895BA93AA93D801939620
:1039E0000C9193970A9539F00A9589F10A95C9F1D6
:1039F0000A95E9F155C00D911C9194960E94F91415
:103A00000C939597002329F05D960C915D9701FD2D
:103A10003CC090960C919097002309F449C01296EF
:103A20000D911C9113970E94970B002309F440C03D
:103A30005E960D911C915F970E94F1160023C1F1D3
:103A40005D960C915D9700FF33C002E063C00D915D
:103A50001C9194960E94F9140C939597002381F47D
:103A6000D8CF0D911C9194960E94ED14F5CF0D9135
:103A70001C9194960E94E1140C939597002349F2AF
:103A80005D960C915D9702FFC4CF91960D911C91AC
:103A900092970E94F116002309F4BBCF01E03AC0CF
:103AA0000D911C9194960E94F9140C939597B1CFA7
:103AB00093960C919397023060F114960D911C919E
:103AC0005F960E9494093C91949721E0102F122751
:103AD000312311F003E01EC094960C9392970D9140
:103AE0001C9113970E94970B002399F490960C91C8
:103AF0009097002371F491960D911C9192970E94DA
:103B0000F116002331F05D960C9103FF02C004E032
:103B100001C000E0A991B9910895AD01F801218F8C
:103B2000328F218DA681B781ED91FC91248335835D
:103B3000F801218D328DA085B185ED91FC91248312
:103B40003583F801218D328DA285B385ED91FC91ED
:103B500024833583DA010895F801018D128D0895CB
:103B6000BA93AA93D8013FE029E20091820A10910A
:103B7000830A0E94E3085D960C931A9748E853E184
:103B80002AE20091820A1091830A0E94FE080D9396
:103B90001D9340E253E02CE20091820A1091830AC7
:103BA0000E94FE080D931D9348EE53E02EE2009113
:103BB000820A1091830A0E94FE080D931D93409182
:103BC000800A5091810A20E30091820A1091830AB1
:103BD0000E94FE080D931C935A9798018D019DDF5A
:103BE00098960D911C9199970E94E9010D911C9155
:103BF00013960E940C150D911C910E94A709A99182
:103C0000B9910895BA93AA93D8015D963C911A97F9
:103C100029E20091820A1091830A0E94F0084D91D6
:103C20005D912AE20091820A1091830A0E941A098A
:103C30004D915D912CE20091820A1091830A0E94BD
:103C40001A094D915D912EE20091820A1091830A2A
:103C50000E941A094D915C911E9620E30091820A00
:103C60001091830A0E941A090D911C9199970E9444
:103C700009020D911C9113960E94E6150D911C915D
:103C80000E94BD09A991B9910895BA93AA93D80148
:103C90008E9A009164000860009364000091800A8D
:103CA0001091810A0E9461010D931C9311978D015F
:103CB000A991B9910895BA93AA93D8018F9ABC9A01
:103CC0000091800A1091810A0E9461010D931C935A
:103CD00011978D01A991B9910895BA93AA93D8012A
:103CE0008D9A8C9A0091800A1091810A0E9461013C
:103CF0000D931C9311978D01A991B9910895969BED
:103D000008C0F801008111810E940917002309F001
:103D100096980895979B08C0F801008111810E9430
:103D20000917002309F097980895959B08C0F8019A
:103D3000008111810E940917002309F095980895C8
:103D4000BA93AA93D80106E010E00E945C21202FCC
:103D5000212B29F020E030E00E94200202C000E088
:103D600010E012960D931C9313978D01A991B991B0
:103D70000895BA93AA939A938A93D80153962C9351
:103D80001B97822F90E004968C010E945A210D937C
:103D90001C9318968C010E945A210D931C935297E4
:103DA00000E00C9306E01A960C93199700E00C9330
:103DB00011978D0189919991A991B99108951D014A
:103DC00040E0F8012181263009F041C0258140857D
:103DD000241B2350278342E82085318523833483A5
:103DE000F9015081552391F4F8016381732F6F5FBE
:103DF0007F4F638374830AC0D0016D91A383B48322
:103E00004627E42FF0E0EA52FF4F4491F801658124
:103E10007681038014806015710570F72F5F3F4F26
:103E200023833483442321F4A381B32F4C9101C015
:103E300041E020E0208B208531852D5F3F4F23839B
:103E40003483218932892D5F3F4F24873587042FA2
:103E5000D1010895F801078108959D01F801A3811A
:103E6000B4810D91A383B483D90108953B2F4A2FC8
:103E7000F801A381B4812D91A383B483A3811D9103
:103E8000A383B483022FA42FB32F08953B2F2A2E90
:103E9000F8010484158441895289638970E0460FD2
:103EA000571F4D5F5F4F0416150620F4D0012D9368
:103EB000A487B587A22DB32F08950D01F80164855D
:103EC000758501891289438950E0040F151F0E5F23
:103ED0001F4F6017710748F4DB012C9311968D0179
:103EE0000F5F1F4F048715873C93D0010895BA9345
:103EF000AA93382E022EF801248535852687378728
:103F000021883289622D22192350208B732F6F5FF5
:103F10007F4F6487758780818068E22DF32F8083CF
:103F2000262FFB010082F8016089E22FF72F6183C1
:103F300062E8F8012189328924873587208122238C
:103F400081F424852F5F3F4F248735870AC0D9012C
:103F50002D91A487B5876227E62FF0E0EA52FF4F44
:103F60006491F80124853585068417842015310570
:103F700070F3F9016083F80121893289248735873C
:103F80002081222329F424852F5F3F4F2487358702
:103F900020E02387218324E0228700ECFA010083BC
:103FA000832DA991B9910895AA939A938A93C801F0
:103FB000A22F06E110E00E945C21202F212B21F08E
:103FC0004A2F9C0107D002C000E010E0899199912E
:103FD000A9910895BA93AA939A938A93D801C90193
:103FE000242F0E94B91EA093950AB093960A189A9E
:103FF0001098199A119A06E00093950089B9909348
:10400000900008ED0AB98D0189919991A991B99112
:104010000895BA93AA93FA93EA936A935A934A93A8
:104020003A932A931A930A936FB70CB1E091950AC9
:10403000F091960A1181163009F454C0003C41F405
:1040400001E00183008511850383148300E003C030
:104050000B3D19F401E0028345C02281222349F07F
:104060000D3D11F40BED03C00C3D61F500EC20E0BB
:1040700022831150F9F01A9571F11A9559F01A9599
:1040800089F523813481458156812417350729F527
:1040900016E022C014E011831389101708F4012FD1
:1040A0002085318510E0200F311F2D5F3F4F258384
:1040B000368313C012E0118307FB3EF40F771081A3
:1040C000011759F000E001830DC010E0A381B48115
:1040D0001D93A383B48313E01183A381B4810D9353
:1040E000A383B4836FBF09911991299139914991A3
:1040F00059916991E991F991A991B9911895BA935A
:10410000AA93FA93EA936A935A934A933A932A9317
:104110001A930A936FB7E091950AF091960A028577
:10412000043041F5A485B5850D91A487B587003C81
:1041300011F00B3DA1F41385112351F40BED11E0A7
:10414000138724853585215030402487358707C063
:10415000003C11F40CED01C00DED10E01387268535
:104160003785448555852417350710F415E01287E7
:104170000CB902C006E00287B5CF2197AE010E94BC
:10418000771F08810CB9219608950C94B52101E0A0
:1041900010E00C94B5210FE70DBF0AE00EBFC0E0A0
:1041A000D4E00E945821002311F00E9488210E942F
:1041B000580B0E94F7200C94C520E199FECF08957A
:1041C0004F5F5F4FFADF4EBB5FBBE09A0895FADFA7
:1041D0000DB308954F5F5F4F4EBB5FBBF894E29AFB
:1041E000E19A0FBE08950FB6E8DF0DBBF5CF0C9432
:1041F000C5204A951AF0000F111FFBCF08954A956C
:104200001AF016950795FBCF08950024112410018C
:10421000E0E2EA9592F0001F111F221F331F001CDD
:10422000111C221C331C041615062606370688F3BB
:10423000041A150A260A370AECCF001F111F221F85
:10424000331FA001B1010095109520953095089578
:10425000FF27772312F4F16015D0332312F4F09581
:1042600009D00E940521F69508F404D0F69508F4CB
:1042700009C0089530952095109501951F4F2F4F37
:104280003F4F089570956095509541955F4F6F4FE2
:104290007F4F0895BA93AA939A938A930895BB8106
:1042A000AA8199818881F0E0EC0FFD1FEF0108954C
:1042B00001E008950C945C219A938A93C80102C08E
:1042C0000E9478218C010E946E22202F212B69F4FC
:1042D000E7E9FAE02081318100E02030300781F306
:1042E000E091970AF32F0995EDCF8991999108955F
:1042F0000C94C72020E006D0E9F70895259102D05C
:10430000E9F708952D9301501040202F212B089597
:104310008CE895E4FC0105911491FC013296A5917D
:10432000B491FC01349625913491422F432B19F01E
:10433000F901E4DF01C0DEDF069615E48839910754
:1043400048F30895E9E9FAE000811181012B19F0A1
:1043500000E010E0089500E014E00083118320E005
:1043600036E0F801208331830895FFCF0D01D80195
:10437000012B09F452C01297ED91FC9111973497DB
:1043800008F44BC00BE91AE0F80150D019F0A2175D
:10439000B30728F4FD0122833383F80123C0F90118
:1043A00045D019F02A173B07D0F3408151819F0176
:1043B000240F351FA217B30780F12A173B0741F4DA
:1043C0002D913C91420F531F40835183DF010CC05C
:1043D0002DD021F024D026173707F8F012962D9310
:1043E0003C931397A283B383FD0120D0B1F017D083
:1043F0006217730791F440E0F80140834183F901AB
:10440000008111814D915C91400F511F5C934E933F
:1044100002811381FD0102831383D00108954D9120
:104420005C911197BD01640F751F0895228133813E
:10443000422F432B08950E944A21C80104C00E5FF9
:104440001F4F0E94B621EBE9FAE0A081B1810A2F4B
:104450000B2B59F4ADE9BAE02FD021F137D000F59C
:1044600030D0FACF33D0E0F42CD026D0D9F7EBE916
:10447000FAE00081F181E02F00811181ADE9BAE01D
:1044800001C01FD02D913C9111972017310751F099
:10449000ED91F32F1197208131812817390788F387
:1044A0008D0107C00E94A221202F212B41F600E0A0
:1044B00010E0E4E00C944F210D911C911197012B19
:1044C0000895FD01A081B18112960895ED91F12F1B
:1044D0001197008111810817190708950E944A2138
:1044E000C80102960817190758F4843000E09007B5
:1044F00010F484E090E08C019EDF202F212B19F432
:1045000000E010E03EC0F80120813181F901A08176
:10451000B1811497A817B90730F422813381D801EB
:104520002D933C9316C0280F391FD8012D933C932F
:104530004281538127D04D935C9340815181481B28
:10454000590BD8012D91BC91A22F4D935C93808380
:104550009183D8012D913C91232B59F013D02D91AB
:104560003C91232B31F0D8010D911C910E5F1F4F10
:1045700002C000E010E0ABE9BAE00D931C93329664
:104580008F0197CFD8012D91D9019ECF1D00820AAE
:0A45900000000200800A9845E803CD
:00000001FF
:00000001FF
