:100000000C94C5211895189518951895189518955C
:10001000189518950C9455101895189518951895CD
:100020001895189518951895189518951895189568
:100030001895189518951895189518951895189558
:100040000C946910189518950C940321189518951F
:100050000C9479210C948F12189518951895189571
:1000600018951895189518950C948A171895189541
:100070001895189518951895189518951895189518
:100080001895189518951895189518957D0B452D68
:100090003030342056312E323100D8101B0D0A0872
:1000A000000000000000000100000000000000054A
:1000B000020400000000000607030000000000002A
:1000C0000000000000000000000000000000000030
:1000D00000000000000000000000000000005EBC06
:1000E000E2613FDD83C29C7E20A3FD1F419DC321B1
:1000F0007FFCA2401E5F01E3BD3E6082DC237D9F4A
:10010000C1421CFEA0E1BF5D0380DE3C62BEE00296
:100110005CDF81633D7C22C09E1D43A1FF4618FA2F
:10012000A427799BC584DA3866E5BB5907DB856768
:1001300039BAE406581947A5FB7826C49A653BD915
:1001400087045AB8E6A7F91B45C6987A24F8A6444E
:100150001A99C7257B3A6486D85B05E7B98CD230FB
:100160006EEDB3510F4E10F2AC2F7193CD114FAD18
:10017000F3702ECC92D38D6F31B2EC0E50AFF113E1
:100180004DCE90722C6D33D18F0C52B0EE326C8EFE
:10019000D0530DEFB1F0AE4C1291CF2D73CA9476BF
:1001A00028ABF517490856B4EA6937D58B5709EBE0
:1001B000B536688AD495CB2977F4AA4816E9B7559D
:1001C0000B88D6346A2B7597C94A14F6A8742AC8C6
:0D01D00096154BA9F7B6E80A54D7896B3590
:1001DE002B0C2D0C450CD00FD00F560C630C750C40
:1001EE00890C9F0CD60CF60C110D340D700D520EA1
:1001FE00030FBB0FC20F21194C1988194C19211965
:10020E00CE19031A3A1A6F1AC51AF5192A1AA61A0E
:10021E00AF1A169AD09A209162002068209362003D
:10022E00209161002068209361002091620020647B
:10023E002093620020916100206420936100D19888
:10024E00D29821E0F801278320E026830895F80153
:10025E00268327810681202B0091620011F0006415
:10026E0001C00F7B009362000895F801368121E0F2
:10027E00322736830781032BEFCFF8012783EACF8E
:10028E0022230091620029F4006800936200D8983E
:10029E0008950F7700936200D89A0895222311F0E3
:1002AE001E9A08951E98089500E01091620016FDA2
:1002BE0001E0D89902601E99046008959A938A937A
:1002CE00C80106E010E00E945822202F212B21F0B9
:1002DE009C010E94170202C000E010E089919991E2
:1002EE000895BA93AA93D801BA9A00916200086051
:1002FE00009362000091610008600093610000911C
:10030E006200006100936200009161000F7E009315
:10031E00610001E017960D9300E00D930C93169774
:10032E0000ED17E00E9465010D931C9314970E9437
:10033E004D028D01A991B9910895BA93AA93D8014E
:10034E0019960C911997002359F413960D911C913F
:10035E0014970E94E717002319F001E019960C93E9
:10036E00A991B9910895BA93AA938A93D801822F2D
:10037E00F8010085021769F0222311F0C29A01C01C
:10038E00C29800E00187038114810E944D02FD0195
:10039E0080878991A991B9910895F80107810895EF
:1003AE00F80100850895F80101850895AD01F80161
:1003BE00258336832581A381B48114962D933C9396
:1003CE00DA010895F801058116810895BA93AA936A
:1003DE00D80140ED57E022E00091820A1091830A85
:1003EE000E944A0915960D931C931397ED91FC915B
:1003FE0015962C91222329F498018F010E94310227
:10040E0002C004831583A991B9910895F80145811D
:10041E00568122E00091820A1091830A0C9466099B
:10042E00F8012483358320E0238322832091960ACA
:10043E003091970A208331830895F8012483358300
:10044E0020E0238322832091960A3091970A2083FD
:10045E0031830895F8012483358321E0238320E03E
:10046E0022832091960A3091970A20833183089532
:10047E00F8012483358321E0238320E02283209119
:10048E00960A3091970A20833183089521E0F8016E
:10049E00238320E022832091960A3091970A2083AD
:1004AE003183089521E0F80123832091960A30913B
:1004BE00970A44815581241B350B2083318308957F
:1004CE00BA93AA93D8010E946E0501E010E00E9433
:1004DE005822202F212B39F00E941A090093820AEC
:1004EE001093830A05C000E00093820A0093830AEA
:1004FE0000E110E00E945822202F212B19F00E94BB
:10050E00560B02C000E010E00D931D930BE010E0BF
:10051E000E945822202F212B19F00E942A1002C06F
:10052E0000E010E00D931C931C9600E00C931B97BB
:10053E0004E010E00E945822202F212B19F00E9477
:10054E000F1102C000E010E00D931C9313960AE207
:10055E0010E00E945822202F212B19F00E94FE1726
:10056E0002C000E010E00D931C9313970FE010E013
:10057E000E945822202F212B19F00E94A70A02C098
:10058E0000E010E00D931C931E9608EB1BE00E94FA
:10059E0065010D931C931E970D911C9118960E9448
:1005AE00A31D0C93179700E00C9319960C931596B8
:1005BE000D930C9312970C931C970D930D930D9313
:1005CE000C93129601E00C9350978D0143D230E0BC
:1005DE002FEF16960D911C9111970E94FF0A0D9107
:1005EE001C9111970E94C60A08EE13E00E94B817DC
:1005FE0034E02FEF0D911C9111970E94FF0A0D917F
:10060E001C9113970E94C60A0D911C9115970E947A
:10061E004E118D01A991B9910895BA93AA93D8015B
:10062E000D911D910E94430A0D911D910E94430A46
:10063E000D911C9113960E942D110D911C911997DD
:10064E000E94C1180D911C911E960E949D0A0C933A
:10065E001F97002341F412960D911C911C960E9437
:10066E009D0A0C931F979D01215F3F4F8D010E94A4
:10067E0097051F962C911F97222311F08D0127D0DD
:10068E008D010E94D706002349F08D010E94F606C7
:10069E008D010E9474088D010E94A808A991B9913C
:1006AE000895253041F4F80103A103FF02C007E0CD
:1006BE00089505E00895263041F4F80103A103FFE3
:1006CE0002C008E0089506E00895022F0895BA9337
:1006DE00AA9321972883D80114960D911C911597F2
:1006EE000E9452119E018D010E94BB0508810A9540
:1006FE0009F47FC00A95D9F00A9509F10A9509F413
:10070E00C7C00A9509F4D0C00A9509F440C00A95ED
:10071E0009F49CC00A9509F4E1C00A9509F432C1A6
:10072E00035009F43FC10A9509F468C16FC100E096
:10073E001B960C9312960C93159720E0C7C01B9630
:10074E000C911B97033091F494960C91949704FF9F
:10075E0011C001E01B960C93139720E0ED91FC91D4
:10076E00199706A117A10E94550104C001E01B961E
:10077E000C931B9794960C91949705FD35C01D967E
:10078E000C911D97002309F409C12CE01DC01B9686
:10079E000C911B97033001F594960C91949704FFDE
:1007AE000CC002E01B960C93139720E0ED91FC9188
:1007BE00199706A117A10E9455011D960C911D9720
:1007CE00002309F4EBC02DE018960D911C911197A2
:1007DE000E945A1D21E0D0C002E01B960C93599640
:1007EE000C91949705FFE9CF00E01D960C931D9791
:1007FE00D5C01B960C911B97002369F0013009F0B0
:10080E0005C11D960C911D97002329F494960C9109
:10081E00949703FFFBC003E01B960C9358960C9124
:10082E00939701FF04C001E01D960C931D9721E0E4
:10083E001896ED91FC91149606A117A10E945501F0
:10084E000C911D97002309F0CFC0A8C01D961C91D6
:10085E0001E010271C931D97112309F49FC01B96CE
:10086E000C911B97013041F0023031F0033021F032
:10087E0000E01B960C931B9724E018960D911C918B
:10088E005B960E945A1D0C91949702FDBFC072C0D8
:10089E0000E01D960C9312970C911B97073011F4E4
:1008AE0005E00FC025E00BC000E01D960C931297DB
:1008BE000C911B97083011F406E003C026E08D0161
:1008CE00F0DE1B960C931B9720E01896ED91FC9191
:1008DE00129606A117A10E94550161C01B960C919C
:1008EE001B97033069F420E01896ED91FC91129657
:1008FE0006A117A10E94550101E00C931B9702C09F
:10090E00013031F401E01C960C931C9726E007C0D1
:10091E00023071F402E01C960C931C9725E08D01B9
:10092E00C0DE1B960C93139601E00C931E9716C017
:10093E00073011F0083061F493960C91939705FFF0
:10094E0007C021E018960D911C9119970E947B1DEE
:10095E001E960C911E97002309F458C01B962C91DD
:10096E0013970D911C915A960E945A1D0C919397B4
:10097E0004FF4CC021E018960D911C9119970E940E
:10098E007B1D44C01E960C911E97002339F01C96B9
:10099E000C910E93139600E00C931E971B962C91C0
:1009AE00139726C01B960C911B97033079F10130DB
:1009BE0051F402E01B960C9312960C911D97002396
:1009CE00A9F422E014C0023051F401E01B960C93FE
:1009DE0012960C911D97002339F421E008C0519610
:1009EE000C91519701FF02C02CE001C02DE018962A
:1009FE000D911C9119970E945A1D08C01896ED91E1
:100A0E00FC91199706A117A10E943C0101E0509696
:100A1E000C93139600E00C932196A991B991089529
:100A2E00BA93AA93D80193962D933C93909726FB55
:100A3E0020E020F901E020270D911C911B960E94C9
:100A4E00461101E00C93A991B9910895F80103A103
:100A5E0014A10895BA93AA93D8014CEA51E225E362
:100A6E000091820A1091830A0E944A0993960D936F
:100A7E001C932E915F9726FB20E020F901E02027A2
:100A8E000D911C9113960E9446110D911C910E947E
:100A9E00AA1EA991B9910895BA93AA93D8019396D3
:100AAE004D915C915C9725E30091820A1091830A27
:100ABE000E9466090D911C910E94FC1E0091820AF3
:100ACE001091830A0E948709A991B9910895009106
:100ADE006500016000936500009164000E7F009335
:100AEE00640000916400006100936400909A8898FD
:100AFE00919A8998929A8A98939A8B9AC19AB99850
:100B0E00009161000B7F00936100009161000F7DE9
:100B1E0000936100A89508E101BD0CE001BD0895A8
:100B2E00AD01D801F90100810023E1F00B3041F451
:100B3E0051960C9101FF02C006E001C003E0008354
:100B4E00008106FF06C0083411F409E001C000E080
:100B5E000083008107FF06C0023811F40AE001C0CD
:100B6E0000E00083DA010895BA93AA939A938A93C8
:100B7E00D801C901F80104A100FF0DC103850023AE
:100B8E00F901008109F0F1C00A3071F4EA2FF12F5A
:100B9E0017891123E9F401E0078B058916890E9454
:100BAE004D0200E0FD01F3C0023091F4EA2FF12F67
:100BBE000789002309F4EFC000E0078B20E00589C8
:100BCE00F689E02F2383EA2FF12F208F218FE1C0AA
:100BDE00FD0117891A9531F01A9581F11A9509F4CC
:100BEE009EC0D9C0063011F402E010C0053011F4D9
:100BFE0026E003C0043039F425E08D010E9458032D
:100C0E00FD01008F12C0033019F401E0008F12C0F5
:100C1E00073021F0013011F0083039F404811581CC
:100C2E000E94561102E0FC010083FD01008D00239D
:100C3E0009F470C002E0FC01008368C0108D18300A
:100C4E0021F4053069F406E005C0173029F40430AC
:100C5E0081F505E0008F70C0163011F0123021F5CD
:100C6E00033011F401E00BC0043031F425E08D01A6
:100C7E000E945803FD0103C0073019F404E0018FF0
:100C8E000FC0063031F0053021F0013011F0083080
:100C9E0039F4048115810E94561102E0FC01008393
:100CAE00FD01008D073029F0008D053011F0013067
:100CBE0029F5FC010081063011F402E00CC005306C
:100CCE0039F426E08D010E945803FD01018F16C0F4
:100CDE00073021F404E0FD01018F14C0033031F020
:100CEE00043021F0013011F0083041F4FD0104818F
:100CFE0015810E94561102E0FC010083FD01018D59
:100D0E00002341F002E0FC01008303E0FD01078BAC
:100D1E0001E0008B058916890E944D023CC0118DA1
:100D2E00183021F4053069F406E005C0173049F497
:100D3E00043039F405E0018F058916890E944D02B1
:100D4E0010C0063051F0033041F0053031F0043060
:100D5E0021F0013011F00830F1F4048115810E9468
:100D6E00561102E0FC01008316C0063061F003301C
:100D7E0051F0053041F0043031F0013021F00230F5
:100D8E0011F00C3041F400E0EA2FF12F078B008FA9
:100D9E00018F01E0008B89919991A991B9910895E4
:100DAE00BA93AA93D8010091990A0023A1F01A963A
:100DBE000C9103950C931A970A3069F400E01A9679
:100DCE000C9312970D911C9118960E94A31D0C93D3
:100DDE00A89501E001C000E0A991B9910895BA93D8
:100DEE00AA93D80116960D911C911A960E94C60AC6
:100DFE000C911E915097112331F452961C915297DB
:100E0E00101709F467C152960C93129700E00C93D9
:100E1E001A9734E02FEF0D911C9150960E94FF0A05
:100E2E000C915797013019F430E02CE34EC102308B
:100E3E0011F00330F1F458960C915897083021F0C8
:100E4E00063011F0023041F430E02CE416960D918C
:100E5E001C9117970E94FF0A58960C9158970730CD
:100E6E0029F0053019F0013009F034C130E020E7E7
:100E7E002CC151960C91519700FF19C002FD02C072
:100E8E0033E008C093960C91939702FF02C031E0B5
:100E9E0001C034E016960D911C911A962C91519723
:100EAE0021FF02C020E201C024E00E94FF0A1B962F
:100EBE000C911B970023A1F00A9501F10A9591F16F
:100ECE000A9509F443C0025009F44FC00A9509F47B
:100EDE005BC00A9509F467C00A9509F487C0AEC0D5
:100EEE0016960D911C911A962C91519724FF03C0C2
:100EFE0030E022E0A1C034E020E09EC01D960C91AF
:100F0E001D97002339F093960C91939700FF02C022
:100F1E0032E006C051960C91519702FF8FC030E01F
:100F2E0024E086C01D960C911D97002339F09396F0
:100F3E000C91939700FF02C032E006C051960C91BF
:100F4E00519702FF7BC030E020E272C01D960C91DB
:100F5E001D97002339F093960C91939700FF02C0D2
:100F6E0032E001C030E025E063C01E960C911E9762
:100F7E00002341F030E020E216960D911C91179758
:100F8E000E94FF0A30E030C01E960C911E9700237F
:100F9E0041F030E024E016960D911C9117970E94B7
:100FAE00FF0A30E044C01E960C911E97002341F0BC
:100FBE0030E020E216960D911C9117970E94FF0AC1
:100FCE0051960C91519706FF0EC016960D911C91DD
:100FDE001A962C91519733E021FF02C020E201C0F6
:100FEE0024E00E94FF0A32E028E022C01E960C91F7
:100FFE001E97002341F030E024E016960D911C91CF
:10100E0017970E94FF0A51960C91519706FF0EC03A
:10101E0016960D911C911A962C91519733E021FF43
:10102E0002C020E201C024E00E94FF0A32E020E16B
:10103E0016960D911C9117970E94FF0A51960C91CE
:10104E0051970872083241F433E022E016960D9162
:10105E001C9117970E94FF0A1D960C911D97002355
:10106E0071F016960D911C915C962C91939720FF22
:10107E0002C032E001C030E020E40E94FF0A59961F
:10108E001C915997112331F194960C91949701FF6D
:10109E0002C001E001C000E0302F1A95A9F01A95A8
:1010AE0069F0125049F01A9569F01A9549F01A959F
:1010BE0049F01A9529F00EC020E407C020E205C0C1
:1010CE0020E103C028E001C024E016960D911C918A
:1010DE000E94FF0AA991B9910895BA93AA93D801D3
:1010EE0018960D911C9119970E94E61D002331F15F
:1010FE0053961C9153971123A9F4033099F41B9620
:10110E000C911B97013011F402E005C0023011F46E
:10111E0001E001C000E054960C93549701E0539601
:10112E000C93539700E01B960C93139729E00D91A7
:10113E001C9117960E945A1D01E00C93A991B9912A
:10114E000895BA93AA93D80155960D911C9156976E
:10115E000E94E717002321F157960C915797033001
:10116E0071F458962C911D972C931D9600E00C93BC
:10117E0050970D911C9119970E945A1D0AC01496F2
:10118E000D911C9153960E94521100E00D930C93F9
:10119E00599700E057960C93179701E00C935097D0
:1011AE0053960C9153970023D9F118960D911C91DB
:1011BE0019970E94731D002399F551960C91519722
:1011CE00007A59F559962C915997222361F01B9666
:1011DE002C931E9600E00C9351970D911C9117962F
:1011EE000E945A1D17C093960C91939707FF15C036
:1011FE0054962C915497222381F01B962C9313977F
:10120E000D911C9111970E945A1D0D911C911796CC
:10121E000E94761D01E00C93509700E053960C93BC
:10122E00A991B9910895BA93AA93D80101E00C93AC
:10123E0040E050E020E00A2F26D000321E4B11F481
:10124E0001E001C000E00C938D01A991B9910895C0
:10125E00F8010081002339F030E040E050E0420F09
:10126E00531F0C94E121032F089510E040E050E04D
:10127E00420F511F0E94E121031721F0032F0E94FC
:10128E00ED21A89508952297F8010081002389F099
:10129E0030E040E050E0420F531F0E94E1210883EE
:1012AE00239540E050E0420F531F0E94E121098335
:1012BE0002C0488359830881198122960895229786
:1012CE0048835983188130E040E050E0420F531FAD
:1012DE000E94E121011721F0012F0E94ED21A89516
:1012EE001981239540E050E0420F531F0E94E121E7
:1012FE00011721F0012F0E94ED21A8952296089545
:10130E00BA93AA93D80140E25EEB20E0D8DF40E02A
:10131E0050E020E08D01B7DF00321E4B11F401E0EA
:10132E0001C000E00C93A991B991089520E0F80155
:10133E0020830895BA93AA93D8011A9812981B98ED
:10134E00139800E012960D930C93139608EC10E090
:10135E000E9465010D931C9317978D01A991B99168
:10136E000895BA93AA93D801459B02C001E001C02B
:10137E0000E012961C911297101771F012960C93B2
:10138E0014960D911C9113972D913C91F801248385
:10139E0035830E944D0210C013960C9113970117BE
:1013AE0059F016960D911C9117970E94E71700237E
:1013BE0019F012960D910C93A991B9910895F80117
:1013CE0003810895AD01F801248335832481A6811C
:1013DE00B78114962D933C93DA010895F801048198
:1013EE0015810895AD0121E0F801228320E02383C9
:1013FE0024813581245D3E4FEACFBA93AA93D8015A
:10140E0048EC50E024E00091820A1091830A0E9479
:10141E004A0914960D931D93ED91FC910483158347
:10142E00A991B9910895F8014481558124E0009164
:10143E00820A1091830A0C946609BA93AA93D80172
:10144E0000E012960D930D930D930C93159706E0F5
:10145E0010E00E945822202F212B29F020E030E0AE
:10146E000E94170202C000E010E00D931C9311972A
:10147E008D01A991B9910895BA93AA938A93D8012F
:10148E000091990A002309F44DC00A2F1696ED918A
:10149E00FC9117972591F491E22F0995802FFD016C
:1014AE000381801759F022E330E00D911C911197C2
:1014BE000E943102FD01838301E033C002810023CB
:1014CE0089F10D911C9111970E94E717002351F19C
:1014DE00FD0102810130F9F488230581C1F006FD7A
:1014EE000BC00F7705830064058322E330E0008193
:1014FE0011810E94310216C085832CED35E00D91CD
:10150E001C9111970E94310202E0FD010AC00F7773
:10151E000583006404C0023029F405810068058348
:10152E0000E002838991A991B9910895F80125816E
:10153E003481321711F400E008952483022F0895A8
:10154E00BA93AA93D801D39AD49AD59AD69AD79AFF
:10155E0000916400046000936400A79A00E017965F
:10156E000C9312960C930E9316960C931E9734E0D2
:10157E002FEF0A2F3DD08D01A991B9910895F80151
:10158E0022851385112331F40485002319F4058572
:10159E00002311F10781053608F4212B03950783EB
:1015AE00083C11F400E007830185033310F4048531
:1015BE00202B018503950187043611F400E0018785
:1015CE000085093010F40585202B008503950087D2
:1015DE00003131F400E003C000E00783018700878B
:1015EE000685021721F026878F010E942E0B089583
:1015FE00F801022F00953323128571F4122B1287F6
:10160E00138510231387323071F41485122B14872F
:10161E00158510231587089510231287313081F711
:10162E001385122B1387148510231487333081F7FB
:10163E000585022B05870895F8014285538564853B
:10164E007585F9014083518362837383089522FB6C
:10165E0016F4DD9A01C0DD9825FB0091650016F4A5
:10166E00046001C00B7F0093650026FB16F4AF9A51
:10167E0001C0AF9820FB16F4DB9A01C0DB9823FB68
:10168E0016F4DE9A01C0DE9824FB16F4DF9A01C030
:10169E00DF9821FB16F4DC9A0895DC980895BA932E
:1016AE00AA93D8010E94240A0CE810E016960D9316
:1016BE001C931797A99AA198AA9AA298AE9AA6983F
:1016CE00AD9AA598AC9AA498AB9AA3980091650090
:1016DE00026000936500009164000D7F009364002A
:1016EE00A89AA0988D01A991B991089500E0999BAF
:1016FE0001E09A9B02609E9B04609D9B08609C9BF0
:10170E0000619B9B00621091630011FF0064989B27
:10171E000068002309F10058E9F0025879F00250F0
:10172E0079F00A9549F0035069F0085069F00051BC
:10173E0069F0005269F010C001E0089502E00895CA
:10174E0003E0089504E0089505E0089506E0089585
:10175E0007E0089508E0089500E00895BA93AA936B
:10176E000E94731705E210E00E945822A4E8BAE026
:10177E00202F212B29F00E9467020D931C9303C08A
:10178E0000E00D930C93119702E010E00E94582296
:10179E00202F212B31F00E94F80B12960D931C93E3
:1017AE0004C000E012960D930C9313970E94A2179B
:1017BE000D911D910E9414030D911C9113970E947F
:1017CE00070CF4CF1D9A1598C39ABB9A089522233D
:1017DE0011F0C39A0895C398089500E00D9901E0A1
:1017EE000895BA93AA93D80128E104E310E00E9469
:1017FE00CE200D931C9311978D01A991B991089547
:10180E00DA92CA929A928A927A926A925A924A92EA
:10181E00BA93AA939A938A932497D8010D911C9107
:10182E0011970E94D91F902F002309F4BDC30A956A
:10183E00033108F0AEC3F2E00F9FF001E252FE4F0B
:10184E0005901490F001099421E0A4C30D911C9110
:10185E0011970E942420002309F4A1C3802F0D911B
:10186E001C9111970E942720202F0D911C911197EA
:10187E000E9440208A9509F492C3F1CF0EE8402EC3
:10188E0000E0502EF2010491002309F488C3259143
:10189E002F010D911C9111970E944020F3CF0D91B5
:1018AE001C9111970E942720202F0091840A1091DD
:1018BE00850A0E946E036BC30D911C9111970E94B5
:1018CE002720202FE091840AF091850A0085F1856A
:1018DE00E02F008111810E94DC1359C30D911C91E0
:1018EE0011970E94272001FB20E020F9E091840A45
:1018FE00F091850A0085F185E02F00A511A50E94C3
:10190E00BA0145C30D911C9111970E942720002307
:10191E0011F021E001C020E0E091840AF091850AE7
:10192E000085F185E02F028113810E94EE0B2FC3FB
:10193E000D911C9111970E942720802FE091840A0F
:10194E00F091850A0085F185E02F0681178180FBD5
:10195E001EF40E94E90F02C00E940210E091840A58
:10196E00F091850A0085F185E02F0085118581FBB8
:10197E001EF40E94F40F02C00E941210E091840A1D
:10198E00F091850A0085F185E02F0285138582FB93
:10199E001EF40E94FB0FFBC20E941E10F8C20D9196
:1019AE001C9111970E942720802F0D911C91119749
:1019BE000E94302068010D911C9111970E943020D9
:1019CE00A601B801282FE091840AF091850A0085BE
:1019DE00F185E02F008111810E940D15D8C20D9165
:1019EE001C9111970E942720202FE091840AF091DC
:1019FE00850A0085F185E02F008111810E942A154C
:101A0E002801390120E00D911C9111970E94402070
:101A1E0092013AC10D911C9111970E9430209801AC
:101A2E00E091840AF091850A0085F185E02F00810E
:101A3E0011810E94DB140D911C9111970E94302090
:101A4E009801E091840AF091850A0085F185E02FD6
:101A5E00008111810E94F1149AC20D911C9111976F
:101A6E000E942720802F202F2170E091840AF09170
:101A7E00850A0085F185E02F06A117A10E94440179
:101A8E0081FB20E020F9E091840AF091850A00851F
:101A9E00F185E02F06A117A10E94470182FB20E0ED
:101AAE0020F9E091840AF091850A0085F185E02FF6
:101ABE0006A117A10E94550120E0E091840AF09141
:101ACE00850A0085F185E02F06A117A10E942E013F
:101ADE005EC220E00D911C9111970E9440209E0144
:101AEE00E091840AF091850A068117810E94230BEA
:101AFE0028810D911C9111970E94402029810D91F2
:101B0E001C9111970E9440202A810D911C911197D2
:101B1E000E9440202B810D911C9111970E94402014
:101B2E0080E00091650003FD81E0C4998260949984
:101B3E008460E091840AF091850A0085F185E02F9A
:101B4E00028113810E94F40B002309F08860E0915A
:101B5E00840AF091850A0085F185E02F04811581B4
:101B6E000E94E609002309F08061E091840AF09159
:101B7E00850A0085F185E02F00A511A50E94D401EC
:101B8E00002309F08062E091840AF091850A0085B5
:101B9E00F185E02F00A511A50E94D701002309F0C1
:101BAE008064E091840AF091850A0085F185E02F2A
:101BBE0000A511A50E94DA01002309F08068282FE4
:101BCE000D911C9111970E944020E091840AF09192
:101BDE00850A0085F185E02F06A117A10E945B0101
:101BEE00202F0D911C9111970E944020E091840AA4
:101BFE00F091850A0085F185E02F008111810E9408
:101C0E00B714202F0D911C9111970E944020E09146
:101C1E00840AF091850A0085F185E02F00811181FB
:101C2E000E944515390198010D911C9111970E9442
:101C3E00572093010D911C9111970E945720E0910E
:101C4E00840AF091850A0085F185E02F00811181CB
:101C5E000E940715390198010D911C9111970E9450
:101C6E00572093010D911C9111970E945720E091DE
:101C7E00840AF091850A0085F185E02F008111819B
:101C8E000E943415390198010D911C9111970E94F3
:101C9E005720930163C10D911C9111970E9427202B
:101CAE00802E0D911C9111970E942720902E0D9140
:101CBE001C9111970E942720A401602FE091840AA5
:101CCE00F091850A0085F185E02F008111810E9437
:101CDE00BA140D911C9111970E942720802E0D9100
:101CEE001C9111970E942720902E0D911C911197F7
:101CFE000E942720A401602FE091840AF091850AAA
:101D0E000085F185E02F008111810E94C4140D9190
:101D1E001C9111970E9430209801E091840AF09155
:101D2E00850A0085F185E02F00A511A50E94DD0131
:101D3E000D911C9111970E9430209801E091840A18
:101D4E00F091850A0085F185E02F048115810E94AE
:101D5E00E9090D911C9111970E9430209801E09194
:101D6E00840AF091850A008511850E94871E0D91C7
:101D7E001C9111970E943020E091840AF091850AFF
:101D8E002085F185E22F038B148B0D911C911197F9
:101D9E000E943020E091840AF091850A2085F18519
:101DAE00E22F058B168B0D911C9111970E943020FE
:101DBE00E091840AF091850A2085F185E22F078B48
:101DCE00108F0D911C9111970E942720202FE091CA
:101DDE00840AF091850A0085F185E02F258F0D91FB
:101DEE001C9111970E94302098010091840A109145
:101DFE00850A0E941705CBC020E00D911C9111970A
:101E0E000E944020E091840AF091850A0085F185B8
:101E1E00E02F008111810E94C914512E622E202FB5
:101E2E000D911C9111970E944020252D0D911C9112
:101E3E0011970E944020262D0D911C9111970E9402
:101E4E004020E091840AF091850A0085F185E02F0B
:101E5E00008111810E94D514512E622E202F0D91DA
:101E6E001C9111970E944020252D0D911C911197C8
:101E7E000E944020262D0D911C9111970E9440200A
:101E8E00E091840AF091850A0085F185E02F00A586
:101E9E0011A50E94E90198010D911C9111970E94C4
:101EAE005720E091840AF091850A0085F185E02F94
:101EBE00048115810E94F50998010D911C911197CD
:101ECE000E945720E091840AF091850A00851185C1
:101EDE000E94A61E98010D911C9111970E945720E9
:101EEE00E091840AF091850A0085F185E02F23891F
:101EFE0034890D911C9111970E945720E091840A0C
:101F0E00F091850A0085F185E02F258936890D919E
:101F1E001C9111970E945720E091840AF091850A36
:101F2E000085F185E02F2789308D0D911C91119739
:101F3E000E945720E091840AF091850A0085F18570
:101F4E00E02F258D0D911C9111970E94402000913C
:101F5E00840A1091850A0E942D0598010D911C91FD
:101F6E0011970E9457201BC00091840A1091850A78
:101F7E000E9453050CC00091820A1091830A0E94A0
:101F8E009D090091840A1091850A0E94310520E076
:101F9E0001C024E00D911C9111970E944020292F21
:101FAE000D911C910E94B721249689919991A99126
:101FBE00B991499059906990799089909990C9906A
:101FCE00D990089520916500286020936500969A17
:101FDE00F801008111810C944D02C49A979AF80170
:101FEE00008111810C944D02949A959AF80100810A
:101FFE0011810C944D023B2F4A2F20916500277FB3
:10200E0020936500969820E0D801ED91FC912383F2
:10201E00A42FB32F08953B2F4A2FC498979820E0F2
:10202E00D801ED91FC912383A42FB32F08953B2F5C
:10203E004A2F9498959820E0D801ED91FC91238336
:10204E00A42FB32F0895BA93AA93D8010E94240AFD
:10205E000AE910E016960D931C9312961C9A14988A
:10206E0008E710E00E9465010D931C9312970FEF85
:10207E0000938C0A0C93189704E003BF01E00ABF8B
:10208E0003E000938A0A02E202BF01E006BF07B72F
:10209E00016007BF8D01A991B99108951A930A9312
:1020AE001FB709B70F7E09BF01E902BF01E006BFE6
:1020BE0007B7016007BF01E000938A0A1FBF0991AD
:1020CE0019911895FA93EA934A933A932A931A938D
:1020DE000A933FB70C9B02C021E001C020E0E8E864
:1020EE00FAE00281023011F403E002830281002340
:1020FE0029F5268300E108BF09B7006109BF02E296
:10210E0002BF01E006BF07B7016007BF02E002830E
:10211E0005810A95058391F446E0008111810E94A4
:10212E00F3210F71038300810F730483018103FF79
:10213E0003C004810068048303E00283028101303E
:10214E00C1F40681201799F000811181000F111F33
:10215E0000831183222311F40160008302E202BF87
:10216E0001E006BF07B7016007BF00E001C003E052
:10217E0002830281033061F40EE0058301E00683E1
:10218E0007B70E7F07BF00E108BF09B7006109BF9F
:10219E003FBF09911991299139914991E991F9918D
:1021AE001895BA93AA939A938A93D8018FEFE8E879
:1021BE00FAE0948103819F3FA9F00B3199F4848357
:1021CE00EA2FF12F018512850E944D02FD01008537
:1021DE00901709F4892FFD0190878F77803468F06E
:1021EE0080E010C0EA2FF12F9085018512850E94A4
:1021FE00E717002379F39FEFEECFF0E0E82FE356D9
:10220E00FF4F8491082F89919991A991B9910895C1
:10221E00BA93AA93D80106E010E00E945822202F0C
:10222E00212B29F020E030E00E94170202C000E0CE
:10223E0010E011960D931D930CE205BDBF9A01E0BF
:10224E000C9313978D01A991B9910895F80101810D
:10225E0012810E94E717002311F00CE205BD0895CC
:10226E00F8013381332341F023BD9A01018112819C
:10227E000E9431020CE101C00CE205BD0895F80187
:10228E0023830381002311F40CE205BD089544E677
:10229E0050E02FE1E5CF48E250E02FE1E1CF4CE2F4
:1022AE0051E026E5DDCF40E0F801448345834683C7
:1022BE00478340834183428343830895FA92EA928F
:1022CE00DA92CA92BA92AA929A928A927A926A9260
:1022DE005A924A92BA93AA939A938A93202E79018C
:1022EE00F801C080D180A60160E070E0890120E095
:1022FE0084809580A680B7804084C801A0E0B0E0BD
:10230E008C199D09A040B040B49DB02DA49DA02D68
:10231E00B10D949D902DA10DB71F849D910DA71FFA
:10232E00B71F402C83E38B9FB02D8A9FA02DB10D3C
:10233E00899F902DA10DB71F849D910DA71FB71FCB
:10234E008018990AAA0ABB0A418483859485A0E065
:10235E00B0E0801B930BA040B040B49DB02DA49D67
:10236E00A02DB10D949D902DA10DB71F849D802D94
:10237E00910DA71FB71F880F991FAA1FBB1F880D8E
:10238E00991DAA1DBB1D2C013D01EFEF4E0E5E1EC9
:10239E006E1E7E1E4E16EDEF5E06EFEF6E06E1E050
:1023AE007E0620F5E22D4284440F551F661F041B46
:1023BE00150B260B42815381040F151F271F249DD9
:1023CE00202D149D102D210D049D110D271F402D24
:1023DE00512F15E0129F302D159F202D310D149F7A
:1023EE00210D371F80509009A20BB30BBB232AF48B
:1023FE0080E090E0A0E0B0E00CC081300EEF9007DE
:10240E000FEFA00701E0B00724F080E09EEFAFEFE2
:10241E00B1E0E22D84839583A683B783C282D382F3
:10242E00E082F18240E052E060E08C019D010E946A
:10243E00242289919991A991B991499059906990C5
:10244E00799089909990A990B990C990D990E99076
:10245E00F9900895BA93AA93D801009161000D7F67
:10246E0000936100009161000E7F00936100BE9A9F
:10247E00BD9AB89A179A0DE010E00E945822202FAC
:10248E00212B11F010DF02C000E010E0FD01048BE3
:10249E00158B0DE010E00E945822202F212B11F0F9
:1024AE0002DF02C000E010E0FD01068B178BEFE8A3
:1024BE00FAE000E004830083018302830383FD01BD
:1024CE0006830783008701870D930C931197028370
:1024DE00038301EC07B90FED06B90FEF1FE317BD2C
:1024EE0006BD00E0028703870FEF19BD08BD00E0AF
:1024FE00048705870FEF1BBD0ABD02EF0FBD09E173
:10250E000EBD20E08D0151D18D01A991B991089593
:10251E00FA93EA934A933A932A931A930A934FB7EC
:10252E000091930A0632E0F407B1013C04B115B1F3
:10253E00EFE8FAE041F420813181200F311F208332
:10254E00318300EC07C022813381200F311F22839B
:10255E00338301EC07B90481039504830FED06B9AB
:10256E004FBF09911991299139914991E991F991A9
:10257E0018955A924A92BA93AA939A938A93D8012B
:10258E00EFE8FAE00481063209F0C1C00081118142
:10259E004280538030E030833183328333833483FF
:1025AE0021EC27B92FED26B98FEF9FEF20E046E003
:1025BE000E94F92143E150E060E070E00E940122A8
:1025CE00801B910BFD0186839783820120E030E012
:1025DE0046E00E94F92143E150E060E070E00E9485
:1025EE0001222FEF3FEF201B310BEA2F208731877F
:1025FE0005810A9551F00A9561F00A9511F10A9537
:10260E0009F442C00A95F9F078C09C010489158935
:10261E0020C00489158952DEA801FD0102871387A7
:10262E000FEF1FEF20E030E060E070E0041B150BB1
:10263E002040304044E050E00E94242219BD08BDE5
:10264E0066C09C011EC0048915892817390708F435
:10265E009C0134DEA801FD01028713870FEF1FEFE7
:10266E0020E030E060E070E0041B150B20403040AD
:10267E0044E050E00E94242219BD08BDFD012085D2
:10268E0031850689178923C09C010489158916DEB8
:10269E00A801FD01028713870FEF1FEF20E030E046
:1026AE0060E070E0041B150B2040304044E050E029
:1026BE000E94242219BD08BDFD01068917892085B7
:1026CE003185468157814217530708F09A01F6DD8E
:1026DE00A801FD01048715870FEF1FEF20E030E002
:1026EE0060E070E0041B150B2040304044E050E0E9
:1026FE000E9424221BBD0ABD0AC09C0104891589B3
:10270E00DDDDFD012085318506891789D7DD8991AB
:10271E009991A991B991499059900895BD01F801E7
:10272E0004891589293069F420A131A12C5C3C4023
:10273E00D8011B962D933C9302A113A10453134F62
:10274E002DC02A3069F424A135A12453334FD8016A
:10275E001B962D933C9306A117A10C5C1C401EC02A
:10276E00222359F420E0D8011B962D932C93A68991
:10277E00B7891B962D932C9316C034E0239F9F018F
:10278E00200D311DD90158964D915C91D8011B96A3
:10279E004D935C93D9015A960D911C91A689B789D8
:1027AE001B960D931C93DB010895BA93AA938A93FB
:1027BE00D801822FC0981F98B1DF082F8823C9F047
:1027CE000A9509F461C00A9599F10A9509F445C074
:1027DE000A9509F46CC00A9509F47CC00A9509F4AF
:1027EE008CC00A9509F49FC0025011F10A95A9F107
:1027FE00B1C000E0FD01028703870FEF1FE319BD93
:10280E0008BD00E0048705870FEF1BBD0ABD00E081
:10281E004489F589E42F0483058306830783FD012C
:10282E004689F789E42F048305830683078390C0C6
:10283E0000E0FD014489F589E42F048305830683B6
:10284E0007831EEF2FEF31E0FD014689F789E42F54
:10285E00048315832683378314C000E01EEF2FEF09
:10286E0031E0FD014489F589E42F04831583268325
:10287E003783FD014689F789E42F04830583068398
:10288E000783FD01358366C000E0FD014489F589AB
:10289E00E42F0483058306830783FD014689F789A8
:1028AE00E42F048305830683078301E051C000E013
:1028BE00FD01048705870FEF1FE31BBD0ABD00E076
:1028CE004489F589E42F0483058306830783C09A20
:1028DE0002E03EC000E0FD01028703870FEF1FE319
:1028EE0019BD08BD00E04689F789E42F04830583EE
:1028FE00068307831F9A03E02BC000E0FD01448985
:10290E00F589E42F04830583068307831EEF2FEFDB
:10291E0031E0FD014689F789E42F04831583268370
:10292E00378305E015C000E01EEF2FEF31E0FD010B
:10293E004489F589E42F0483158326833783FD01AB
:10294E004689F789E42F048305830683078304E011
:10295E00FD010583FD0184838991A991B9910895A3
:10296E00F801048108959D01F801A489B58918968E
:10297E004D935D936C93D90108959D01F801A6893D
:10298E00B789F5CF3B2F4A2FF801A489B589189640
:10299E000D911D912C91A42FB32F08953B2F4A2FEB
:1029AE00F801A689B789F3CFF801228733874FEF55
:1029BE005FEF60E070E0421B530B604070408A0195
:1029CE009B0144E050E060E070E00E94242219BDBB
:1029DE0008BD0895F801248735874FEF5FEF60E05B
:1029EE0070E0421B530B604070408A019B0144E033
:1029FE0050E060E070E00E9424221BBD0ABD0895E5
:102A0E00F801028513852485358508951D0128302A
:102A1E00C0F434E0239FF801E00DF11D408F518F7B
:102A2E00628F738FF8013481231759F42489F58945
:102A3E00E22F43875487F801A689B7891B966D93B9
:102A4E007C93D101089534E0239F000D111DF801F0
:102A5E00008D118D228D338D08955B2F6A2FF80115
:102A6E00A489B5891B964D911C91042F4689F7892F
:102A7E00E42F23853485A62FB52F0895F8010681FE
:102A8E001781208531850895F801208D318D0681BD
:102A9E0017812017310710F001E0089500E0089526
:102AAE00F801228D338D008511852017310710F026
:102ABE0001E0089500E00895F801208D318D4681E2
:102ACE0057812417350738F4228D338D00851185F3
:102ADE002017310710F001E0089500E00895BA9331
:102AEE00AA939A938A93D80134E626E00091820A3B
:102AFE001091830A0E942F09902F38E227E000914F
:102B0E00820A1091830A0E942F09802F3DE228E04D
:102B1E000091820A1091830A0E942F09FD012489D7
:102B2E00F589E22F9087FD012489F589E22F8187AF
:102B3E005496ED91FC915597028734E629E0009169
:102B4E00820A1091830A0E942F09902F38E22AE000
:102B5E000091820A1091830A0E942F09802F3DE274
:102B6E002BE00091820A1091830A0E942F09202FD8
:102B7E00FD010689F789E02F9087FD010689F78907
:102B8E00E02F8187FD010689F789E02F22874AE72A
:102B9E0054E12CE00091820A1091830A0E944A09A6
:102BAE00FD01008F118F4AE754E12EE00091820A59
:102BBE001091830A0E944A09FD01028F138F4FEF75
:102BCE005FE320E10091820A1091830A0E944A0974
:102BDE00FD01048F158F4FEF5FE322E10091820A12
:102BEE001091830A0E944A09FD01068F178F4FEF3D
:102BFE005FE324E10091820A1091830A0E944A0940
:102C0E00FD0100A311A34FEF5FE326E10091820ABD
:102C1E001091830A0E944A09FD0102A313A34FEFEC
:102C2E005FE328E10091820A1091830A0E944A090B
:102C3E00FD0104A315A34FEF5FE32AE10091820A81
:102C4E001091830A0E944A09FD0106A317A34FEFB4
:102C5E005FE32CE10091820A1091830A0E944A09D7
:102C6E00FD0100A711A74FEF5FEF2EE10091820A41
:102C7E001091830A0E944A09FD0102A713A74FEF84
:102C8E005FEF20E20091820A1091830A0E944A09A6
:102C9E00FD0104A715A74FEF5FE322E20091820A20
:102CAE001091830A0E944A09FD0106A717A746E65E
:102CBE0056E224E20091820A1091830A0E944A0988
:102CCE00FD0100AB11AB4CEC5CE426E20091820AF4
:102CDE001091830A0E944A09FD0102AB13AB4CEC22
:102CEE005CE428E20091820A1091830A0E944A094C
:102CFE00FD0104AB15AB46E656E22AE20091820ACC
:102D0E001091830A0E944A09FD0106AB17AB899107
:102D1E009991A991B9910895BA93AA939A938A9386
:102D2E00D8015496ED91FD9181859285308526E0EE
:102D3E000091820A1091830A0E943C09382F27E0E5
:102D4E000091820A1091830A0E943C09392F28E0D3
:102D5E000091820A1091830A0E943C09ED91FC9128
:102D6E00579781859285308529E00091820A1091CE
:102D7E00830A0E943C09382F2AE00091820A1091A2
:102D8E00830A0E943C09392F2BE00091820A109190
:102D9E00830A0E943C09FD01408D518D2CE000916B
:102DAE00820A1091830A0E946609FD01428D538D9D
:102DBE002EE00091820A1091830A0E946609FD019D
:102DCE00448D558D20E10091820A1091830A0E9454
:102DDE006609FD01468D578D22E10091820A109100
:102DEE00830A0E946609FD0140A151A124E10091D0
:102DFE00820A1091830A0E946609FD0142A153A125
:102E0E0026E10091820A1091830A0E946609FD0153
:102E1E0044A155A128E10091820A1091830A0E94D3
:102E2E006609FD0146A157A12AE10091820A10917F
:102E3E00830A0E946609FD0140A551A52CE100916F
:102E4E00820A1091830A0E946609FD0142A553A5CC
:102E5E002EE10091820A1091830A0E946609FD01FB
:102E6E0044A555A520E20091820A1091830A0E9482
:102E7E006609FD0146A557A522E20091820A10912E
:102E8E00830A0E946609FD0140A951A924E200911E
:102E9E00820A1091830A0E946609FD0142A953A974
:102EAE0026E20091820A1091830A0E946609FD01B2
:102EBE0044A955A928E20091820A1091830A0E9422
:102ECE006609FD0146A957A92AE20091820A1091CE
:102EDE00830A0E9466091BCF09E000938A000FE760
:102EEE001EE3109387000093860000E100937C00A0
:102EFE0000937D00E4E9FAE000E0008301830283A1
:102F0E000383789408957894FA93EA932A931A9304
:102F1E000A932FB7E4E9FAE0008111810F5F1F4F8A
:102F2E000083118301E004832FBF09911991299128
:102F3E00E991F99118952FB7F894E4E9FAE0008138
:102F4E001181028313830481058300E004832FBF64
:102F5E0008952FB7F8940091940A1091950A2FBFF7
:102F6E000895BA93AA939A938A93D801F2DFC8016F
:102F7E00E2DFA8950091960A1091970A081B190B8B
:102F8E000A171B07A8F389919991A991B9910895F0
:102F9E002091960A3091970AF80140815181241BA5
:102FAE00350B448155812417350718F021E0228313
:102FBE0003C02281222311F00381089500E00895B9
:102FCE002091960A3091970AF80140815181241B75
:102FDE00350B448155812417350738F02281222381
:102FEE0021F421E022830381089500E00895BA932D
:102FFE00AA93D8018D9A8C9A8E9A009164000860DB
:10300E00009364008F9ABC9A02E010E00E9458224E
:10301E00202F212B19F00E943F1F02C000E010E06C
:10302E0016960D931D9302E010E00E945822202F59
:10303E00212B19F00E94551F02C000E010E00D93E5
:10304E001D9302E010E00E945822202F212B19F030
:10305E000E94671F02C000E010E00D931C935D9666
:10306E000AE010E00E945822202F212B19F00E9416
:10307E00780102C000E010E00D931C93979702E0D8
:10308E0010E00E945822202F212B19F00E94E90BEC
:10309E0002C000E010E00D931D9308E010E00E94C6
:1030AE005822202F212B19F00E94A10902C000E006
:1030BE0010E00D931C93919608E010E00E945822A8
:1030CE00202F212B19F00E94100102C000E010E009
:1030DE000D931C93979708E310E00E945822202F1F
:1030EE00212B19F00E94311202C000E010E00D9366
:1030FE001C93509604E010E00E945822202F212BA2
:10310E0019F00E949A1F02C000E010E00D931C936C
:10311E001C9606E010E00E945822202F212B29F049
:10312E0020E030E00E94240202C000E010E00D9387
:10313E001C93129606E010E00E945822202F212B9D
:10314E0029F020E030E00E94240202C000E010E0EE
:10315E000D931C93569700E00D930D930C9355967B
:10316E000C9353970C9355960C9395978D01A991AB
:10317E00B9910895BA93AA93D801F80102851385DF
:10318E000E948F1FFD01068117810E94791FFD018C
:10319E00008511850E94841FFD0100A511A50E94C6
:1031AE00A401FD01048115810E94B8090D911C91A5
:1031BE0011970E94C012FD0105851485101709F4A0
:1031CE0005C226852017D9F0173021F4053049F4B1
:1031DE001AE005C0183029F4063019F41BE01787E1
:1031EE0001C0078706870EE004875196ED91FC918A
:1031FE00529701E00183028113810E945902519678
:10320E00ED91FC91529700E00083028113810E94A0
:10321E00CF17002309F4DAC1FD0107850E3008F03F
:10322E00D5C1F2E00F9FF001EC5FFD4F05901490B9
:10323E00F00109944AE050E021E08D0180D344E68C
:10324E0050E020E08D0123D240E050E021E08D01DE
:10325E00C0D240E050E025E08D0121D38D01FBD29C
:10326E0040E050E020E08D011AD340E951E020E02B
:10327E008D0174D244E650E020E08D013BD244E64D
:10328E0050E020E08D01A5D26FC14AE050E021E070
:10329E008D0155D340E050E020E08D019AD144E6F7
:1032AE0050E020E08D01F3D140E050E021E08D01AF
:1032BE0090D240E050E025E08D01F1D28D01CBD2CD
:1032CE0040E050E020E08D01EAD240E951E020E0FC
:1032DE008D0144D242E350E021E08D010BD240E05B
:1032EE0050E021E08D01DBD28D01FED28D01AFD1F8
:1032FE0040E050E022E08D01D2D240E050E022E0EA
:10330E003BC04AE050E021E08D0119D340E050E08F
:10331E0021E08D015ED144E650E020E08D01B7D171
:10332E0040E050E021E08D0154D240E050E025E035
:10333E008D01B5D28D018FD240E050E020E08D019D
:10334E00AED240E951E020E08D0108D242E350E0D8
:10335E0021E08D01CFD140E050E021E08D019FD2E0
:10336E008D01C2D28D0173D140E050E022E08D017B
:10337E0096D240E050E023E08D012BD248EC50E095
:10338E0021E08D0184D140E050E020E0F3C044E123
:10339E0050E021E08D01D3D244E650E020E08D01D3
:1033AE0076D140E050E021E08D0113D240E050E0B4
:1033BE0025E08D0174D28D014ED240E050E020E028
:1033CE008D016DD244E650E021E08D0193D140E0B5
:1033DE0050E021E08D0163D28D0186D244E650E0AB
:1033EE0021E08D01BBD140E050E024E08D01F1D110
:1033FE0040E050E023E034C044E150E021E08D0194
:10340E009ED244E650E020E08D0141D140E050E0F4
:10341E0021E08D01DED140E050E025E08D013FD26C
:10342E008D0119D240E050E020E08D0138D244E603
:10343E0050E021E08D015ED140E050E021E08D01B1
:10344E002ED28D0151D244E650E021E08D0186D17D
:10345E0040E050E025E08D01BCD140E050E024E09A
:10346E008D011DD289C044E150E021E08D0167D26B
:10347E0044E650E020E08D010AD140E050E021E02A
:10348E008D01A7D140E050E025E08D0108D28D01DD
:10349E00E2D140E050E020E08D0101D244E650E060
:1034AE0021E08D0127D140E050E021E08D01F7D1E0
:1034BE008D011AD244E650E021E08D014FD144E651
:1034CE0050E026E08D0185D140E050E023E034C08D
:1034DE0044E150E021E08D0132D244E650E020E09C
:1034EE008D01D5D040E050E021E08D0172D140E059
:1034FE0050E025E08D01D3D18D01ADD140E050E0FB
:10350E0020E08D01CCD144E650E021E08D01F2D0D7
:10351E0040E050E021E08D01C2D18D01E5D144E6BD
:10352E0050E021E08D011AD144E650E027E08D01F4
:10353E0050D140E050E024E08D01B1D115C04AE0F9
:10354E0050E021E08D01FBD14AE050E020E008C0C0
:10355E004AE050E021E08D01F2D140E050E021E060
:10356E008D0137D08D0173D040E050E0FD012089F0
:10357E0001E020278D01E3D12EE026C04AE050E085
:10358E0021E08D01DCD140E050E020E08D017FD0C4
:10359E0040E050E021E08D011CD140E050E020E001
:1035AE008D01A8D08D0157D140E050E020E08D0173
:1035BE0076D142E350E020E08D01D0D040E050E0E3
:1035CE0020E08D0106D120E08D01EED1A991B991B7
:1035DE0008955A924A92BA93AA938A93D801822F47
:1035EE002A01F8010189F289E02F20812395208399
:1035FE000181201731F5EA2FF12F00A511A50E94A8
:10360E00D7010817A9F0282FFD0100A511A50E94CA
:10361E00BA01282FFD0106A117A10E9447019201B0
:10362E005196ED91FC915297028113810E943F02B7
:10363E00FD01A189B28911960C9103950C930FE7A8
:10364E000E938991A991B991499059900895BA9381
:10365E00AA93D8015196ED91FC9152970081039552
:10366E0000831181011781F4FD0100A511A50E94AF
:10367E00DA01002349F0FD01A189B28911960C915E
:10368E0003950C930FE70E93A991B9910895BA93F0
:10369E00AA939A938A93D801CA01F8010189F289F3
:1036AE00E02F3081339530830181301711F500E022
:1036BE00C49901E00217A1F0EA2FF12F00851185C0
:1036CE00222319F00E94F40F02C00E9412109C01D6
:1036DE005196ED91FC915297028113810E943F0207
:1036EE00FD01A189B28911960C9103950C930FE7F8
:1036FE000E936AC0BA93AA939A938A93D801CA0179
:10370E00F8010189F289E02F3081339530830181F0
:10371E00301719F50091650003FB10E010F9121730
:10372E0099F0FD0106811781222319F00E94E90FFD
:10373E0002C00E9402109C015196ED91FC9152978D
:10374E00028113810E943F02FD01A189B289119667
:10375E000C9103950C930FE70E9336C0BA93AA9370
:10376E009A938A93D801CA01F8010189F289E02F50
:10377E003081339530830181301731F5EA2FF12FE7
:10378E000089002309F020E000E0949901E002177F
:10379E0091F002851385222319F00E94FB0F02C0BF
:1037AE000E941E109C015196ED91FC915297028140
:1037BE0013810E943F02FD01A189B28911960C91DD
:1037CE0003950C930FE70E9389919991A991B99155
:1037DE0008954A92BA93AA939A938A93D801422E45
:1037EE00CA01F8010189F289E02F208123952083F7
:1037FE000181201751F50D911C9111970E94B7145C
:10380E00041579F0242D0D911C9111970E94DC1353
:10381E009C01FD010189F289E02F028113810E9432
:10382E003F0201E0401641F4FD01058D04FD04C088
:10383E00068117810E940210FD01A189B28911969D
:10384E000C9103950C930FE70E9389919991A99181
:10385E00B99149900895BA93AA93D8015196ED91D2
:10386E00FC91529700810395008311810117A1F4F9
:10387E00FD01028113810E94F40B002321F0FD0152
:10388E0005A1002349F0FD01A189B28911960C9181
:10389E0003950C930FE70E93A991B9910895BA93DE
:1038AE00AA939A938A93D801CA01F8010189F289E1
:1038BE00E02F30813395308301813017A1F40A2F28
:1038CE0092D09C015196ED91FC91529702811381F9
:1038DE000E943F02FD01A189B28911960C910395B8
:1038EE000C930FE70E9370CFBA93AA93D80151960B
:1038FE00ED91FC9152970081039500831181011780
:10390E00D9F40D911C9111970E944B15002339F497
:10391E000D911C9111970E945715002321F0FD0166
:10392E00058D01FD09C0FD01A189B28911960C9189
:10393E0003950C930FE70E93A991B99108954A92AE
:10394E00BA93AA939A938A93D801422ECA01F80188
:10395E000189F289E02F2081239520830181201790
:10396E0011F5EA2FF12F06A117A10E945B01102F6E
:10397E001170141579F0242DFD0106A117A10E94D6
:10398E0044019C015196ED91FC9152970281138155
:10399E000E943F02FD01A189B28911960C910395F7
:1039AE000C930FE70E9351CF5B2F6A2FD8015196D0
:1039BE00ED91FC913081339530834181341781F440
:1039CE003EE0F80136872E3009F0258725852487BD
:1039DE00A189B28911960C9103950C930FE70E9362
:1039EE00A62FB52F0895BA93AA938A93D801822F42
:1039FE0000E0EA2FF12F00A3022F222359F00A959F
:103A0E0059F00A9589F00A9529F10A9519F10A9546
:103A1E00B1F145C000E01CC02589368901A112A173
:103A2E000E943F0201E013C02789308D01A112A12F
:103A3E000E943F02FD01048115810E94E609FD01ED
:103A4E0004A321E0028113810E94EE0B02E0FD012E
:103A5E0003A325C02789308D01A112A10E943F0228
:103A6E00FD01048115810E94E609FD0104A320E0F9
:103A7E00028113810E94EE0BFD0183A310C02389E6
:103A8E003489068D178D0E943F02FD012789308DE6
:103A9E0001A112A10E943F0201E0FD0100A3899144
:103AAE00A991B9910895F80125873585333029F408
:103ABE002485213071F423E006C0313031F42485A1
:103ACE00233039F421E0248704C02C3021F02D302E
:103ADE0011F020E009D00895F80104850895F80149
:103AEE00048115810C94F909BA93AA938A93D8018B
:103AFE00822FF801048515850117A1F4073011F006
:103B0E00083081F402851385222321F00E941E10B5
:103B1E0020E003C00E94FB0F21E0FD0106A117A1CA
:103B2E000E944401FD0123A18D015DDFFD01808B0B
:103B3E008991A991B9910895BA93AA938A93D801BC
:103B4E0080E0F80100A511A50E94D401002309F020
:103B5E0081E0FD0100A511A50E94D701002309F007
:103B6E008260FD0100A511A50E94DA01002309F073
:103B7E0084600D911C9111970E94B714013009F4C5
:103B8E008860FD01048115810E94E609002309F079
:103B9E008061FD01028113810E94F40B002309F064
:103BAE008062FD010089002309F0806405A10023D5
:103BBE0009F08068082F8991A991B9910895BA9357
:103BCE00AA93D80193960C9193970A9539F00A957A
:103BDE0089F10A95C9F10A95E9F155C00D911C912B
:103BEE0094960E9463150C939597002329F05D9689
:103BFE000C915D9701FD3CC090960C91909700231F
:103C0E0009F449C012960D911C9113970E94F40B62
:103C1E00002309F440C05E960D911C915F970E949F
:103C2E00CF170023C1F15D960C915D9700FF33C055
:103C3E0002E063C00D911C9194960E9463150C9343
:103C4E009597002381F4D8CF0D911C9194960E94E4
:103C5E005715F5CF0D911C9194960E944B150C9310
:103C6E009597002349F25D960C915D9702FFC4CFA4
:103C7E0091960D911C9192970E94CF17002309F4F3
:103C8E00BBCF01E03AC00D911C9194960E94631532
:103C9E000C939597B1CF93960C919397023060F158
:103CAE0014960D911C915F960E94E6093C91949793
:103CBE0021E0102F1227312311F003E01EC094963D
:103CCE000C9392970D911C9113970E94F40B002365
:103CDE0099F490960C919097002371F491960D9112
:103CEE001C9192970E94CF17002331F05D960C9194
:103CFE0003FF02C004E001C000E0A991B99108954C
:103D0E00AD01F801218F328F218DA681B781ED9102
:103D1E00FC9124833583F801218D328DA085B185E8
:103D2E00ED91FC9124833583F801218D328DA2858E
:103D3E00B385ED91FC9124833583DA010895F80162
:103D4E00018D128D0895BA93AA93D8013FE12CE20A
:103D5E000091820A1091830A0E942F095D960C939E
:103D6E001A9748E853E12DE20091820A1091830AD6
:103D7E000E944A090D931D9340E253E02FE20091F9
:103D8E00820A1091830A0E944A090D931D9348EEF0
:103D9E0053E021E30091820A1091830A0E944A099E
:103DAE000D931D934091800A5091810A23E3009157
:103DBE00820A1091830A0E944A090D931C935A9706
:103DCE0098018D019DDF98960D911C9199970E94F7
:103DDE00ED010D911C9113960E9476150D911C917B
:103DEE000E94040AA991B9910895BA93AA93D80191
:103DFE005D963C911A972CE20091820A1091830AEB
:103E0E000E943C094D915D912DE20091820A109124
:103E1E00830A0E9466094D915D912FE20091820AFC
:103E2E001091830A0E9466094D915D9121E30091E4
:103E3E00820A1091830A0E9466094D915C911E962A
:103E4E0023E30091820A1091830A0E9466090D9164
:103E5E001C9199970E940D020D911C9113960E9430
:103E6E0093160D911C910E941A0AA991B991089569
:103E7E00BA93AA93D8018E9A0091640008600093B9
:103E8E0064000091800A1091810A0E9465010D93D1
:103E9E001C9311978D01A991B9910895BA93AA9384
:103EAE00D8018F9ABC9A0091800A1091810A0E94C3
:103EBE0065010D931C9311978D01A991B9910895E8
:103ECE00BA93AA93D8018D9A8C9A0091800A109178
:103EDE00810A0E9465010D931C9311978D01A99182
:103EEE00B9910895969B08C0F801008111810E9436
:103EFE00E717002309F096980895979B08C0F801DC
:103F0E00008111810E94E717002309F09798089508
:103F1E00959B08C0F801008111810E94E7170023CC
:103F2E0009F095980895BA93AA93D80106E010E087
:103F3E000E945822202F212B29F020E030E00E94F1
:103F4E00240202C000E010E012960D931C9313970A
:103F5E008D01A991B9910895BA93AA939A938A93D0
:103F6E00D80153962C931B97822F90E004968C01C8
:103F7E000E9456220D931C9318968C010E94562275
:103F8E000D931C93529700E00C9306E01A960C9337
:103F9E00199700E00C9311978D0189919991A99130
:103FAE00B99108951D0140E0F8012181263009F0F4
:103FBE0041C025814085241B2350278342E820855C
:103FCE00318523833483F9015081552391F4F8010F
:103FDE006381732F6F5F7F4F638374830AC0D00139
:103FEE006D91A383B4834627E42FF0E0E352FF4F95
:103FFE004491F80165817681038014806015710506
:10400E0070F72F5F3F4F23833483442321F4A38122
:10401E00B32F4C9101C041E020E0208B20853185EB
:10402E002D5F3F4F23833483218932892D5F3F4F8C
:10403E0024873587042FD1010895F801078108954B
:10404E009D01F801A381B4810D91A383B483D9019D
:10405E0008953B2F4A2FF801A381B4812D91A3839C
:10406E00B483A3811D91A383B483022FA42FB32FF6
:10407E0008953B2F2A2EF801048415844189528914
:10408E00638970E0460F571F4D5F5F4F041615068C
:10409E0020F4D0012D93A487B587A22DB32F0895B8
:1040AE000D01F8016485758501891289438950E0F7
:1040BE00040F151F0E5F1F4F6017710748F4DB01C9
:1040CE002C9311968D010F5F1F4F048715873C931C
:1040DE00D0010895BA93AA93382E022EF8012485A2
:1040EE0035852687378721883289622D22192350FC
:1040FE00208B732F6F5F7F4F6487758780818068F9
:10410E00E22DF32F8083262FFB010082F8016089B8
:10411E00E22FF72F618362E8F80121893289248723
:10412E0035872081222381F424852F5F3F4F2487FA
:10413E0035870AC0D9012D91A487B5876227E62F4E
:10414E00F0E0E352FF4F6491F80124853585068433
:10415E0017842015310570F3F9016083F801218968
:10416E003289248735872081222329F424852F5FE5
:10417E003F4F2487358720E02387218324E0228741
:10418E0000ECFA010083832DA991B9910895AA93A9
:10419E009A938A93C801A22F06E110E00E9458223A
:1041AE00202F212B21F04A2F9C0107D002C000E0C6
:1041BE0010E089919991A9910895BA93AA939A932F
:1041CE008A93D801C901242F0E94B31FA0939A0A83
:1041DE00B0939B0A189A1098199A119A06E00093B8
:1041EE00950089B99093900008ED0AB98D018991D7
:1041FE009991A991B9910895BA93AA93FA93EA93D2
:10420E006A935A934A933A932A931A930A936FB7DF
:10421E000CB1E0919A0AF0919B0A1181163009F4C3
:10422E0054C0003C41F401E00183008511850383F5
:10423E00148300E003C00B3D19F401E0028345C076
:10424E002281222349F00D3D11F40BED03C00C3DEC
:10425E0061F500EC20E022831150F9F01A9571F10E
:10426E001A9559F01A9589F5238134814581568125
:10427E002417350729F516E022C014E0118313899F
:10428E00101708F4012F2085318510E0200F311F03
:10429E002D5F3F4F2583368313C012E0118307FB3A
:1042AE003EF40F771081011759F000E001830DC025
:1042BE0010E0A381B4811D93A383B48313E0118313
:1042CE00A381B4810D93A383B4836FBF0991199118
:1042DE0029913991499159916991E991F991A99150
:1042EE00B9911895BA93AA93FA93EA936A935A934B
:1042FE004A933A932A931A930A936FB7E0919A0AC4
:10430E00F0919B0A0285043041F5A485B5850D9187
:10431E00A487B587003C11F00B3DA1F41385112342
:10432E0051F40BED11E01387248535852150304073
:10433E002487358707C0003C11F40CED01C00DED4C
:10434E0010E0138726853785448555852417350754
:10435E0010F415E012870CB902C006E00287B5CF43
:10436E002197AE010E94712008810CB92196089503
:10437E000C94B12201E010E00C94B1220FE70DBFB6
:10438E000AE00EBFC0E0D4E00E945422002311F0D8
:10439E000E9484220E94B50B0E94F1210C94BF2131
:1043AE00E199FECF08954F5F5F4FFADF4EBB5FBBC3
:1043BE00E09A0895FADF0DB308954F5F5F4F4EBB3D
:1043CE005FBBF894E29AE19A0FBE08950FB6E8DF4C
:1043DE000DBBF5CF0C94BF214A951AF01695079593
:1043EE00FBCF08954A952AF0000F111F221F331F8D
:1043FE00F9CF0895002411241001E0E2EA9592F01D
:10440E00001F111F221F331F001C111C221C331CE6
:10441E00041615062606370688F3041A150A260A08
:10442E00370AECCF001F111F221F331FA001B1014D
:10443E0000951095209530950895FF27772312F457
:10444E00F16015D0332312F4F09509D00E940122A9
:10445E00F69508F404D0F69508F409C00895309541
:10446E002095109501951F4F2F4F3F4F0895709532
:10447E006095509541955F4F6F4F7F4F0895BA935A
:10448E00AA939A938A930895BB81AA819981888170
:10449E00F0E0EC0FFD1FEF01089501E008950C947C
:1044AE0058229A938A93C80102C00E9474228C01EA
:1044BE000E946A23202F212B69F4ECE9FAE0208177
:1044CE00318100E02030300781F3E0919C0AF32F18
:1044DE000995EDCF8991999108950C94C12120E011
:1044EE0006D0E9F70895259102D0E9F708952D93A6
:1044FE0001501040202F212B089584E897E4FC01F1
:10450E0005911491FC013296A591B491FC0134965B
:10451E0025913491422F432B19F0F901E4DF01C0AC
:10452E00DEDF069617E48039910748F30895EEE929
:10453E00FAE000811181012B19F000E010E00895DE
:10454E0000E014E00083118320E036E0F8012083C0
:10455E0031830895FFCF0D01D801012B09F452C00C
:10456E001297ED91FC911197349708F44BC000EA25
:10457E001AE0F80150D019F0A217B30728F4FD0184
:10458E0022833383F80123C0F90145D019F02A178D
:10459E003B07D0F3408151819F01240F351FA21795
:1045AE00B30780F12A173B0741F42D913C91420F3E
:1045BE00531F40835183DF010CC02DD021F024D036
:1045CE0026173707F8F012962D933C931397A28374
:1045DE00B383FD0120D0B1F017D06217730791F4A9
:1045EE0040E0F80140834183F901008111814D9132
:1045FE005C91400F511F5C934E9302811381FD011C
:10460E0002831383D00108954D915C911197BD01E2
:10461E00640F751F089522813381422F432B089515
:10462E000E944622C80104C00E5F1F4F0E94B22294
:10463E00E0EAFAE0A081B1810A2F0B2B59F4A2EA2D
:10464E00BAE02FD021F137D000F530D0FACF33D0E9
:10465E00E0F42CD026D0D9F7E0EAFAE00081F1811F
:10466E00E02F00811181A2EABAE001C01FD02D9186
:10467E003C9111972017310751F0ED91F32F1197BF
:10468E00208131812817390788F38D0107C00E94D8
:10469E009E22202F212B41F600E010E0E4E00C9446
:1046AE004B220D911C911197012B0895FD01A081B4
:1046BE00B18112960895ED91F12F1197008111811C
:1046CE000817190708950E944622C8010296081776
:1046DE00190758F4843000E0900710F484E090E05D
:1046EE008C019EDF202F212B19F400E010E03EC03C
:1046FE00F80120813181F901A081B1811497A817A9
:10470E00B90730F422813381D8012D933C9316C022
:10471E00280F391FD8012D933C934281538127D006
:10472E004D935C9340815181481B590BD8012D91BB
:10473E00BC91A22F4D935C9380839183D8012D91D0
:10474E003C91232B59F013D02D913C91232B31F01A
:10475E00D8010D911C910E5F1F4F02C000E010E0BA
:10476E00A0EABAE00D931C9332968F0197CFD80131
:10477E002D91D9019ECF2200820A00000200800AEC
:04478E009047E80365
:00000001FF
:00000001FF
