:100000000C946020189518951895189518951895C2
:10001000189518950C949A0F189518951895189589
:100020001895189518951895189518951895189568
:100030001895189518951895189518951895189558
:100040000C94AE0F189518950C949E1F1895189542
:100050000C941420189518951895189518951895BE
:1000600018951895189518950C944016189518958C
:100070001895189518951895189518951895189518
:10008000189518951895189518951895150B452DD0
:10009000303034001D101300000800000C000B006D
:1000A0000000000001000500000000000007000043
:1000B0000000000004020D0000000000000000002D
:1000C0000000000000000000000000000000000030
:1000D000000000000000005EBCE2613FDD83C29CC6
:1000E0007E20A3FD1F419DC3217FFCA2401E5F0116
:1000F000E3BD3E6082DC237D9FC1421CFEA0E1BFC8
:100100005D0380DE3C62BEE0025CDF81633D7C22F9
:10011000C09E1D43A1FF4618FAA427799BC584DA27
:100120003866E5BB5907DB856739BAE406581947D5
:10013000A5FB7826C49A653BD987045AB8E6A7F987
:100140001B45C6987A24F8A6441A99C7257B3A64B9
:1001500086D85B05E7B98CD2306EEDB3510F4E10E7
:10016000F2AC2F7193CD114FADF3702ECC92D38D95
:100170006F31B2EC0E50AFF1134DCE90722C6D3347
:10018000D18F0C52B0EE326C8ED0530DEFB1F0AE79
:100190004C1291CF2D73CA947628ABF517490856A7
:1001A000B4EA6937D58B5709EBB536688AD495CB55
:1001B0002977F4AA4816E9B7550B88D6346A2B7507
:1001C00097C94A14F6A8742AC896154BA9F7B6E839
:1001D0000A54D7896B35C50BC70BDF0B150F150FED
:1001E000F00BFD0B0F0C230C390C700C900CAB0CAE
:1001F000CE0C0A0DD40D670E000F070FD71702188B
:100200003E180218D7178418B918F01825197B1949
:10021000AB18E0185C196519169A209161002061ED
:100220002093610020916200286020936200209159
:100230006100286020936100209162002460209377
:1002400062002091610024602093610021E0F801A8
:10025000258320E024830895F801248325810481E7
:10026000202B0091620011F0046001C00B7F00930D
:1002700062000895F801348121E03227348305813A
:10028000032BEFCFF8012583EACF222300916200F0
:1002900039F4086000936200009162000F7E06C08E
:1002A000077F00936200009162000061009362008A
:1002B0000895222311F01E9A08951E98089500E0D3
:1002C0001091620012FD01E01091620014FD0260C5
:1002D0001E99046008959A938A93C80106E010E07D
:1002E0000E94F120202F212B21F09C010E94090265
:1002F00002C000E010E0899199910895BA93AA9301
:10030000D801BA9A01E015960D9300E00D930C9375
:10031000169700ED17E00E946B010D931C93129746
:100320000E943F028D01A991B9910895BA93AA93B1
:10033000D80117960C911797002359F411960D9137
:100340001C9112970E949D16002319F001E0179648
:100350000C93A991B9910895BA93AA938A93D8015D
:10036000822FF8010681021769F0222311F0C29A48
:1003700001C0C29800E00783018112810E943F0200
:10038000FD0186838991A991B9910895F8010581AC
:100390000895F80106810895F80107810895AD01D7
:1003A000F801238334832381A181B28114962D9394
:1003B0003C93DA010895F801038114810895BA93FA
:1003C000AA93D80140ED57E022E00091820A1091F3
:1003D000830A0E94F30813960D931C931397ED91D3
:1003E000FC9115962C91222329F498018F010E94EB
:1003F000230202C004831583A991B9910895F801DD
:100400004381548122E00091820A1091830A0C9466
:100410000F09F8012483358320E023832283209170
:10042000910A3091920A208331830895F801248340
:10043000358320E0238322832091910A3091920A10
:10044000208331830895F8012483358321E02383B9
:1004500020E022832091910A3091920A20833183F7
:100460000895F8012483358321E0238320E022834B
:100470002091910A3091920A20833183089521E0DE
:10048000F801238320E022832091910A3091920A7F
:1004900020833183089521E0F80123832091910A7C
:1004A0003091920A44815581241B350B208331837E
:1004B0000895BA93AA93D8010E94220501E010E0A2
:1004C0000E94F120202F212B39F00E94C3080093B5
:1004D000820A1093830A05C000E00093820A009309
:1004E000830A00E110E00E94F120202F212B19F057
:1004F0000E94E60A02C000E010E00D931D930BE09D
:1005000010E00E94F120202F212B19F00E946F0F84
:1005100002C000E010E00D931C931C9600E00C93C9
:100520001B9704E010E00E94F120202F212B19F0EE
:100530000E94541002C000E010E00D931C9313962B
:100540000AE210E00E94F120202F212B19F00E94D6
:10055000B41602C000E010E00D931C9313970FE057
:1005600010E00E94F120202F212B19F00E943F0A59
:1005700002C000E010E00D931C931E9608EB1BE0F8
:100580000E946B010D931C931E970D911C91189660
:100590000E94451C0C93179700E00C9319960C933E
:1005A00015960D930C9312970C931C970D930D9326
:1005B0000D930C93129601E00C9350978D0105D288
:1005C00030E02FEF16960D911C9111970E94930A1F
:1005D0000D911C9111970E945A0A08EE13E00E9497
:1005E0006E1634E02FEF0D911C9111970E94930A23
:1005F0000D911C9113970E945A0A0D911C91159709
:100600000E9493108D01A991B9910895BA93AA936C
:10061000D8010D911D910E94DB090D911D910E9441
:10062000DB090D911C9113960E9472100D911C9183
:1006300019970E9477170D911C911E960E94350AFA
:100640000C931F97002341F412960D911C911C9658
:100650000E94350A0C931F979D01215F3F4F8D012A
:100660000E9453051F962C911F97222311F08D0194
:1006700027D08D010E949306002349F08D010E942E
:10068000B2068D010E9429088D010E945B08A99184
:10069000B9910895253041F4F80107A103FF02C084
:1006A00007E0089505E00895263041F4F80107A118
:1006B00003FF02C008E0089506E00895022F0895A0
:1006C000BA93AA9321972883D80114960D911C916F
:1006D00015970E9497109E018D010E947705088151
:1006E0000A9509F448C00A95D1F00A9501F10A95D6
:1006F00009F489C00A9509F492C00A9531F10A9566
:1007000009F462C00A9509F4A4C00A9509F4F5C079
:10071000035009F402C10A9509F42BC132C100E06B
:100720001B960C9312960C93159720E08AC000E05C
:100730001D960C9312970C911B97033009F4E9C096
:1007400001E01B960C931B97E4C002E01B960C93F0
:10075000129600E00C93159720E0ED91FC91149611
:1007600006A117A10E9459010C911D97002309F4BD
:10077000D0C02DE040C01B960C911B97002349F080
:10078000013009F0FEC01D960C911D97002309F45D
:10079000F8C003E01B960C935C960C91979701FFB1
:1007A00004C001E01D960C931D9721E01896ED9171
:1007B000FC91149606A117A10E9459010C911D9756
:1007C000002309F0CCC0A5C01D961C9101E01027A4
:1007D0001C931D97112309F49CC01B960C911B9729
:1007E000013041F0023031F0033021F000E01B967F
:1007F0000C931B9724E018960D911C9111970E9461
:10080000091C21E074C000E01D960C9312970C9116
:100810001B97073011F405E00FC025E00BC000E086
:100820001D960C9312970C911B97083011F406E05B
:1008300003C026E08D012EDF1B960C931B9720E052
:100840001896ED91FC91129606A117A10E945901EC
:1008500061C01B960C911B97033069F420E0189639
:10086000ED91FC91129606A117A10E94590101E099
:100870000C931B9702C0013031F401E01C960C93DD
:100880001C9726E007C0023071F402E01C960C931E
:100890001C9725E08D01FEDE1B960C93139601E05C
:1008A0000C931E9716C0073011F0083061F497962C
:1008B0000C91979705FF07C021E018960D911C91A8
:1008C00019970E94151C1E960C911E97002309F47F
:1008D00058C01B962C9113970D911C915E960E9407
:1008E000091C0C91979704FF4CC021E018960D91BC
:1008F0001C9119970E94151C44C01E960C911E97BE
:10090000002339F01C960C910E93139600E00C9383
:100910001E971B962C91139726C01B960C911B9724
:10092000033079F1013051F402E01B960C931296DA
:100930000C911D970023A9F422E014C0023051F459
:1009400001E01B960C9312960C911D97002339F42D
:1009500021E008C051960C91519701FF02C02CE094
:1009600001C02DE018960D911C9119970E94091C49
:1009700008C01896ED91FC91199706A117A10E9445
:100980003A0101E050960C93139600E00C932196E7
:10099000A991B9910895BA93AA93D80197962D93E6
:1009A0003C93949726FB20E020F901E020270D914D
:1009B0001C911B960E948B1001E00C93A991B99198
:1009C0000895F80107A110A50895BA93AA93D80134
:1009D00040E050E022E30091820A1091830A0E94D5
:1009E000F30897960D931C932E91939726FB20E086
:1009F00020F901E020270D911C9113960E948B1085
:100A00000D911C910E94451DA991B9910895BA9329
:100A1000AA93D80197964D915C91909722E300910B
:100A2000820A1091830A0E940F090D911C910E9465
:100A3000971D0091820A1091830A0E943009A991A2
:100A4000B9910895009165000160009365000091DF
:100A500064000E7F009364000091640000610093C5
:100A60006400909A8898919A8998929A8A98939A11
:100A70008B9AD29AD19AD09A009161000068009323
:100A800061000091610000640093610000916100C9
:100A9000006200936100C19AB998A89508E101BD70
:100AA0000CE001BD0895AD01D801F90100810023DA
:100AB000E1F00B3041F451960C9101FF02C006E0C9
:100AC00001C003E00083008106FF06C0083411F472
:100AD00009E001C000E00083008107FF06C0023882
:100AE00011F40AE001C000E00083DA010895BA932E
:100AF000AA939A938A93D801C901F80100A500FF2F
:100B00000DC103850023F901008109F0F1C00A300D
:100B100071F4EA2FF12F17891123E9F401E0078B13
:100B2000058916890E943F0200E0FD01F3C00230F2
:100B300091F4EA2FF12F0789002309F4EFC000E0B8
:100B4000078B20E00589F689E02F2383EA2FF12F18
:100B5000208F218FE1C0FD0117891A9531F01A9578
:100B600081F11A9509F49EC0D9C0063011F402E053
:100B700010C0053011F426E003C0043039F425E03C
:100B80008D010E944A03FD01008F12C0033019F449
:100B900001E0008F12C0073021F0013011F0083061
:100BA00039F4048115810E949B1002E0FC0100834E
:100BB000FD01008D002309F470C002E0FC010083F8
:100BC00068C0108D183021F4053069F406E005C0C6
:100BD000173029F4043081F505E0008F70C016301D
:100BE00011F0123021F5033011F401E00BC0043094
:100BF00031F425E08D010E944A03FD0103C0073056
:100C000019F404E0018F0FC0063031F0053021F0F7
:100C1000013011F0083039F4048115810E949B10D5
:100C200002E0FC010083FD01008D073029F0008DFA
:100C3000053011F0013029F5FC010081063011F476
:100C400002E00CC0053039F426E08D010E944A0311
:100C5000FD01018F16C0073021F404E0FD01018F72
:100C600014C0033031F0043021F0013011F00830AD
:100C700041F4FD01048115810E949B1002E0FC01FA
:100C80000083FD01018D002341F002E0FC0100839F
:100C900003E0FD01078B01E0008B058916890E94A6
:100CA0003F023CC0118D183021F4053069F406E094
:100CB00005C0173049F4043039F405E0018F058987
:100CC00016890E943F0210C0063051F0033041F0F7
:100CD000053031F0043021F0013011F00830F1F42A
:100CE000048115810E949B1002E0FC01008316C064
:100CF000063061F0033051F0053041F0043031F03E
:100D0000013021F0023011F00C3041F400E0EA2F04
:100D1000F12F078B008F018F01E0008B8991999152
:100D2000A991B9910895BA93AA93D8010091940A10
:100D30000023A1F01A960C9103950C931A970A3090
:100D400069F400E01A960C9312970D911C91189675
:100D50000E94451C0C93A89501E001C000E0A991F8
:100D6000B9910895BA93AA93D80116960D911C9142
:100D70001A960E945A0A0C911E915097112331F431
:100D800052961C915297101709F460C152960C9319
:100D9000129700E00C931A9734E02FEF0D911C91FD
:100DA00050960E94930A0C915797013019F430E045
:100DB0002CE347C1023011F00330F1F458960C9146
:100DC0005897083021F0063011F0023041F430E03D
:100DD0002CE416960D911C9117970E94930A589631
:100DE0000C915897073029F0053019F0013009F0BF
:100DF0002DC130E020E725C151960C91519700FF9D
:100E000012C002FF02C031E001C033E016960D911E
:100E10001C911A962C91519721FF02C020E201C02B
:100E200024E00E94930A1B960C911B970023A1F0CB
:100E30000A9501F10A9591F10A9509F443C002500F
:100E400009F44FC00A9509F45BC00A9509F467C01C
:100E50000A9509F487C0AEC016960D911C911A969A
:100E60002C91519724FF03C030E022E0A1C034E070
:100E700020E09EC01D960C911D97002339F0979697
:100E80000C91979700FF02C032E006C051960C917A
:100E9000519702FF8FC030E024E086C01D960C9170
:100EA0001D97002339F097960C91979700FF02C089
:100EB00032E006C051960C91519702FF7BC030E0A2
:100EC00020E272C01D960C911D97002339F0979671
:100ED0000C91979700FF02C032E001C030E025E09E
:100EE00063C01E960C911E97002341F030E020E273
:100EF00016960D911C9117970E94930A30E030C00E
:100F00001E960C911E97002341F030E024E01696C7
:100F10000D911C9117970E94930A30E044C01E96D1
:100F20000C911E97002341F030E020E216960D91BF
:100F30001C9117970E94930A51960C91519706FFA6
:100F40000EC016960D911C911A962C91519733E074
:100F500021FF02C020E201C024E00E94930A32E097
:100F600028E022C01E960C911E97002341F030E02D
:100F700024E016960D911C9117970E94930A5196A2
:100F80000C91519706FF0EC016960D911C911A9662
:100F90002C91519733E021FF02C020E201C024E0F0
:100FA0000E94930A32E020E116960D911C9117974A
:100FB0000E94930A51960C9151970872083241F49D
:100FC00033E022E016960D911C9117970E94930A28
:100FD0001D960C911D97002371F016960D911C9192
:100FE00090962C91979720FF02C032E001C030E02C
:100FF00020E40E94930A59961C915997112331F1CC
:1010000098960C91989701FF02C001E001C000E0A2
:10101000302F1A95A9F01A9569F0125049F01A95D7
:1010200069F01A9549F01A9549F01A9529F00EC001
:1010300020E407C020E205C020E103C028E001C091
:1010400024E016960D911C910E94930AA991B991E2
:101050000895BA93AA93D80118960D911C911997E7
:101060000E94881C002321F153960C915397002372
:1010700099F41B960C911B97013011F402E005C006
:10108000023011F401E001C000E054960C93549733
:1010900001E053960C93539700E01B960C93139723
:1010A00029E00D911C9117960E94091C01E00C93F8
:1010B000A991B9910895BA93AA93D80155960D9123
:1010C0001C9156970E949D16002321F157960C9172
:1010D0005797033071F458962C911D972C931D96B9
:1010E00000E00C9350970D911C9119970E94091CD8
:1010F0000AC014960D911C9153960E94971000E01F
:101100000D930C93599700E057960C93179701E0B5
:101110000C93509753960C915397002389F118968E
:101120000D911C9119970E94121C002349F55196AC
:101130000C915197007A09F559962C9159972223D1
:1011400039F01B962C931E9600E00C9351970DC01E
:1011500097960C91979707FF10C054962C9154972F
:10116000222359F01B962C9313970D911C911796DF
:101170000E94091C01E00C93509700E053960C93D9
:10118000A991B9910895BA93AA93D80101E00C935B
:1011900040E050E020E00A2F26D00A3D1E4B11F41B
:1011A00001E001C000E00C938D01A991B99108956F
:1011B000F8010081002339F030E040E050E0420FB8
:1011C000531F0C947C20032F089510E040E050E062
:1011D000420F511F0E947C20031721F0032F0E9411
:1011E0008820A89508952297F8010081002389F0AE
:1011F00030E040E050E0420F531F0E947C20088303
:10120000239540E050E0420F531F0E947C20098349
:1012100002C0488359830881198122960895229734
:1012200048835983188130E040E050E0420F531F5B
:101230000E947C20011721F0012F0E948820A89590
:101240001981239540E050E0420F531F0E947C20FB
:10125000011721F0012F0E948820A8952296089559
:10126000BA93AA93D8014AED5EEB20E0D8DF40E0C4
:1012700050E020E08D01B7DF0A3D1E4B11F401E084
:1012800001C000E00C93A991B991089520E0F80104
:1012900020830895BA93AA93D8011A9812981B989C
:1012A000139800E012960D930C93139608EC10E03F
:1012B0000E946B010D931C9317978D01A991B99111
:1012C0000895BA93AA93D801459B02C001E001C0DA
:1012D00000E012961C911297101741F012960C9391
:1012E00014960D911C910E943F0210C013960C9110
:1012F0001397011759F016960D911C9117970E949C
:101300009D16002319F012960D910C93A991B99195
:101310000895F80103810895AD01F8012483358310
:101320002481A681B78114962D933C93DA01089508
:10133000F801048115810895BA93AA93D80148EC65
:1013400050E024E00091820A1091830A0E94F30881
:1013500014960D931D93ED91FC9104831583A9912F
:10136000B9910895F8014481558124E00091820AE1
:101370001091830A0C940F09BA93AA93D80100E044
:1013800012960D930D930D930C93159706E010E0B4
:101390000E94F120202F212B29F020E030E00E9434
:1013A000090202C000E010E00D931C9311978D011B
:1013B000A991B9910895BA93AA938A93D8010091FB
:1013C000940A002309F44DC00A2F1696ED91FC9162
:1013D00017972591F491E22F0995802FFD01038144
:1013E000801759F022E330E00D911C9111970E9473
:1013F0002302FD01838301E033C00281002389F1D0
:101400000D911C9111970E949D16002351F1FD0131
:1014100002810130F9F488230581C1F006FD0BC07B
:101420000F7705830064058322E330E0008111819A
:101430000E94230216C085832CED35E00D911C918E
:1014400011970E94230202E0FD010AC00F77058375
:10145000006404C0023029F405810068058300E0BF
:1014600002838991A991B9910895F8012581348168
:10147000321711F400E008952483022F0895BA93DF
:10148000AA93D801A09AA29AA49AA59AA79AD79AA1
:10149000D59A00E017960C9312960C930E9316961D
:1014A0000C931E9734E02FEF0A2F3DD08D01A991A8
:1014B000B9910895F80122851385112331F404852B
:1014C000002319F40585002311F10781053608F47E
:1014D000212B03950783083C11F400E00783018565
:1014E000033310F40485202B01850395018704360E
:1014F00011F400E001870085093010F40585202BE8
:10150000008503950087003131F400E003C000E05E
:101510000783018700870685021721F026878F0140
:101520000E94C20A0895F801022F00953323128504
:1015300071F4122B1287138510231387323071F444
:101540001485122B148715851023158708951023F1
:101550001287313081F71385122B138714851023DE
:101560001487333081F70585022B05870895F8012C
:101570004285538564857585F90140835183628373
:101580007383089522FB16F4AC9A01C0AC9825FB36
:1015900016F4DF9A01C0DF9826FB16F4DD9A01C02D
:1015A000DD9820FB16F4A89A01C0A89823FB16F436
:1015B000AD9A01C0AD9824FB16F4AF9A01C0AF9864
:1015C00021FB16F4AA9A0895AA980895BA93AA93AB
:1015D000D8010E94BC090CE810E016960D931C93EC
:1015E0001797009165000260009365000091640008
:1015F0000D7F00936400A99AA198AB9AA398AE9A24
:10160000A698009165000460009365000091640055
:101610000B7F00936400DE9AD698DC9AD498DB9A0C
:10162000D3988D01A991B991089500E010916300BC
:1016300011FF01E0999B02609B9B04609E9B0860E8
:101640001091630012FF0061CE9B0062CC9B00648E
:10165000CB9B0068002309F10058E9F0025879F0AB
:10166000025079F00A9549F0035069F0085069F08A
:10167000005169F0005269F010C001E0089502E0E5
:10168000089503E0089504E0089505E0089506E054
:10169000089507E0089508E0089500E00895BA93DA
:1016A000AA930E94291609E210E00E94F120A4E802
:1016B000BAE0202F212B29F00E9459020D931C9390
:1016C00003C000E00D930C93119702E010E00E941C
:1016D000F120202F212B31F00E94920B12960D93B6
:1016E0001C9304C000E012960D930C9313970E9474
:1016F00058160D911D910E9406030D911C91139790
:101700000E94A10BF4CF1D9A1598C39ABB9A089515
:10171000222311F0C39A0895C398089500E00D990B
:1017200001E00895BA93AA93D80128E104E310E0F8
:101730000E94691F0D931C9311978D01A991B99176
:101740000895DA92CA929A928A927A926A925A92F8
:101750004A92BA93AA939A938A932497D8010D91A7
:101760001C9111970E94741E902F002309F468C3E6
:101770000A95033108F059C3F2E00F9FF001EA52D5
:10178000FE4F05901490F001099421E04FC30D9194
:101790001C9111970E94BF1E002309F44CC3802F97
:1017A0000D911C9111970E94C21E202F0D911C912A
:1017B00011970E94DB1E8A9509F43DC3F1CF0EE814
:1017C000402E00E0502EF2010491002309F433C3AF
:1017D00025912F010D911C9111970E94DB1EF3CFD3
:1017E0000D911C9111970E94C21E202F0091840A16
:1017F0001091850A0E94600316C30D911C911197E8
:101800000E94C21E202FE091840AF091850A008573
:10181000F185E02F008111810E947D1304C30D9199
:101820001C9111970E94C21E01FB20E020F9E0915B
:10183000840AF091850A0085F185E02F00A511A5A5
:101840000E94AC01F0C20D911C9111970E94C21E22
:10185000002311F021E001C020E0E091840AF09122
:10186000850A0085F185E02F028113810E94880B93
:10187000DAC20D911C9111970E94C21E802FE09137
:10188000840AF091850A0085F185E02F0681178191
:1018900080FB1EF40E942E0F02C00E94470FE091B1
:1018A000840AF091850A0085F185E02F0085118575
:1018B00081FB1EF40E94390F02C00E94570FE09175
:1018C000840AF091850A0085F185E02F0285138551
:1018D00082FB1EF40E94400FA6C20E94630FA3C2A7
:1018E0000D911C9111970E94C21E802F0D911C9189
:1018F00011970E94CB1E68010D911C9111970E94B7
:10190000CB1EA601B801282FE091840AF091850A28
:101910000085F185E02F008111810E94481483C267
:101920000D911C9111970E94C21E202FE091840AF4
:10193000F091850A0085F185E02F008111810E94D8
:1019400065142801390120E00D911C9111970E9426
:10195000DB1E920122C10D911C9111970E94CB1E9A
:101960009801E091840AF091850A0085F185E02FC5
:10197000008111810E9416140D911C9111970E94F3
:10198000CB1E9801E091840AF091850A0085F185CB
:10199000E02F008111810E942C1445C20D911C91F1
:1019A00011970E94C21E802F202F2170E091840A7F
:1019B000F091850A0085F185E02F06A117A10E940C
:1019C000420181FB20E020F9E091840AF091850A30
:1019D0000085F185E02F06A117A10E94450182FB39
:1019E00020E020F9E091840AF091850A0085F185D4
:1019F000E02F06A117A10E94590120E0E091840A7E
:101A0000F091850A0085F185E02F06A117A10E94BB
:101A10002C0109C220E00D911C9111970E94DB1E40
:101A20009E01E091840AF091850A068117810E9447
:101A3000B70A28810D911C9111970E94DB1E298104
:101A40000D911C9111970E94DB1E2A810D911C9112
:101A500011970E94DB1E2B810D911C9111970E9402
:101A6000DB1E80E00091650003FD81E0C499826087
:101A700094998460E091840AF091850A0085F1854B
:101A8000E02F028113810E948E0B002309F08860F1
:101A9000E091840AF091850A0085F185E02F0481A8
:101AA00015810E948909002309F08061E091840A70
:101AB000F091850A0085F185E02F00A511A50E940F
:101AC000C601002309F08062E091840AF091850A42
:101AD0000085F185E02F00A511A50E94C901002312
:101AE00009F08064E091840AF091850A0085F1850F
:101AF000E02F00A511A50E94CC01002309F0806809
:101B0000282F0D911C9111970E94DB1EE091840AF1
:101B1000F091850A0085F185E02F06A117A10E94AA
:101B20005F01202F0D911C9111970E94DB1EE09107
:101B3000840AF091850A0085F185E02F00811181EA
:101B40000E94F613202F0D911C9111970E94DB1E0D
:101B5000E091840AF091850A0085F185E02F0081EB
:101B600011810E946F14390198010D911C911197F8
:101B70000E94F21E93010D911C9111970E94F21E7A
:101B8000E091840AF091850A0085F185E02F0081BB
:101B900011810E944214390198010D911C911197F5
:101BA0000E94F21E930126C10D911C9111970E9473
:101BB000C21E802E0D911C9111970E94C21E902E64
:101BC0000D911C9111970E94C21EA401602FE091FB
:101BD000840AF091850A0085F185E02F008111814A
:101BE0000E94F9130D911C9111970E94CB1E980130
:101BF000E091840AF091850A0085F185E02F00A527
:101C000011A50E94CF010D911C9111970E94CB1E2E
:101C10009801E091840AF091850A0085F185E02F12
:101C2000048115810E948C090D911C9111970E94CD
:101C3000CB1E9801E091840AF091850A00851185F8
:101C40000E94221D0D911C9111970E94CB1EE091C4
:101C5000840AF091850A2085F185E22F038B148B8D
:101C60000D911C9111970E94CB1EE091840AF09176
:101C7000850A2085F185E22F058B168B0D911C912D
:101C800011970E94CB1EE091840AF091850A20856D
:101C9000F185E22F078B108F0D911C9111970E94F7
:101CA000C21E202FE091840AF091850A0085F185FB
:101CB000E02F258F0D911C9111970E94CB1E98014A
:101CC0000091840A1091850A0E94CB04ACC020E0E8
:101CD0000D911C9111970E94DB1EE091840AF091F6
:101CE000850A0085F185E02F008111810E94111481
:101CF000512E622E202F0D911C9111970E94DB1EF8
:101D0000252D0D911C9111970E94DB1E262D0D9102
:101D10001C9111970E94DB1EE091840AF091850AC4
:101D20000085F185E02F00A511A50E94DB01980137
:101D30000D911C9111970E94F21EE091840AF0917E
:101D4000850A0085F185E02F048115810E9498099C
:101D500098010D911C9111970E94F21EE091840A46
:101D6000F091850A008511850E94411D98010D9111
:101D70001C9111970E94F21EE091840AF091850A4D
:101D80000085F185E02F238934890D911C911197ED
:101D90000E94F21EE091840AF091850A0085F18587
:101DA000E02F258936890D911C9111970E94F21E12
:101DB000E091840AF091850A0085F185E02F27895A
:101DC000308D0D911C9111970E94F21EE091840AB2
:101DD000F091850A0085F185E02F258D0D911C91EC
:101DE00011970E94DB1E0091840A1091850A0E94BF
:101DF000E10498010D911C9111970E94F21E1BC0E5
:101E00000091840A1091850A0E9407050CC0009178
:101E1000820A1091830A0E9446090091840A109157
:101E2000850A0E94E50420E001C024E00D911C9188
:101E300011970E94DB1E292F0D911C910E945220A8
:101E4000249689919991A991B99149905990699055
:101E5000799089909990C990D990089520916500C2
:101E6000286020936500969AF801008111810C94F6
:101E70003F02C49A979AF801008111810C943F02A5
:101E8000949A959AF801008111810C943F023B2F9E
:101E90004A2F20916500277F20936500969820E0C7
:101EA000D801ED91FC912383A42FB32F08953B2FEC
:101EB0004A2FC498979820E0D801ED91FC91238394
:101EC000A42FB32F08953B2F4A2F9498959820E084
:101ED000D801ED91FC912383A42FB32F0895BA93D9
:101EE000AA93D8010E94BC0904E910E016960D934C
:101EF0001C9312961C9A149808E710E00E946B013C
:101F00000D931C9312970FEF00938C0A0C93189764
:101F100004E003BF01E00ABF03E000938A0A02E283
:101F200002BF01E006BF07B7016007BF8D01A9919D
:101F3000B99108951A930A931FB709B70F7E09BF85
:101F400001E902BF01E006BF07B7016007BF01E07A
:101F500000938A0A1FBF099119911895FA93EA9381
:101F60004A933A932A931A930A933FB70C9B02C061
:101F700021E001C020E0E8E8FAE00281023011F43B
:101F800003E002830281002329F5268300E108BFD4
:101F900009B7006109BF02E202BF01E006BF07B74F
:101FA000016007BF02E0028305810A95058391F471
:101FB00046E0008111810E9494200F71038300810B
:101FC0000F730483018103FF03C00481006804834D
:101FD00003E0028302810130C1F40681201799F0E9
:101FE00000811181000F111F00831183222311F43E
:101FF0000160008302E202BF01E006BF07B7016093
:1020000007BF00E001C003E002830281033061F4F6
:102010000EE0058301E0068307B70E7F07BF00E1EE
:1020200008BF09B7006109BF3FBF09911991299104
:1020300039914991E991F9911895BA93AA939A9394
:102040008A93D8018FEFE8E8FAE0948103819F3FFB
:10205000A9F0033199F48483EA2FF12F01851285C9
:102060000E943F02FD010085901709F4892FFD01B0
:1020700090878F77803468F080E010C0EA2FF12FCE
:102080009085018512850E949D16002379F39FEFAC
:10209000EECFF0E0E82FE956FF4F8491082F8991A9
:1020A0009991A991B9910895BA93AA93D80106E09C
:1020B00010E00E94F120202F212B29F020E030E0B9
:1020C0000E94090202C000E010E011960D931D93DA
:1020D0000CE205BDBF9A01E00C9313978D01A99105
:1020E000B9910895F801018112810E949D16002383
:1020F00011F00CE205BD0895F8013381332341F05E
:1021000023BD9A01018112810E9423020CE101C0CA
:102110000CE205BD0895F80123830381002311F427
:102120000CE205BD089544E650E02FE1E5CF48E21A
:1021300050E02FE1E1CF4CE251E026E5DDCF40E079
:10214000F801448345834683478340834183428328
:10215000438340870895FA92EA92DA92CA92BA9239
:10216000AA929A928A927A926A925A924A92BA93CE
:10217000AA939A938A93202E7901F801C080D18086
:10218000A60160E070E0890120E030E08480958065
:10219000A680B7804084C801A0E0B0E08C199D09FA
:1021A000A040B040B49DB02DA49DA02DB10D949D34
:1021B000902DA10DB61F849D910DA61FB61F402C1A
:1021C00082E38B9FB02D8A9FA02DB10D899F902D0A
:1021D000A10DB61F849D910DA61FB61F8018990AE8
:1021E000AA0ABB0A418483859485A0E0B0E0801BE5
:1021F000910BA040B040B49DB02DA49DA02DB10D79
:10220000949D902DA10DB61F849D802D910DA61F2C
:10221000B61F880F991FAA1FBB1F880D991DAA1DE5
:10222000BB1D2C013D01EFEF4E0E5E1E6E1E7E1E8D
:10223000EBE04E16EEEF5E06E3EF6E06E1E07E06A3
:10224000E0F5E22D4284440F551F661F041B150B59
:10225000260B304042815381040F151F271F371F63
:10226000349D302D249D202D310D149D102D210DD8
:10227000371F049D110D271F731F402D512F622FF3
:1022800002EE14E0E0E0129F302D079F300D159F05
:10229000202D310D069F200D311D149F102D210D75
:1022A0003E1F059F100D211D3E1F049F110D2E1F67
:1022B0003E1F8019910BA20BB30BBB232AF480E0C5
:1022C00090E0A0E0B0E00CC08D300EEF900703EF7F
:1022D000A00701E0B00724F08CE09EEFA3EFB1E08F
:1022E000E22D84839583A683B783C282D382E08262
:1022F000F18244EF51E060E070E08C019D010E94AA
:10230000BD2089919991A991B9914990599069906D
:10231000799089909990A990B990C990D990E990B5
:10232000F9900895F801A90104EF11E030E02224AA
:10233000159F202D149F102D059F100D211D331F5B
:10234000049F110D221D321D0482158326833783BD
:1023500040835183428353830895BA93AA93D8014B
:10236000009161000D7F00936100009161000E7F7C
:1023700000936100BE9ABD9AB89A179A0DE010E0DA
:102380000E94F120202F212B11F0D9DE02C000E0A5
:1023900010E057960D931D930DE010E00E94F12080
:1023A000202F212B11F0CBDE02C000E010E00D93B6
:1023B0001C93589704E00D9300E00D930C93119635
:1023C0000D930C9311960D930D930D930C93119601
:1023D0000D930C93119601EC07B907EC06B90FEFBA
:1023E0001FE317BD06BD00E00D930C9311960FEF90
:1023F00019BD08BD00E00D930C9350970FEF1BBD66
:102400000ABD02EF0FBD09E10EBD20E08D0175D1BF
:102410008D01A991B9910895BA93AA93D801009119
:10242000940A002309F458C007B1013C04B115B166
:1024300051F413962D913C91200F311F3C932E9314
:10244000139700EC09C015962D913C91200F311F78
:102450003C932E93159701EC07B907EC06B9129639
:102460000C9112970230B1F42FEF3FEF13960D91BC
:102470001C91159645E00E948E20201B310B2D9358
:102480003C93139701E00C93149700E00D930C9389
:10249000149717C00130A9F42FEF3FEF15960D9157
:1024A0001C91159645E00E948E20201B310B2D9328
:1024B0003C93149701E00C93139700E00D930C9359
:1024C000169712960C910A950C931297002321F4FB
:1024D00004E012960C93129711960C9111970A959D
:1024E00061F00A9571F10A9509F44EC00A9509F454
:1024F00079C00A9509F44AC0B6C017960C9117978F
:102500000023E9F019962D913C911D960D911C9197
:102510001B9721DE0D931C931E974FEF5FEF60E03A
:1025200070E0401B510B604070408A019B0144E009
:1025300050E060E070E00E94BD2019BD08BD189613
:1025400047C018960C911897002309F48CC01B966D
:102550002D913C911B960D911C911B97FCDDA801C0
:102560000D931C931E970FEF1FEF20E030E060E00B
:1025700070E0041B150B2040304044E050E00E9406
:10258000BD2019BD08BD6FC017964DC018960C919F
:102590001897002309F467C01B962D913C911B9658
:1025A0000D911C911B97D7DDA8010D931C931697D5
:1025B0000FEF1FEF20E030E060E070E0041B150B30
:1025C0002040304044E050E00E94BD2019BD08BDCD
:1025D0000C911897002309F446C01B962D913C914D
:1025E0001D9629C017960C9117970023E1F11996B3
:1025F0002D913C911D960D911C911B97ACDDA8016E
:102600000D931C9317970FEF1FEF20E030E060E071
:1026100070E0041B150B2040304044E050E00E9465
:10262000BD2019BD08BD0C9117970023E1F0199644
:102630002D913C911F960D911C911B978CDDA8014B
:102640000D931C9350970FEF1FEF20E030E060E0F8
:1026500070E0041B150B2040304044E050E00E9425
:10266000BD201BBD0ABD00E017960D930C93A991E8
:10267000B9910895AD01D8015796ED91FC9129309B
:1026800061F4D80196962D913C912C5C3C402387B7
:102690003487F80120A531A529C02A3061F4D8017A
:1026A0009A962D913C9123873487F80124A535A56E
:1026B0002C5C3C401BC0222351F420E0238724875C
:1026C000F801A18DB28D1B962D932C9314C034E08C
:1026D000239FD801A00DB11D5E962D913C915F976F
:1026E00023873487FD0120A131A1F801A18DB28D8E
:1026F0001B962D933C93DA010895BA93AA938A937B
:10270000D801822FC0981F98B5DF082F8823B9F011
:102710000A95E1F10A9571F10A95A9F10A9509F472
:1027200043C00A9509F44CC00A9509F455C00A95AE
:1027300009F454C00250F1F00A9529F152C000E0AA
:10274000FD01058706870FEF1FE319BD08BD00E0F7
:102750000787008B0FEF1BBD0ABD20E030E0078923
:10276000108DE0DD20E030E0FD01018D128DDADD1D
:1027700000E035C020E030E0FD010789108DD2DD9A
:102780002FEF3FEF0BC02FEF3FEF02C020E030E014
:10279000FD010789108DC6DD20E030E0FD01018DCF
:1027A000128DC0DD01E01BC000E0FD010787008B3A
:1027B0000FEF1FE31BBD0ABD02E00183C09A11C0E9
:1027C00000E0FD01058706870FEF1FE319BD08BD77
:1027D00003E001831F9A05C005E001C004E0FD018C
:1027E00001838C938991A991B9910895F801008191
:1027F00008959D01F801438F548F658F438D548D4B
:10280000A789B08D18964D935D936C93438D548D2D
:10281000658DA18DB28D18964D935D936C93D90102
:102820000895F801038D148D258D0895F8012587ED
:1028300036874FEF5FEF60E070E0421B530B604064
:1028400070408A019B0144E050E060E070E00E942B
:10285000BD2019BD08BD0895F8012787308B4FEFC3
:102860005FEF60E070E0421B530B604070408A01F4
:102870009B0144E050E060E070E00E94BD201BBD81
:102880000ABD0895F80105851685278530890895C4
:102890001D012830C0F434E0239FF801E00DF11D44
:1028A000468F578F60A371A3F8013081231759F425
:1028B0002789F08DE22F43875487F801A18DB28DCF
:1028C0001B966D937C93D101089534E0239F000DF6
:1028D000111DF801068D178D20A131A10895F80171
:1028E00001851285238534850895F801268D378D5D
:1028F000018512852017310710F001E0089500E0EE
:102900000895F80120A131A103851485201731070E
:1029100010F001E0089500E00895F801268D378D4C
:10292000418552852417350738F420A131A103854C
:1029300014852017310710F001E0089500E0089594
:10294000BA93AA93D80130E526E00091820A10914B
:10295000830A0E94D8085B960D9338E227E0009125
:10296000820A1091830A0E94D8080D9332E328E06E
:102970000091820A1091830A0E94D8080C93129742
:102980004D915D91602F5D978D0133DF4AE754E1F2
:1029900029E00091820A1091830A0E94F3085E9652
:1029A0000D931D934AE754E12BE00091820A1091A8
:1029B000830A0E94F3080D931D934FEF5FE32DE010
:1029C0000091820A1091830A0E94F3080D931D93CF
:1029D0004FEF5FE32FE00091820A1091830A0E947B
:1029E000F3080D931D934FEF5FE321E10091820AFD
:1029F0001091830A0E94F3080D931D934FEF5FE33C
:102A000023E10091820A1091830A0E94F3080D933A
:102A10001D934FEF5FE325E10091820A1091830A35
:102A20000E94F3080D931D934FEF5FE327E10091A0
:102A3000820A1091830A0E94F3080D931D934FEFB1
:102A40005FE329E10091820A1091830A0E94F30852
:102A50000D931D934FEF5FEF2BE10091820A1091D0
:102A6000830A0E94F3080D931D934FEF5FEF2DE152
:102A70000091820A1091830A0E94F3080D931D931E
:102A80004FEF5FE32FE10091820A1091830A0E94C9
:102A9000F3080D931D9346E656E221E20091820A67
:102AA0001091830A0E94F3080D931D934CEC5CE493
:102AB00023E20091820A1091830A0E94F3080D9389
:102AC0001D934CEC5CE425E20091820A1091830A8C
:102AD0000E94F3080D931D9346E656E227E200910B
:102AE000820A1091830A0E94F3080D931C93A99106
:102AF000B9910895BA93AA93D8015B963D9126E0C7
:102B00000091820A1091830A0E94E5083D9127E016
:102B10000091820A1091830A0E94E5083D9128E005
:102B20000091820A1091830A0E94E5084D915D91FF
:102B300029E00091820A1091830A0E940F094D91A9
:102B40005D912BE00091820A1091830A0E940F0987
:102B50004D915D912DE00091820A1091830A0E94AF
:102B60000F094D915D912FE00091820A1091830A27
:102B70000E940F094D915D9121E10091820A10910F
:102B8000830A0E940F094D915D9123E10091820A11
:102B90001091830A0E940F094D915D9125E10091EA
:102BA000820A1091830A0E940F094D915D9127E1DD
:102BB0000091820A1091830A0E940F094D915D9144
:102BC00029E10091820A1091830A0E940F094D9118
:102BD0005D912BE10091820A1091830A0E940F09F6
:102BE0004D915D912DE10091820A1091830A0E941E
:102BF0000F094D915D912FE10091820A1091830A96
:102C00000E940F094D915D9121E20091820A10917D
:102C1000830A0E940F094D915D9123E20091820A7F
:102C20001091830A0E940F094D915D9125E2009158
:102C3000820A1091830A0E940F094D915C9127E24C
:102C40000091820A1091830A0E940F09A991B991FB
:102C5000089509E000938A000FE71EE310938700B0
:102C60000093860000E100937C0000937D00EFE874
:102C7000FAE000E0008301830283038378940895DF
:102C80007894FA93EA932A931A930A932FB7EFE86A
:102C9000FAE0008111810F5F1F4F0083118301E073
:102CA00004832FBF099119912991E991F991189500
:102CB0002FB7F894EFE8FAE00081118102831383C3
:102CC0000481058300E004832FBF08952FB7F89493
:102CD00000918F0A1091900A2FBF0895BA93AA937A
:102CE0009A938A93D801F2DFC801E2DFA895009198
:102CF000910A1091920A081B190B0A171B07A8F3D7
:102D000089919991A991B99108952091910A309151
:102D1000920AF80140815181241B350B4481558171
:102D20002417350718F021E0228303C022812223D3
:102D300011F00381089500E008952091910A3091E7
:102D4000920AF80140815181241B350B4481558141
:102D50002417350738F02281222321F421E0228331
:102D60000381089500E00895BA93AA93D8018D9A3B
:102D70008C9A8E9A009164000860009364008F9A88
:102D8000BC9A02E010E00E94F120202F212B19F0C4
:102D90000E94DA1D02C000E010E016960D931D930C
:102DA00002E010E00E94F120202F212B19F00E9458
:102DB000F01D02C000E010E00D931D9302E010E052
:102DC0000E94F120202F212B19F00E94021E02C028
:102DD00000E010E00D931C935D9608E010E00E9467
:102DE000F120202F212B19F00E947E0102C000E06B
:102DF00010E00D931C93979702E010E00E94F120E1
:102E0000202F212B19F00E94830B02C000E010E05C
:102E10000D931D9308E010E00E94F120202F212B3C
:102E200019F00E944A0902C000E010E00D931C93C3
:102E3000919606E010E00E94F120202F212B19F03E
:102E40000E940C0102C000E010E00D931C939797C4
:102E50000EE310E00E94F120202F212B19F00E9498
:102E6000AD1102C000E010E00D931C93509604E0F9
:102E700010E00E94F120202F212B19F00E94351E16
:102E800002C000E010E00D931C931C9606E010E0D9
:102E90000E94F120202F212B29F020E030E00E9419
:102EA000160202C000E010E00D931C93129606E09B
:102EB00010E00E94F120202F212B29F020E030E0AB
:102EC0000E94160202C000E010E00D931C9356977A
:102ED00000E00D930D930C9355960C9353970C9320
:102EE00055960C9395978D01A991B9910895BA9330
:102EF000AA93D801F801028513850E942A1EFD01BC
:102F0000068117810E94141EFD01008511850E9413
:102F10001F1EFD0100A511A50E949601FD0104815F
:102F200015810E9461090D911C9111970E940C124C
:102F3000FD0105851485101709F405C226852017A3
:102F4000D9F0173021F4053049F41AE005C01830E3
:102F500029F4063019F41BE0178701C0078706879C
:102F60000EE004875196ED91FC91529701E00183A8
:102F7000028113810E944B025196ED91FC91529770
:102F800000E00083028113810E948516002309F46A
:102F9000DAC1FD0107850E3008F0D5C1F2E00F9FC0
:102FA000F001E450FE4F05901490F00109944AE0BE
:102FB00050E021E08D0179D344E650E020E08D011E
:102FC00023D240E050E021E08D01C0D240E050E04B
:102FD00025E08D011AD38D01F4D240E050E020E0CD
:102FE0008D0113D340E951E020E08D0174D244E615
:102FF00050E020E08D013BD244E650E020E08D011E
:10300000A5D26FC14AE050E021E08D014ED340E0EF
:1030100050E020E08D019AD144E650E020E08D019F
:10302000F3D140E050E021E08D0190D240E050E04B
:1030300025E08D01EAD28D01C4D240E050E020E0CD
:103040008D01E3D240E951E020E08D0144D244E615
:1030500050E021E08D010BD240E050E021E08D01F5
:10306000D4D28D01F7D28D01AFD140E050E022E003
:103070008D01CBD240E050E022E03BC04AE050E07E
:1030800021E08D0112D340E050E021E08D015ED1BE
:1030900044E650E020E08D01B7D140E050E021E06F
:1030A0008D0154D240E050E025E08D01AED28D017B
:1030B00088D240E050E020E08D01A7D240E951E005
:1030C00020E08D0108D242E350E021E08D01CFD114
:1030D00040E050E021E08D0198D28D01BBD28D01FE
:1030E00073D140E050E022E08D018FD240E050E00B
:1030F00023E08D012BD24CE251E021E08D0184D1FF
:1031000040E050E020E0F3C044E150E021E08D01D8
:10311000CCD244E650E020E08D0176D140E050E092
:1031200021E08D0113D240E050E025E08D016DD209
:103130008D0147D240E050E020E08D0166D244E6A8
:1031400050E021E08D0193D140E050E021E08D017D
:103150005CD28D017FD244E650E021E08D01BBD1ED
:1031600040E050E024E08D01F1D140E050E023E068
:1031700034C044E150E021E08D0197D244E650E0B4
:1031800020E08D0141D140E050E021E08D01DED111
:1031900040E050E025E08D0138D28D0112D240E0B0
:1031A00050E020E08D0131D244E650E021E08D0175
:1031B0005ED140E050E021E08D0127D28D014AD25E
:1031C00044E650E021E08D0186D140E050E025E06A
:1031D0008D01BCD140E050E024E08D0116D289C0C1
:1031E00044E150E021E08D0160D244E650E020E06F
:1031F0008D010AD140E050E021E08D01A7D140E0EF
:1032000050E025E08D0101D28D01DBD140E050E09E
:1032100020E08D01FAD144E650E021E08D0127D174
:1032200040E050E021E08D01F0D18D0113D244E661
:1032300050E021E08D014FD144E650E026E08D01C1
:1032400085D140E050E023E034C044E150E021E08B
:103250008D012BD244E650E020E08D01D5D040E036
:1032600050E021E08D0172D140E050E025E08D0179
:10327000CCD18D01A6D140E050E020E08D01C5D138
:1032800044E650E021E08D01F2D040E050E021E042
:103290008D01BBD18D01DED144E650E021E08D01EE
:1032A0001AD144E650E027E08D0150D140E050E0D3
:1032B00024E08D01AAD115C04AE050E021E08D0143
:1032C000F4D14AE050E020E008C04AE050E021E0BC
:1032D0008D01EBD140E050E021E08D0137D08D0130
:1032E00073D040E050E0FD01208901E020278D01EE
:1032F000DCD12EE026C04AE050E021E08D01D5D19E
:1033000040E050E020E08D017FD040E050E021E03F
:103310008D011CD140E050E020E08D01A8D08D014E
:1033200050D140E050E020E08D016FD142E350E009
:1033300020E08D01D0D040E050E020E08D0106D1AA
:1033400020E08D01E7D1A991B99108955A924A924E
:10335000BA93AA938A93D801822F2A01F80101898E
:10336000F289E02F2081239520830181201731F5F8
:10337000EA2FF12F00A511A50E94C9010817A9F095
:10338000282FFD0100A511A50E94AC01282FFD01E9
:1033900006A117A10E94450192015196ED91FC9161
:1033A0005297028113810E943102FD01A189B289E5
:1033B00011960C9103950C930FE70E938991A991A7
:1033C000B991499059900895BA93AA93D80151960A
:1033D000ED91FC91529700810395008311810117B3
:1033E00081F4FD0100A511A50E94CC01002349F044
:1033F000FD01A189B28911960C9103950C930FE7F9
:103400000E93A991B9910895BA93AA939A938A9326
:10341000D801CA01F8010189F289E02F3081339582
:1034200030830181301711F500E0C49901E00217E3
:10343000A1F0EA2FF12F00851185222319F00E94B7
:10344000390F02C00E94570F9C015196ED91FC91DB
:103450005297028113810E943102FD01A189B28934
:1034600011960C9103950C930FE70E936AC0BA93D3
:10347000AA939A938A93D801CA01F8010189F28923
:10348000E02F3081339530830181301719F5009199
:10349000650003FB10E010F9121799F0FD01068199
:1034A0001781222319F00E942E0F02C00E94470F9D
:1034B0009C015196ED91FC915297028113810E94DB
:1034C0003102FD01A189B28911960C9103950C93EB
:1034D0000FE70E9336C0BA93AA939A938A93D801B2
:1034E000CA01F8010189F289E02F308133953083D8
:1034F0000181301731F5EA2FF12F0089002309F0FF
:1035000020E000E0949901E0021791F00285138514
:10351000222319F00E94400F02C00E94630F9C01F9
:103520005196ED91FC915297028113810E943102D4
:10353000FD01A189B28911960C9103950C930FE7B7
:103540000E9389919991A991B99108954A92BA934C
:10355000AA939A938A93D801422ECA01F80101894D
:10356000F289E02F2081239520830181201719F50E
:103570000D911C9111970E94F6130D911C911197BA
:103580000E94F613041571F0242D0D911C91509694
:103590000E947D139C01ED91FC9152970281138151
:1035A0000E943102FD01A189B28911960C91039507
:1035B0000C930FE70E9389919991A991B991499034
:1035C0000895BA93AA93D8015196ED91FC91529720
:1035D00000810395008311810117A1F4FD0102818F
:1035E00013810E948E0B002321F0FD0105A1002311
:1035F00049F0FD01A189B28911960C9103950C93B4
:103600000FE70E93A991B9910895BA93AA939A934B
:103610008A93D801CA01F8010189F289E02F30812B
:103620003395308301813017A1F40A2F92D09C0189
:103630005196ED91FC915297028113810E943102C3
:10364000FD01A189B28911960C9103950C930FE7A6
:103650000E9377CFBA93AA93D8015196ED91FC912E
:10366000529700810395008311810117D9F40D91C0
:103670001C9111970E947514002339F40D911C912F
:1036800011970E948114002321F0FD01058D01FD99
:1036900009C0FD01A189B28911960C9103950C9383
:1036A0000FE70E93A991B99108954A92BA93AA93FC
:1036B0009A938A93D801422ECA01F8010189F289AE
:1036C000E02F2081239520830181201711F5EA2F17
:1036D000F12F06A117A10E945F01102F1170141580
:1036E00079F0242DFD0106A117A10E9442019C0141
:1036F0005196ED91FC915297028113810E94310203
:10370000FD01A189B28911960C9103950C930FE7E5
:103710000E9351CF5B2F6A2FD8015196ED91FC91FA
:103720003081339530834181341781F43EE0F801D4
:1037300036872E3009F0258725852487A189B2890F
:1037400011960C9103950C930FE70E93A62FB52FAE
:103750000895BA93AA938A93D801822F00E0EA2FA2
:10376000F12F00A3022F222359F00A9559F00A9550
:1037700089F00A9529F10A9519F10A95B1F145C028
:1037800000E01CC02589368901A112A10E943102E6
:1037900001E013C02789308D01A112A10E943102DE
:1037A000FD01048115810E948909FD0104A321E026
:1037B000028113810E94880B02E0FD0103A325C052
:1037C0002789308D01A112A10E943102FD010481DF
:1037D00015810E948909FD0104A320E00281138163
:1037E0000E94880BFD0183A310C023893489068DB4
:1037F000178D0E943102FD012789308D01A112A190
:103800000E94310201E0FD0100A38991A991B991C3
:103810000895F80125872C3021F02D3011F020E09B
:1038200004D00895F80104850895BA93AA938A9361
:10383000D801822FF8010585222379F0073011F095
:10384000083021F4028513850E94630FFD01048571
:103850001585011781F420E00AC0073011F0083007
:1038600021F4028513850E94400F21E0FD0106A18D
:1038700017A10E944201FD0123A18D016ADFFD0114
:10388000808B8991A991B9910895BA93AA938A934B
:10389000D80180E0F80100A511A50E94C60100230F
:1038A00009F081E0FD0100A511A50E94C9010023D6
:1038B00009F08260FD0100A511A50E94CC01002342
:1038C00009F084600D911C9111970E94F61301304C
:1038D00009F48860FD01048115810E948909002393
:1038E00009F08061FD01028113810E948E0B00238B
:1038F00009F08062FD010089002309F0806405A1C0
:10390000002309F08068082F8991A991B991089541
:10391000BA93AA93D80193960C9193970A9539F08C
:103920000A95A1F00A95C1F00A9501F137C00D91F1
:103930001C9194960E948D140C9395970023A9F1E5
:103940005D960C915D9701FD1FC02FC00D911C91DC
:1039500094960E948D1405C00D911C9194960E941E
:1039600081140C939597002351F41FC00D911C9165
:1039700094960E9475140C9395970023B1F05D9670
:103980000C915D9702FF11C091960D911C91929739
:103990000E948516002309F04FC007C00D911C91AD
:1039A00094960E948D140C93959790960C919097F5
:1039B0000023A9F012960D911C9113970E948E0B73
:1039C000002369F05E960D911C915F970E94851609
:1039D000002329F05D960C915D9700FD2DC0939614
:1039E0000C919397023050F114960D911C915F96B3
:1039F0000E9489093C91949721E0102F12273123CE
:103A0000D9F494960C9392970D911C9113970E9460
:103A10008E0B002399F490960C919097002371F4EB
:103A200091960D911C9192970E948516002331F07A
:103A30005D960C9103FF02C001E001C000E0A99176
:103A4000B9910895AD01F801218F328F218DA681A2
:103A5000B781ED91FC9124833583F801218D328D5E
:103A6000A085B185ED91FC9124833583F801218DEA
:103A7000328DA285B385ED91FC9124833583DA01E3
:103A80000895F801018D128D0895BA93AA93D80173
:103A90003FE029E20091820A1091830A0E94D8082F
:103AA0005D960C931A9748E853E12AE20091820A46
:103AB0001091830A0E94F3080D931D9340E253E096
:103AC0002CE20091820A1091830A0E94F3080D9360
:103AD0001D9348EE53E02EE20091820A1091830A72
:103AE0000E94F3080D931D934091800A5091810A22
:103AF00020E30091820A1091830A0E94F3080D933B
:103B00001C935A9798018D019DDF98960D911C91F9
:103B100099970E94DF010D911C9113960E94A014A9
:103B20000D911C910E949C09A991B9910895BA9395
:103B3000AA93D8015D963C911A9729E20091820AD6
:103B40001091830A0E94E5084D915D912AE200914F
:103B5000820A1091830A0E940F094D915D912CE217
:103B60000091820A1091830A0E940F094D915D9184
:103B70002EE20091820A1091830A0E940F094D9152
:103B80005C911E9620E30091820A1091830A0E94A4
:103B90000F090D911C9199970E94FF010D911C91A5
:103BA00013960E947A150D911C910E94B209A99159
:103BB000B9910895BA93AA93D8018E9A009164009E
:103BC0000860009364000091800A1091810A0E94AD
:103BD0006B010D931C9311978D01A991B9910895D3
:103BE000BA93AA93D8018F9ABC9A0091800A109137
:103BF000810A0E946B010D931C9311978D01A9916D
:103C0000B9910895BA93AA93D8018D9A8C9A00918C
:103C1000800A1091810A0E946B010D931C931197E9
:103C20008D01A991B9910895969B08C0F801008172
:103C300011810E949D16002309F096980895979B84
:103C400008C0F801008111810E949D16002309F02F
:103C500097980895959B08C0F801008111810E94F2
:103C60009D16002309F095980895BA93AA93D80158
:103C700006E010E00E94F120202F212B29F020E007
:103C800030E00E94160202C000E010E012960D9390
:103C90001C9313978D01A991B9910895BA93AA9392
:103CA0009A938A93D80153962C931B97822F90E076
:103CB00004968C010E94EF200D931C9318968C01A2
:103CC0000E94EF200D931C93529700E00C9306E0A6
:103CD0001A960C93199700E00C9311978D01899116
:103CE0009991A991B99108951D0140E0F8012181B0
:103CF000263009F041C025814085241B23502783AD
:103D000042E82085318523833483F901508155238E
:103D100091F4F8016381732F6F5F7F4F6383748326
:103D20000AC0D0016D91A383B4834627E42FF0E04D
:103D3000EA52FF4F4491F801658176810380148037
:103D40006015710570F72F5F3F4F23833483442341
:103D500021F4A381B32F4C9101C041E020E0208BDE
:103D6000208531852D5F3F4F23833483218932891C
:103D70002D5F3F4F24873587042FD1010895F80127
:103D8000078108959D01F801A381B4810D91A3835A
:103D9000B483D90108953B2F4A2FF801A381B48140
:103DA0002D91A383B483A3811D91A383B483022F98
:103DB000A42FB32F08953B2F2A2EF80104841584D5
:103DC00041895289638970E0460F571F4D5F5F4FED
:103DD0000416150620F4D0012D93A487B587A22DD3
:103DE000B32F08950D01F801648575850189128945
:103DF000438950E0040F151F0E5F1F4F60177107B6
:103E000048F4DB012C9311968D010F5F1F4F04873F
:103E100015873C93D0010895BA93AA93382E022EA9
:103E2000F801248535852687378721883289622DD8
:103E300022192350208B732F6F5F7F4F6487758704
:103E400080818068E22DF32F8083262FFB01008282
:103E5000F8016089E22FF72F618362E8F801218978
:103E60003289248735872081222381F424852F5F9E
:103E70003F4F248735870AC0D9012D91A487B58784
:103E80006227E62FF0E0EA52FF4F6491F8012485A3
:103E90003585068417842015310570F3F901608398
:103EA000F80121893289248735872081222329F44A
:103EB00024852F5F3F4F2487358720E02387218388
:103EC00024E0228700ECFA010083832DA991B991A7
:103ED0000895AA939A938A93C801A22F06E110E04D
:103EE0000E94F120202F212B21F04A2F9C0107D086
:103EF00002C000E010E089919991A9910895BA93C8
:103F0000AA939A938A93D801C901242F0E944E1E26
:103F1000A093950AB093960A189A1098199A119A34
:103F200006E00093950089B99093900008ED0AB9D6
:103F30008D0189919991A991B9910895BA93AA9304
:103F4000FA93EA936A935A934A933A932A931A9369
:103F50000A936FB70CB1E091950AF091960A11811E
:103F6000163009F454C0003C41F401E0018300859F
:103F700011850383148300E003C00B3D19F401E0B5
:103F8000028345C02281222349F00D3D11F40BED3F
:103F900003C00C3D61F500EC20E022831150F9F0E4
:103FA0001A9571F11A9559F01A9589F52381348182
:103FB000458156812417350729F516E022C014E003
:103FC00011831389101708F4012F2085318510E023
:103FD000200F311F2D5F3F4F2583368313C012E022
:103FE000118307FB3EF40F771081011759F000E0B1
:103FF00001830DC010E0A381B4811D93A383B4831A
:1040000013E01183A381B4810D93A383B4836FBFA5
:104010000991199129913991499159916991E991A0
:10402000F991A991B9911895BA93AA93FA93EA9341
:104030006A935A934A933A932A931A930A936FB7BF
:10404000E091950AF091960A0285043041F5A48525
:10405000B5850D91A487B587003C11F00B3DA1F407
:104060001385112351F40BED11E013872485358559
:10407000215030402487358707C0003C11F40CEDF7
:1040800001C00DED10E013872685378544855585E1
:104090002417350710F415E012870CB902C006E0AA
:1040A0000287B5CF2197AE010E940C1F08810CB981
:1040B000219608950C944A2101E010E00C944A21C5
:1040C0000FE70DBF0AE00EBFC0E0D4E00E94ED2074
:1040D000002311F00E941D210E944F0B0E948C2092
:1040E0000C945A20E199FECF08954F5F5F4FFADF9D
:1040F0004EBB5FBBE09A0895FADF0DB308954F5FA2
:104100005F4F4EBB5FBBF894E29AE19A0FBE0895F1
:104110000FB6E8DF0DBBF5CF0C945A204A951AF084
:10412000000F111FFBCF08954A951AF016950795B9
:10413000FBCF0895002411241001E0E2EA9592F0EB
:10414000001F111F221F331F001C111C221C331CB7
:10415000041615062606370688F3041A150A260AD9
:10416000370AECCF001F111F221F331FA001B1011E
:1041700000951095209530950895FF27772312F428
:10418000F16015D0332312F4F09509D00E949A20E3
:10419000F69508F404D0F69508F409C00895309512
:1041A0002095109501951F4F2F4F3F4F0895709503
:1041B0006095509541955F4F6F4F7F4F0895BA932B
:1041C000AA939A938A930895BB81AA819981888141
:1041D000F0E0EC0FFD1FEF01089501E008950C944D
:1041E000F1209A938A93C80102C00E940D218C018C
:1041F0000E940322202F212B69F4E7E9FAE02081B5
:10420000318100E02030300781F3E091970AF32FED
:104210000995EDCF8991999108950C945C2020E047
:1042200006D0E9F70895259102D0E9F708952D9376
:1042300001501040202F212B089586EB94E4FC01BF
:1042400005911491FC013296A591B491FC0134962C
:1042500025913491422F432B19F0F901E4DF01C07D
:10426000DEDF069614E4823C910748F30895E9E9FD
:10427000FAE000811181012B19F000E010E00895AF
:1042800000E014E00083118320E036E0F801208391
:1042900031830895FFCF0D01D801012B09F452C0DD
:1042A0001297ED91FC911197349708F44BC00BE9EC
:1042B0001AE0F80150D019F0A217B30728F4FD0155
:1042C00022833383F80123C0F90145D019F02A175E
:1042D0003B07D0F3408151819F01240F351FA21766
:1042E000B30780F12A173B0741F42D913C91420F0F
:1042F000531F40835183DF010CC02DD021F024D007
:1043000026173707F8F012962D933C931397A28344
:10431000B383FD0120D0B1F017D06217730791F479
:1043200040E0F80140834183F901008111814D9102
:104330005C91400F511F5C934E9302811381FD01EC
:1043400002831383D00108954D915C911197BD01B3
:10435000640F751F089522813381422F432B0895E6
:104360000E94DF20C80104C00E5F1F4F0E944B2136
:10437000EBE9FAE0A081B1810A2F0B2B59F4ADE9EA
:10438000BAE02FD021F137D000F530D0FACF33D0BA
:10439000E0F42CD026D0D9F7EBE9FAE00081F181E6
:1043A000E02F00811181ADE9BAE001C01FD02D914D
:1043B0003C9111972017310751F0ED91F32F119790
:1043C000208131812817390788F38D0107C00E94A9
:1043D0003721202F212B41F600E010E0E4E00C947F
:1043E000E4200D911C911197012B0895FD01A081EE
:1043F000B18112960895ED91F12F119700811181ED
:104400000817190708950E94DF20C80102960817AF
:10441000190758F4843000E0900710F484E090E02D
:104420008C019EDF202F212B19F400E010E03EC00C
:10443000F80120813181F901A081B1811497A81779
:10444000B90730F422813381D8012D933C9316C0F3
:10445000280F391FD8012D933C934281538127D0D7
:104460004D935C9340815181481B590BD8012D918C
:10447000BC91A22F4D935C9380839183D8012D91A1
:104480003C91232B59F013D02D913C91232B31F0EB
:10449000D8010D911C910E5F1F4F02C000E010E08B
:1044A000ABE9BAE00D931C9332968F0197CFD801F8
:1044B0002D91D9019ECF1D00820A00000200800AC2
:0444C000C244E80307
:00000001FF
:00000001FF
