:100000000C94331D189518951895189518951895F2
:10001000189518950C94EC0C18951895189518953A
:100020001895189518951895189518951895189568
:100030001895189518951895189518951895189558
:100040000C94000D189518950C94711C1895189522
:100050000C94E71C189518951895189518951895EF
:1000600018951895189518950C944213189518958D
:100070001895189518951895189518951895189518
:100080001895189518951895189518957908452D6F
:10009000303034006F0D1300000800000B000A0020
:1000A0000000000001000500000000000007000043
:1000B0000000000004020C0000000000000000002E
:1000C0000000000000000000000000000000000030
:1000D000000000000000005EBCE2613FDD83C29CC6
:1000E0007E20A3FD1F419DC3217FFCA2401E5F0116
:1000F000E3BD3E6082DC237D9FC1421CFEA0E1BFC8
:100100005D0380DE3C62BEE0025CDF81633D7C22F9
:10011000C09E1D43A1FF4618FAA427799BC584DA27
:100120003866E5BB5907DB856739BAE406581947D5
:10013000A5FB7826C49A653BD987045AB8E6A7F987
:100140001B45C6987A24F8A6441A99C7257B3A64B9
:1001500086D85B05E7B98CD2306EEDB3510F4E10E7
:10016000F2AC2F7193CD114FADF3702ECC92D38D95
:100170006F31B2EC0E50AFF1134DCE90722C6D3347
:10018000D18F0C52B0EE326C8ED0530DEFB1F0AE79
:100190004C1291CF2D73CA947628ABF517490856A7
:1001A000B4EA6937D58B5709EBB536688AD495CB55
:1001B0002977F4AA4816E9B7550B88D6346A2B7507
:1001C00097C94A14F6A8742AC896154BA9F7B6E839
:1001D0000A54D7896B35380309030E03660371038C
:1001E00020034F038703D103DA03070430042609F1
:1001F00028094009760C760C51095E0970098409BA
:100200009A09D109F1090C0A2F0A6B0A3A0BCD0B96
:10021000610C680C01152815661528150115A9151E
:10022000D615031630167D16CA15F7155F16681613
:10023000169A209161002061209361002091620054
:100240002860209362002091610028602093610063
:10025000209162002460209362002091610024605C
:100260002093610021E0F801258320E02483089594
:10027000F801248325810481202B0091620011F074
:10028000046001C00B7F009362000895F80134817F
:1002900021E0322734830581032BEFCFF80125833A
:1002A000EACF22230091620039F4086000936200D3
:1002B000009162000F7E06C0077F009362000091EC
:1002C00062000061009362000895222311F01E9ADB
:1002D00008951E98089500E01091620012FD01E05B
:1002E0001091620014FD02601E9904600895BA9393
:1002F000AA93D801BA9A01E0EA2FF12F058300E012
:100300000683078300ED17E00E941913FD010183A6
:10031000128321E0F80126830E9495138D01A99193
:10032000B9910895BA93AA93D80117960C9117978B
:10033000002359F411960D911C9112970E94B81345
:10034000002319F001E017960C93A991B991089533
:10035000BA93AA938A93D801822FF80106810217D3
:1003600069F0222311F0C29A01C0C29800E007830D
:10037000018112810E949513FD0186838991A991C3
:10038000B9910895F80105810895F801068108954D
:10039000F80107810895AD01F80123833483238197
:1003A000A181B28113962D933C93DA010895F8014F
:1003B000038114810895BA93AA93D80140ED57E0C0
:1003C00022E00091820A1091830A0E944B06139644
:1003D0000D931C931397ED91FC9115962C9122236C
:1003E00029F498018F010E949F1302C00383148394
:1003F000A991B9910895F8014381548122E00091B7
:10040000820A1091830A0C946706BA93AA93D801C2
:100410000E94900401E010E00E94C41D202F212BB7
:1004200039F00E941B060093820A1093830A05C0CC
:1004300000E00093820A0093830A01E110E00E9429
:10044000C41D202F212B19F00E944A0802C000E091
:1004500010E00D931D930CE010E00E94C41D202FAE
:10046000212B19F00E94C10C02C000E010E00D9396
:100470001C931D9600E00D930C931D9704E010E073
:100480000E94C41D202F212B19F00E94A60D02C02E
:1004900000E010E00D931C93139609E210E00E9417
:1004A000C41D202F212B19F00E94E11302C000E08F
:1004B00010E00D931C9313970FE010E00E94C41DF1
:1004C000202F212B19F00E94A30702C000E010E0AA
:1004D0000D931C93139600E00C9312960D930D93BD
:1004E0000D930C93139601E00C9352978D01DFD17D
:1004F00030E02FEF16960D911C9111970E94F7078F
:100500000D911C9111970E94BE0708EE13E00E9406
:10051000701334E02FEF0D911C9111970E94F70793
:100520000D911C9113970E94BE070D911C91159778
:100530000E94E80D8D01A991B9910895BA93AA93EB
:10054000D8010D911C9111970E943507FD01028180
:1005500013810E943507FD01048115810E94C70D9A
:10056000FD01008511850E94A1140D911C91119728
:100570000E949907002321F00D911C9111970AC048
:10058000FD01028113810E949907002359F0FD01AA
:1005900002811381F8012581FD01208BF80106817C
:1005A000FD01018BFD0100891189183039F40230F9
:1005B00029F401E0008B09E0018B02C0013019F43D
:1005C00021898D010FD08D010E94C1048D010E94EF
:1005D000D3048D010E94FC0500E0FD01008BA99170
:1005E000B9910895BA93AA938A93D801822FF801FA
:1005F000048115810E94EC0D8A958C3008F038C179
:10060000F2E08F9FF001EA52FE4F05901490F00146
:10061000099400E0FD01048706876EC0FD0101A179
:1006200002FF06C000E006870485033009F4EDC030
:1006300001E004870685002309F4E7C02CE03FC0F1
:1006400002E0FD01048701A102FF02C000E006876D
:1006500020E01896ED91FC91199705A116A10E9432
:100660006501FD010685002309F4CFC02DE027C0F8
:1006700003E0FD01048701A101FF02C001E006873C
:1006800021E01896ED91FC91199705A116A10E9401
:100690006501FD010685002309F0D9C0B6C0FD0142
:1006A000168501E01027168709F4AFC004850130D4
:1006B00029F0023019F0033009F0DAC024E0008597
:1006C00011850E94ED1821E0FD0166C0FD01048541
:1006D000073019F001A103FD02C005E00CC007E0DE
:1006E0000AC0FD010485083019F001A103FD02C014
:1006F00006E001C008E0048720E01896ED91FC9127
:10070000199705A116A10E946501FD017EC0FD019A
:100710000485033069F420E01896ED91FC91199757
:1007200005A116A10E94650101E0FD01048702C038
:10073000013049F401E0058701A103FF02C008E090
:100740000CC006E00AC0023061F402E0058701A196
:1007500003FF02C007E001C005E0048701E007874E
:1007600011C0073011F0083041F401A105FF05C0A8
:1007700021E0008511850E94F618FD010785002300
:1007800009F476C02485008511850E94ED18FD01CD
:1007900001A104FF6DC021E0008511850E94F618BB
:1007A00067C0FD010785002381F10585048700E00E
:1007B00007872BC01896ED91FC91199707A110A5FA
:1007C0000E94C501002399F002E0FD01048720E0AA
:1007D0001896ED91FC91199705A116A10E9465014B
:1007E000FD0101A102FF0EC000E006870EC0FD0161
:1007F00001A102FF05C000E006870485033029F04F
:1008000001E004870685002331F6248524C0FD011C
:100810000485033069F1013039F402E0048706856C
:100820000023B9F422E017C0023039F401E0048754
:100830000685002361F421E00EC01896ED91FC912D
:10084000199707A110A50E94C501002311F02CE003
:1008500001C02DE0FD01008511850E94ED1808C042
:100860001896ED91FC91199705A116A10E944601D9
:1008700001E0FD01028B8991A991B9910895BA9384
:10088000AA93D80191962C935D9726FB20E020F93E
:1008900001E020270D911C911D960E94E00D01E0C2
:1008A0000C93A991B9910895F80101A10895BA9303
:1008B000AA93D80130E022E30091820A1091830AC2
:1008C0000E94300691960C935D9706FB20E020F97C
:1008D00001E020270D911C9113960E94E00D0D91CF
:1008E0001C910E94151AA991B9910895BA93AA93DF
:1008F000D80191963C91599722E30091820A109178
:10090000830A0E943D060D911C910E94671A009176
:10091000820A1091830A0E948806A991B9910895CC
:1009200000916500016000936500009164000E7FF6
:100930000093640000916400006100936400909A49
:100940008898919A8998929A8A98939A8B9AD29A2F
:10095000D19AD09A009161000068009361000091E3
:1009600061000064009361000091610000620093E7
:100970006100C19AB998A89508E101BD0CE001BDDC
:10098000089520E0F80123872091940A222351F052
:100990002285239522872A3029F420E0228721E02E
:1009A0002387A8950895BA93AA93D8011B960C9112
:1009B0001B97002309F41DC116960D911D910E94ED
:1009C000BE070D911C9119960E9426191C915297F1
:1009D000112331F453961C915397101709F409C150
:1009E00053960C9300E00E931C9734E02FEF0D917B
:1009F0001C911C960E94F7070C91539700FF12C0A0
:100A000002FF02C031E001C033E016960D911C9147
:100A10001C962C91539721FF02C020E201C024E0D4
:100A20000E94F7071C960C911C970023A1F00A95D1
:100A300001F10A9591F10A9509F443C0025009F4B5
:100A40004FC00A9509F45BC00A9509F467C00A957E
:100A500009F487C0AEC016960D911C911C962C917E
:100A6000539724FF03C030E022E0A1C034E020E02F
:100A70009EC01E960C911E97002339F091960C9102
:100A8000919700FF02C032E006C053960C91539735
:100A900002FF8FC030E024E086C01E960C911E97A6
:100AA000002339F091960C91919700FF02C032E03B
:100AB00006C053960C91539702FF7BC030E020E2B2
:100AC00072C01E960C911E97002339F091960C91DE
:100AD000919700FF02C032E001C030E025E063C022
:100AE0001F960C911F97002341F030E020E21696EC
:100AF0000D911C9117970E94F70730E030C01F96A8
:100B00000C911F97002341F030E024E016960D91E0
:100B10001C9117970E94F70730E044C01F960C9174
:100B20001F97002341F030E020E216960D911C91B2
:100B300017970E94F70753960C91539706FF0EC024
:100B400016960D911C911C962C91539733E021FF22
:100B500002C020E201C024E00E94F70732E028E052
:100B600022C01F960C911F97002341F030E024E033
:100B700016960D911C9117970E94F70753960C91AA
:100B8000539706FF0EC016960D911C911C962C9142
:100B9000539733E021FF02C020E201C024E00E940D
:100BA000F70732E020E116960D911C9117970E94ED
:100BB000F70753960C9153970872083241F433E0CB
:100BC00022E016960D911C9117970E94F7071E962A
:100BD0000C911E97002369F016960D911C915A9660
:100BE0002C9120FF02C032E001C030E020E40E94DE
:100BF000F707A991B9910895BA93AA93D8011B96C2
:100C00000C911B970023A1F018960D911C91199738
:100C10000E946519002361F000E01C960C93169663
:100C200001E00C931A9729E00D911C910E94ED1898
:100C3000A991B9910895BA93AA93D80101E00C93B0
:100C400040E050E020E00A2F26D00A3D1E4B11F470
:100C500001E001C000E00C938D01A991B9910895C4
:100C6000F8010081002339F030E040E050E0420F0D
:100C7000531F0C944F1D032F089510E040E050E0E7
:100C8000420F511F0E944F1D031721F0032F0E9496
:100C90005B1DA89508952297F8010081002389F033
:100CA00030E040E050E0420F531F0E944F1D088388
:100CB000239540E050E0420F531F0E944F1D0983CF
:100CC00002C048835983088119812296089522978A
:100CD00048835983188130E040E050E0420F531FB1
:100CE0000E944F1D011721F0012F0E945B1DA89546
:100CF0001981239540E050E0420F531F0E944F1D81
:100D0000011721F0012F0E945B1DA89522960895DE
:100D1000BA93AA93D8014AED5EEB20E0D8DF40E019
:100D200050E020E08D01B7DF0A3D1E4B11F401E0D9
:100D300001C000E00C93A991B991089520E0F80159
:100D400020830895BA93AA93D8011A9812981B98F1
:100D5000139800E0EA2FF12F0283038308EC10E0E0
:100D60000E941913FD010683178321E0F8012683F1
:100D70008D01A991B9910895BA93AA93D801459B81
:100D800002C021E001C020E016960D911C9115973C
:100D90003C911297321729F012962C930E949513CA
:100DA00007C00E94B813002319F012960D910C93FE
:100DB000A991B9910895F80103810895AD01F80151
:100DC000248335832481A681B78113962D933C9388
:100DD000DA010895F801048115810895BA93AA9360
:100DE000D80148EC50E024E00091820A1091830A77
:100DF0000E944B0614960D931D93ED91FC91038375
:100E00001483A991B9910895F8014481558124E092
:100E10000091820A1091830A0C946706BA93AA93F0
:100E2000D80100E0EA2FF12F028302E0058303835B
:100E300000E00483068307E010E00E94C41D202F19
:100E4000212B29F020E030E00E94871302C000E04F
:100E500010E00D931C93119701E0ED91FC91119717
:100E600006838D01A991B9910895BA93AA938A93A3
:100E7000D8010091940A002309F457C00A2F17964D
:100E8000ED91FC9118972591F491E22F0995802F0F
:100E9000FD010481801759F022E330E00D911C918F
:100EA00011970E949F13FD01848301E03DC00281E0
:100EB0000023D9F10D911C9111970E94B8130023C2
:100EC000A1F1FD0102810130E1F48823C1F0058127
:100ED000023049F002E0058322E330E00081118115
:100EE0000E949F1322C0868301E0058328EE33E031
:100EF0000D911C9111970E949F1302E00EC002E019
:100F000011C0023061F403E0058328EB3BE00D9152
:100F10001C9111970E949F1303E0FD0105C003304F
:100F200021F404E0058300E002838991A991B9913D
:100F30000895F80125813381321711F400E00895F6
:100F4000238301E00895BA93AA93D801A09AA29AA4
:100F5000A49AA59AA79AD79AD59A00E017960C93C7
:100F600012960C930E9316960C931E9734E02FEF67
:100F70000A2F3DD08D01A991B9910895F8012285DC
:100F80001385112331F40485002319F4058500230A
:100F900011F10781053608F4212B03950783083CDE
:100FA00011F400E007830185033310F40485202B3E
:100FB000018503950187043611F400E0018700855F
:100FC000093010F40585202B00850395008700313A
:100FD00031F400E003C000E0078301870087068545
:100FE000021721F026878F010E9426080895F80134
:100FF000022F00953323128571F4122B128713856B
:1010000010231387323071F41485122B1487158541
:1010100010231587089510231287313081F7138527
:10102000122B1387148510231487333081F705851D
:10103000022B05870895F8014285538564857585DF
:10104000F9014083518362837383089522FB16F470
:10105000AC9A01C0AC9825FB16F4DF9A01C0DF986A
:1010600026FB16F4DD9A01C0DD9820FB16F4A89A41
:1010700001C0A89823FB16F4AD9A01C0AD9824FBDB
:1010800016F4AF9A01C0AF9821FB16F4AA9A0895FE
:10109000AA980895BA93AA93D8010E940E070CE863
:1010A00010E017960D931C9318970091650002604D
:1010B00000936500009164000D7F00936400A99A7D
:1010C000A198AB9AA398AE9AA69800916500046087
:1010D00000936500009164000B7F00936400DE9A2A
:1010E000D698DC9AD498DB9AD3988D01A991B991BE
:1010F000089510E00091630001FF11E0999B1260D8
:101100009B9B14609E9B18600091630002FF10611E
:10111000CE9B1062CC9B1064CB9B106800E01058F3
:10112000E9F0125879F0125079F01A9549F01350FD
:1011300069F0185069F0105169F0105269F0089583
:1011400001E0089502E0089503E0089504E00895A1
:1011500005E0089506E0089507E0089508E0089581
:10116000BA93AA930E942B1302E210E00E94C41DBE
:10117000A4E8BAE0202F212B29F00E9405020D934C
:101180001C9303C000E00D930C93119702E010E054
:101190000E94C41D202F212B31F00E94F3081296CB
:1011A0000D931C9304C000E012960D930C931397BB
:1011B0000E945A130D911D910E949E020D911C9147
:1011C00013970E940209F4CF1D9A1598C39ABB9AEF
:1011D0000895222311F0C39A0895C398089500E05A
:1011E0000D9901E00895BA93AA93D80128E104E388
:1011F00010E00E943C1C0D931C9311978D01A99146
:10120000B9910895DA92CA929A928A927A926A92DF
:101210005A924A92BA93AA939A938A932497D8019E
:101220000D911C9111970E94471B902F002309F4E8
:1012300068C30A95033108F059C3F2E00F9FF0012B
:10124000E251FE4F05901490F001099421E04FC344
:101250000D911C9111970E94921B002309F44CC31D
:10126000802F0D911C9111970E94951B202F0D919D
:101270001C9111970E94AE1B8A9509F43DC3F1CFD2
:101280000EE8402E00E0502EF2010491002309F4F4
:1012900033C325912F010D911C9111970E94AE1B14
:1012A000F3CF0D911C9111970E94951B202F009157
:1012B000840A1091850A0E94F20216C30D911C91B6
:1012C00011970E94951B202FE091840AF091850AC6
:1012D0000085F185E02F008111810E94AA1004C3CE
:1012E0000D911C9111970E94951B01FB20E020F9A4
:1012F000E091840AF091850A0085F185E02F07A12D
:1013000010A50E94A801F0C20D911C9111970E9496
:10131000951B002311F021E001C020E0E091840A38
:10132000F091850A0085F185E02F028113810E94EA
:10133000E908DAC20D911C9111970E94951B802F2C
:10134000E091840AF091850A0085F185E02F0681FD
:10135000178180FB1EF40E948F0C02C00E94A80C13
:10136000E091840AF091850A0085F185E02F0085DF
:10137000118581FB1EF40E949A0C02C00E94B30CDE
:10138000E091840AF091850A0085F185E02F0285BD
:10139000138582FB1EF40E94A10CA6C20E94BA0C07
:1013A000A3C20D911C9111970E94951B802F0D9146
:1013B0001C9111970E949E1B68010D911C91119721
:1013C0000E949E1BA601B801282FE091840AF0918B
:1013D000850A0085F185E02F008111810E944B1163
:1013E00083C20D911C9111970E94951B202FE091B3
:1013F000840AF091850A0085F185E02F0081118132
:101400000E9468112801390120E00D911C9111976B
:101410000E94AE1B920122C10D911C9111970E9456
:101420009E1B9801E091840AF091850A0085F18560
:10143000E02F008111810E9419110D911C911197CB
:101440000E949E1B9801E091840AF091850A008514
:10145000F185E02F008111810E942F1145C20D916D
:101460001C9111970E94951B802F202F2170E091D5
:10147000840AF091850A0085F185E02F05A116A167
:101480000E944E0181FB20E020F9E091840AF09156
:10149000850A0085F185E02F05A116A10E94510162
:1014A00082FB20E020F9E091840AF091850A008512
:1014B000F185E02F05A116A10E94650120E0E091D1
:1014C000840AF091850A0085F185E02F05A116A117
:1014D0000E94380109C220E00D911C9111970E94D1
:1014E000AE1B9E01E091840AF091850A0681178166
:1014F0000E941B0828810D911C9111970E94AE1B20
:1015000029810D911C9111970E94AE1B2A810D918A
:101510001C9111970E94AE1B2B810D911C9111976C
:101520000E94AE1B80E00091650003FD81E0C4993C
:10153000826094998460E091840AF091850A008524
:10154000F185E02F028113810E94EF08002309F04A
:101550008860E091840AF091850A0085F185E02F8A
:10156000048115810E94DB06002309F08061E0916F
:10157000840AF091850A0085F185E02F07A110A566
:101580000E94C201002309F08062E091840AF09178
:10159000850A0085F185E02F07A110A50E94C501ED
:1015A000002309F08064E091840AF091850A0085A7
:1015B000F185E02F07A110A50E94C801002309F0C2
:1015C0008068282F0D911C9111970E94AE1BE0910D
:1015D000840AF091850A0085F185E02F05A116A106
:1015E0000E946B01202F0D911C9111970E94AE1B40
:1015F000E091840AF091850A0085F185E02F008151
:1016000011810E94F910202F0D911C9111970E94B9
:10161000AE1BE091840AF091850A0085F185E02FE8
:10162000008111810E947211390198010D911C9164
:1016300011970E94C51B93010D911C9111970E9457
:10164000C51BE091840AF091850A0085F185E02FA1
:10165000008111810E944511390198010D911C9161
:1016600011970E94C51B93010D911C9111970E9427
:10167000C51B42C10D911C9111970E94951B802E94
:101680000D911C9111970E94951B902E0D911C910C
:1016900011970E94951BA401602FE091840AF0919C
:1016A000850A0085F185E02F008111810E94FC10E0
:1016B0000D911C9111970E949E1B9801E091840A44
:1016C000F091850A0085F185E02F07A110A50E9401
:1016D000CB010D911C9111970E949E1B9801E091E6
:1016E000840AF091850A0085F185E02F0481158137
:1016F0000E94DE060D911C9111970E949E1B98017D
:10170000E091840AF091850A008511850E94F21902
:101710000D911C9111970E949E1BE091840AF091FB
:10172000850A2085F185E22F038B148B0D911C9186
:1017300011970E949E1BE091840AF091850A2085F2
:10174000F185E22F058B168B0D911C9111970E944C
:101750009E1BE091840AF091850A2085F185E22F95
:10176000078B108F0D911C9111970E94951B202FB4
:10177000E091840AF091850A0085F185E02F258F9C
:101780000D911C9111970E94951B202F0091840AA6
:101790001091850A0E943F04A7C020E00D911C9182
:1017A00011970E94AE1BE091840AF091850A008592
:1017B000F185E02F008111810E941411512E622EBB
:1017C000202F0D911C9111970E94AE1B252D0D917C
:1017D0001C9111970E94AE1B262D0D911C91119703
:1017E0000E94AE1BE091840AF091850A0085F18584
:1017F000E02F07A110A50E94D70198010D911C911F
:1018000011970E94C51BE091840AF091850A00851A
:10181000F185E02F048115810E94EA0698010D915F
:101820001C9111970E94C51BE091840AF091850AD2
:10183000008511850E94111A98010D911C91119734
:101840000E94C51BE091840AF091850A0085F1850C
:10185000E02F238934890D911C9111970E94C51B9B
:10186000E091840AF091850A0085F185E02F2589B1
:1018700036890D911C9111970E94C51BE091840A35
:10188000F091850A0085F185E02F2789308D0D9133
:101890001C9111970E94C51BE091840AF091850A62
:1018A0000085F185E02F258D0D911C9111970E94E7
:1018B000AE1B0091840A1091850A0E945404202FC7
:1018C00016C00091840A1091850A0E9476040CC00B
:1018D0000091820A1091830A0E949E060091840A58
:1018E0001091850A0E94570420E001C024E00D9168
:1018F0001C9111970E94AE1B292F0D911C910E94E3
:10190000251D249689919991A991B9914990599051
:101910006990799089909990C990D9900895209173
:101920006500286020936500969AF8010081118176
:101930000C949513C49A979AF801008111810C9424
:101940009513949A959AF801008111810C9495133E
:1019500020916500277F209365009698F80100810B
:1019600011810C94A813C4989798F80100811181F3
:101970000C94A81394989598F801008111810C9407
:10198000A813BA93AA93D8010E940E0704E910E0A5
:10199000FD01078310871C9A149808E710E00E9445
:1019A0001913FD010287138721E0F80126830FEF49
:1019B00000938C0AFD01018704E003BF2ABF03E006
:1019C00000938A0A02E202BF26BF07B7016007BF81
:1019D0008D01A991B99108951A930A931FB709B778
:1019E0000F7E09BF01E902BF01E006BF07B7016032
:1019F00007BF01E000938A0A1FBF0991199118954A
:101A0000FA93EA934A933A932A931A930A933FB725
:101A10000C9B02C021E001C020E0E8E8FAE002816E
:101A2000023011F403E002830281002329F52683AA
:101A300000E108BF09B7006109BF02E202BF01E08F
:101A400006BF07B7016007BF02E0028305810A9560
:101A5000058391F446E0008111810E94671D0F719A
:101A6000038300810F730483018103FF03C004819A
:101A70000068048303E0028302810130C1F406811F
:101A8000201799F000811181000F111F008311832D
:101A9000222311F40160008302E202BF01E006BFCD
:101AA00007B7016007BF00E001C003E002830281C5
:101AB000033061F40EE0058301E0068307B70E7F73
:101AC00007BF00E108BF09B7006109BF3FBF099127
:101AD0001991299139914991E991F9911895BA9300
:101AE000AA939A938A93D8018FEFE8E8FAE0948159
:101AF00003819F3FA9F0033199F48483EA2FF12FEA
:101B0000028513850E949513FD010185901709F444
:101B1000892FFD0191878F77803468F080E010C0B5
:101B2000EA2FF12F9185028513850E94B8130023B7
:101B300079F39FEFEECFF0E0E82FE956FF4F849165
:101B4000082F89919991A991B9910895BA93AA936F
:101B5000D80107E010E00E94C41D202F212B29F09E
:101B600020E030E00E94871302C000E010E0FD0199
:101B70000183128321E0E181F12F26830CE205BD70
:101B8000BF9AFD0123838D01A991B9910895F801B0
:101B9000018112810E94B813002311F00CE205BDEF
:101BA0000895F8013381332341F023BD9A01018167
:101BB00012810E949F130CE101C00CE205BD089543
:101BC000F80123830381002311F40CE205BD08957D
:101BD00044E650E02FE1E5CF48E250E02FE1E1CFCD
:101BE00040E0F80144834583468347834083418333
:101BF0004283438340870895FA92EA92DA92CA9226
:101C0000BA92AA929A928A927A926A925A924A9234
:101C1000BA93AA939A938A93202E7901F801C080EF
:101C2000D180A60160E070E0890120E030E084808E
:101C30009580A680B7804084C801A0E0B0E08C19F0
:101C40009D09A040B040B49DB02DA49DA02DB10D24
:101C5000949D902DA10DB61F849D910DA61FB61FBA
:101C6000402C82E38B9FB02D8A9FA02DB10D899FC0
:101C7000902DA10DB61F849D910DA61FB61F801833
:101C8000990AAA0ABB0A418483859485A0E0B0E042
:101C9000801B910BA040B040B49DB02DA49DA02D01
:101CA000B10D949D902DA10DB61F849D802D910D99
:101CB000A61FB61F880F991FAA1FBB1F880D991D4D
:101CC000AA1DBB1D2C013D01EFEF4E0E5E1E6E1EC8
:101CD0007E1EEBE04E16EEEF5E06E3EF6E06E1E0F1
:101CE0007E06E0F5E22D4284440F551F661F041B5B
:101CF000150B260B304042815381040F151F271FFF
:101D0000371F349D302D249D202D310D149D102D15
:101D1000210D371F049D110D271F731F402D512FBB
:101D2000622F02EE14E0E0E0129F302D079F300D8D
:101D3000159F202D310D069F200D311D149F102D54
:101D4000210D3E1F059F100D211D3E1F049F110DEB
:101D50002E1F3E1F8019910BA20BB30BBB232AF43D
:101D600080E090E0A0E0B0E00CC08D300EEF900776
:101D700003EFA00701E0B00724F08CE09EEFA3EF93
:101D8000B1E0E22D84839583A683B783C282D38298
:101D9000E082F18244EF51E060E070E08C019D014F
:101DA0000E94901D89919991A991B991499059905A
:101DB0006990799089909990A990B990C990D9909B
:101DC000E990F9900895BA93AA93D801009161001F
:101DD0000D7F00936100009161000E7F0093610010
:101DE000BE9ABD9AB89A179A0DE010E00E94C41DE1
:101DF000202F212B11F0F4DE02C000E010E05796F6
:101E00000D931D930DE010E00E94C41D202F212B87
:101E100011F0E6DE02C000E010E00D931C9358972D
:101E200004E00D9300E00D930C9311960D930C9329
:101E300011960D930D930D930C9311960D930C9396
:101E4000119601E807B907EC06B90FEF1FE317BDBC
:101E500006BD00E00D930C9311960FEF19BD08BD60
:101E600000E00D930C9350970FEF1BBD0ABD02EFDE
:101E70000FBD09E10EBD20E08D016CD18D01A9914E
:101E8000B9910895BA93AA93D8010091940A0023B6
:101E900009F458C007B1013804B115B151F41396D3
:101EA0002D913C91200F311F3C932E93139700E806
:101EB00009C015962D913C91200F311F3C932E9314
:101EC000159701E807B907EC06B912960C9112971D
:101ED0000230B1F42FEF3FEF13960D911C91159640
:101EE00045E00E94611D201B310B2D933C931397FD
:101EF00001E00C93149700E00D930C93149717C016
:101F00000130A9F42FEF3FEF15960D911C91159616
:101F100045E00E94611D201B310B2D933C931497CB
:101F200001E00C93139700E00D930C931697129613
:101F30000C910A950C931297002321F404E0129659
:101F40000C93129711960C9111970A9561F00A95CE
:101F500071F10A9509F44EC00A9509F479C00A9501
:101F600009F44AC0B6C017960C9117970023E9F000
:101F700019962D913C911D960D911C911B973CDE5D
:101F80000D931C931E974FEF5FEF60E070E0401BD6
:101F9000510B604070408A019B0144E050E060E0DA
:101FA00070E00E94901D19BD08BD189647C0189694
:101FB0000C911897002309F48CC01B962D913C912D
:101FC0001B960D911C911B9717DEA8010D931C9376
:101FD0001E970FEF1FEF20E030E060E070E0041B81
:101FE000150B2040304044E050E00E94901D19BD88
:101FF00008BD6FC017964DC018960C911897002316
:1020000009F467C01B962D913C911B960D911C9174
:102010001B97F2DDA8010D931C9316970FEF1FEF8E
:1020200020E030E060E070E0041B150B2040304001
:1020300044E050E00E94901D19BD08BD0C91189716
:10204000002309F446C01B962D913C911D9629C092
:1020500017960C9117970023E1F119962D913C9159
:102060001D960D911C911B97C7DDA8010D931C9324
:1020700017970FEF1FEF20E030E060E070E0041BE7
:10208000150B2040304044E050E00E94901D19BDE7
:1020900008BD0C9117970023E1F019962D913C9102
:1020A0001F960D911C911B97A7DDA8010D931C9302
:1020B00050970FEF1FEF20E030E060E070E0041B6E
:1020C000150B2040304044E050E00E94901D1BBDA5
:1020D0000ABD00E017960D930C93A991B99108954C
:1020E000BD01F8010789108D293069F426A137A1B7
:1020F0002C5C3C40D8011B962D933C9300A511A568
:102100000453134F20C02A3069F422A533A5245369
:10211000334FD8011B962D933C9304A515A50C5C59
:102120001C4011C034E0239F9F01200D311DD901B7
:102130005E964D915C91D8011B964D935C93D901AD
:1021400090960D911C91A18DB28D1B960D931C93B1
:10215000DB010895BA93AA938A93D801822FC0987D
:102160001F98BEDF082F882381F00150E8F103504B
:10217000E0F0E9F00A9539F10A9589F10A9589F1BB
:10218000025099F00A9589F02FC000E0FD01058703
:1021900006870FEF1FE319BD08BD00E00787008B1E
:1021A0000FEF1BBD0ABD00E01EC001E01BC000E038
:1021B000FD010787008B0FEF1FE31BBD0ABD02E087
:1021C0000183C09A11C000E0FD01058706870FEF6B
:1021D0001FE319BD08BD03E001831F9A05C005E098
:1021E00001C004E0FD0101838C938991A991B9910B
:1021F0000895F801008108959D01F801438F548FDF
:10220000658F438D548DA789B08D18964D935D933E
:102210006C93438D548D658DA18DB28D18964D9321
:102220005D936C93D9010895F801038D148D258D6C
:102230000895F801258736874FEF5FEF60E070E083
:10224000421B530B604070408A019B0144E050E008
:1022500060E070E00E94901D19BD08BD0895F8016E
:102260002787308B4FEF5FEF60E070E0421B530B2E
:10227000604070408A019B0144E050E060E070E003
:102280000E94901D1BBD0ABD0895F80105851685A5
:102290002785308908951D012830C0F434E0239F3C
:1022A000F801E00DF11D468F578F60A371A3F8016F
:1022B0003081231759F42789F08DE22F4387548703
:1022C000F801A18DB28D1B966D937C93D101089579
:1022D00034E0239F000D111DF801068D178D20A1FC
:1022E00031A10895F801018512852385348508956B
:1022F000F801268D378D018512852017310710F0E2
:1023000001E0089500E00895F80120A131A10385BE
:1023100014852017310710F001E0089500E00895BA
:10232000BA93AA93D80132E326E00091820A109171
:10233000830A0E9430065B960D933EE127E00091F0
:10234000820A1091830A0E9430060D9338E228E039
:102350000091820A1091830A0E9430060C93129712
:102360004D915D91602F5D978D0146DF4AE754E105
:1023700029E00091820A1091830A0E944B065E9622
:102380000D931D934AE754E12BE00091820A1091CE
:10239000830A0E944B060D931D934FEF5FE32DE0E0
:1023A0000091820A1091830A0E944B060D931D939F
:1023B0004FEF5FE32FE00091820A1091830A0E94A1
:1023C0004B060D931D934FEF5FE321E10091820ACD
:1023D0001091830A0E944B060D931D934FEF5FE30C
:1023E00023E10091820A1091830A0E944B060D930B
:1023F0001D934FEF5FE325E10091820A1091830A5C
:102400000E944B060D931D934FEF5FE327E1009170
:10241000820A1091830A0E944B060D931D934FEF81
:102420005FE329E10091820A1091830A0E944B0622
:102430000D931D934FEF5FEF2BE10091820A1091F6
:10244000830A0E944B060D931D934FEF5FEF2DE122
:102450000091820A1091830A0E944B060D931D93EE
:102460004FEF5FE32FE10091820A1091830A0E94EF
:102470004B060D931D9346E656E221E20091820A37
:102480001091830A0E944B060D931D934CEC5CE463
:1024900023E20091820A1091830A0E944B060D9359
:1024A0001D934CEC5CE425E20091820A1091830AB2
:1024B0000E944B060D931D9346E656E227E20091DB
:1024C000820A1091830A0E944B060D931C93A991D6
:1024D000B9910895BA93AA93D8015B963D9126E0ED
:1024E0000091820A1091830A0E943D063D9127E0E7
:1024F0000091820A1091830A0E943D063D9128E0D6
:102500000091820A1091830A0E943D064D915D91CF
:1025100029E00091820A1091830A0E9467064D917A
:102520005D912BE00091820A1091830A0E94670658
:102530004D915D912DE00091820A1091830A0E94D5
:1025400067064D915D912FE00091820A1091830AF8
:102550000E9467064D915D9121E10091820A1091E0
:10256000830A0E9467064D915D9123E10091820AE2
:102570001091830A0E9467064D915D9125E10091BB
:10258000820A1091830A0E9467064D915D9127E1AE
:102590000091820A1091830A0E9467064D915D9115
:1025A00029E10091820A1091830A0E9467064D91E9
:1025B0005D912BE10091820A1091830A0E946706C7
:1025C0004D915D912DE10091820A1091830A0E9444
:1025D00067064D915D912FE10091820A1091830A67
:1025E0000E9467064D915D9121E20091820A10914F
:1025F000830A0E9467064D915D9123E20091820A51
:102600001091830A0E9467064D915D9125E2009129
:10261000820A1091830A0E9467064D915C9127E21D
:102620000091820A1091830A0E946706A991B991CC
:1026300008959A938A93C80107E010E00E94C41D90
:10264000202F212B19F09C0162D002C000E010E085
:1026500089919991089509E000938A000FE71EE39C
:10266000109387000093860000E100937C000093A4
:102670007D00EFE8FAE000E000830183028303833A
:10268000789408957894FA93EA932A931A930A9384
:102690002FB7EFE8FAE0008111810F5F1F4F008331
:1026A000118301E004832FBF099119912991E991C8
:1026B000F99118952FB7F894EFE8FAE000811181AD
:1026C000028313830481058300E004832FBF0895F0
:1026D0002FB7F89400918F0A1091900A2FBF089598
:1026E000BA93AA939A938A93D801F2DFC801E2DFE2
:1026F000A8950091910A1091920A081B190B0A17CC
:102700001B07A8F389919991A991B991089540E087
:10271000F80145834683422F432B11F441E001C069
:1027200040E042832383348303C020E0F801228306
:102730002091910A3091920A208331830895F80103
:1027400023833483232B11F421E001C020E0EFCF59
:1027500021E0F801228308952091910A3091920A94
:10276000F80143815481241B350B20833183089564
:10277000F80126814091910A5091920A00811181BD
:10278000BA01601B710B038114816017710788F017
:1027900001E0222321F01281112309F000E011E071
:1027A00012831581112331F04083518310E012838D
:1027B000089500E0222321F41581112309F40281F8
:1027C0000895BA93AA93D8018D9A8C9A8E9A009103
:1027D00064000860009364008F9ABC9A02E010E0E5
:1027E0000E94C41D202F212B19F00E94AA1A02C09A
:1027F00000E010E016960D931D9302E010E00E9499
:10280000C41D202F212B19F00E94C31A02C000E022
:1028100010E00D931D9302E010E00E94C41D202FD4
:10282000212B19F00E94D81A02C000E010E00D938D
:102830001C935C9608E010E00E94C41D202F212B01
:1028400019F00E94770102C000E010E00D931C9384
:1028500098970EE310E00E94C41D202F212B19F041
:102860000E94E30E02C000E010E00D931D9302E011
:1028700010E00E94C41D202F212B19F00E94E408B3
:1028800002C000E010E00D931D9308E010E00E94EC
:10289000C41D202F212B19F00E94A20602C000E0C7
:1028A00010E00D931C93909606E010E00E94C41D6A
:1028B000202F212B19F00E94180102C000E010E027
:1028C0000D931C93559704E010E00E94C41D202F27
:1028D000212B19F00E94081B02C000E010E00D93AC
:1028E0001C931C9607E010E00E94C41D202F212B92
:1028F00029F020E030E00E94871302C000E010E0E1
:102900000D931C93129607E010E00E94C41D202F27
:10291000212B29F020E030E00E94871302C000E064
:1029200010E00D931C93569700E00D930D930C93BC
:1029300055960C9353970C9350978D01A991B9918B
:102940000895BA93AA93D801F801028513850E94CD
:10295000FF1AFD01068117810E94ED1AFD01008515
:1029600011850E94F61AFD0107A110A50E9492018F
:102970000D911C9111970E94420FFD010481158158
:102980000E94BC06FD0105851485101709F4D3C10A
:1029900026852017D9F0173021F4053049F41AE0C4
:1029A00005C0183029F4063019F41BE0178701C060
:1029B000078706870EE004875196ED91FC915297A8
:1029C00001E00183028113810E94AC135196ED91C5
:1029D000FC91529700E00083028113810E94B8139A
:1029E000002309F4A8C1FD0107850E3008F0A3C13A
:1029F000F2E00F9FF001EC5EFD4F05901490F001A6
:102A000009944AE050E021E08D0138D344E650E0DB
:102A100020E08D01F1D140E050E021E08D018ED227
:102A200025E08D01E6D28D01C4D220E08D01E1D2F6
:102A300040E951E020E08D014AD244E650E020E038
:102A40008D0111D244E650E020E08D0177D24CC1D7
:102A50004AE050E021E08D0111D340E050E020E059
:102A60008D016CD144E650E020E08D01C5D140E0FD
:102A700050E021E08D0162D225E08D01BAD28D01B6
:102A800098D220E08D01B5D240E951E020E08D01DF
:102A90001ED244E650E021E08D01E5D121E08D0118
:102AA000A8D28D01C0D28D0187D122E08D01A1D2A3
:102AB00044E650E029E08D0141D244E650E021E0B7
:102AC0008D019AD148EC50E022E03DC04AE050E050
:102AD00021E08D01D3D240E050E021E08D012ED1E4
:102AE00044E650E020E08D0187D140E050E021E055
:102AF0008D0124D225E08D017CD28D015AD220E0B7
:102B00008D0177D240E951E020E08D01E0D144E62B
:102B100050E021E08D01A7D121E08D016AD28D0125
:102B200082D28D0149D122E08D0163D244E650E08A
:102B30002AE08D0103D244E650E021E08D015CD112
:102B400048EC50E023E08D01F9D140E050E020E076
:102B5000D1C044E150E021E08D0190D244E650E044
:102B600020E08D0149D140E050E021E08D01E6D127
:102B700025E08D013ED28D011CD220E08D0139D29D
:102B800044E650E021E08D016ED121E08D0131D28B
:102B90008D0149D244E650E021E08D0198D140E01A
:102BA00050E024E08D01CAD123E0C1C044E150E0EF
:102BB00021E08D0163D244E650E020E08D011CD17C
:102BC00040E050E021E08D01B9D125E08D0111D226
:102BD0008D01EFD120E08D010CD244E650E021E0E0
:102BE0008D0141D121E08D0104D28D011CD244E63A
:102BF00050E021E08D016BD140E050E025E08D01F7
:102C00009DD124E094C044E150E021E08D0136D212
:102C100044E650E020E08D01EFD040E050E021E0BC
:102C20008D018CD125E08D01E4D18D01C2D120E050
:102C30008D01DFD144E650E021E08D0114D121E087
:102C40008D01D7D18D01EFD144E650E021E08D0117
:102C50003ED144E650E026E08D0170D123E02CC047
:102C600044E150E021E08D0109D244E650E020E04B
:102C70008D01C2D040E050E021E08D015FD125E020
:102C80008D01B7D18D0195D120E08D01B2D144E6FF
:102C900050E021E08D01E7D021E08D01AAD18D0126
:102CA000C2D144E650E021E08D0111D144E650E06C
:102CB00027E08D0143D124E08D019BD115C04AE06E
:102CC00050E021E08D01DAD14AE050E020E008C078
:102CD0004AE050E021E08D01D1D140E050E021E018
:102CE0008D012CD08D0168D040E050E0FD0120899D
:102CF00001E020278D01C2D11CC04AE050E021E054
:102D00008D01BCD140E050E020E08D0175D044E65B
:102D100050E020E08D0112D144E650E020E08D012A
:102D2000A2D044E650E020E08D01D1D020E08D011A
:102D300060D18D01D8D1A991B99108955A924A9242
:102D4000BA93AA938A93D801822F2A01F8010189A4
:102D5000F289E02F2081239520830181201731F50E
:102D6000EA2FF12F07A110A50E94C5010817A9F0AD
:102D7000282FFD0107A110A50E94A801282FFD0101
:102D800005A116A10E94510192015196ED91FC916D
:102D90005297028113810E949F13FD01A189B2897C
:102DA00011960C9103950C930FE70E938991A991BD
:102DB000B991499059900895BA93AA93D801519620
:102DC000ED91FC91529700810395008311810117C9
:102DD00081F4FD0107A110A50E94C801002349F05C
:102DE000FD01A189B28911960C9103950C930FE70F
:102DF0000E93A991B9910895BA93AA939A938A933D
:102E0000D801CA01F8010189F289E02F3081339598
:102E100030830181301711F500E0C49901E00217F9
:102E2000A1F0EA2FF12F00851185222319F00E94CD
:102E30009A0C02C00E94B30C9C015196ED91FC913A
:102E40005297028113810E949F13FD01A189B289CB
:102E500011960C9103950C930FE70E93899199911C
:102E6000A991B9910895BA93AA939A938A93D80194
:102E7000CA01F8010189F289E02F3081339530834E
:102E80000181301719F50091650003FB10E010F97E
:102E9000121799F0FD0106811781222319F00E9473
:102EA0008F0C02C00E94A80C9C015196ED91FC91E0
:102EB0005297028113810E949F13FD01A189B2895B
:102EC00011960C9103950C930FE70E93C7CFBA930D
:102ED000AA939A938A93D801CA01F8010189F289C9
:102EE000E02F3081339530830181301731F5EA2F9F
:102EF000F12F0089002309F020E000E0949901E01F
:102F0000021791F002851385222319F00E94A10C6B
:102F100002C00E94BA0C9C015196ED91FC9152970F
:102F2000028113810E949F13FD01A189B28911962C
:102F30000C9103950C930FE70E9390CF4A92BA939E
:102F4000AA939A938A93D801422ECA01F801018963
:102F5000F289E02F2081239520830181201719F524
:102F60000D911C9111970E94F9100D911C911197D0
:102F70000E94F910041571F0242D0D911C915096AA
:102F80000E94AA109C01ED91FC915297028113813D
:102F90000E949F13FD01A189B28911960C9103959E
:102FA0000C930FE70E9389919991A991B99149904A
:102FB0000895BA93AA93D8015196ED91FC91529736
:102FC0000081039500831181011781F4FD010281C5
:102FD00013810E94EF08002349F4FD01A189B28901
:102FE00011960C9103950C930FE70E93A991B9914B
:102FF0000895BA93AA93D8015196ED91FC915297F6
:103000000081039500831181011751F48D0183D054
:103010005196ED91FC910181039501830FE70083A7
:10302000A991B9910895BA93AA93D8015196ED91B7
:10303000FC91529700810395008311810117D9F407
:103040000D911C9111970E947811002339F40D9174
:103050001C9111970E948411002321F0FD01058D20
:1030600001FD09C0FD01A189B28911960C9103955A
:103070000C930FE70E93A991B99108954A92BA93D0
:10308000AA939A938A93D801422ECA01F801018922
:10309000F289E02F2081239520830181201711F5EB
:1030A000EA2FF12F05A116A10E946B01102F1170BC
:1030B000141579F0242DFD0105A116A10E944E01E1
:1030C0009C015196ED91FC915297028113810E94CF
:1030D0009F13FD01A189B28911960C9103950C9360
:1030E0000FE70E9360CFAD01D8015196ED91FC91A1
:1030F0002081239520833181231759F4F8012585F8
:103100002487A189B28911960C9103950C930FE73E
:103110000E93DA010895BA93AA938A93D801822F65
:1031200000E0EA2FF12F00A3022F222359F00A9585
:1031300061F00A9591F00A9531F10A9521F10A950D
:10314000C1F147C000E003A344C02589368901A12D
:1031500012A10E949F1301E013C02789308D01A1A5
:1031600012A10E949F13FD01048115810E94DB06BC
:10317000FD0104A321E0028113810E94E90802E01D
:10318000FD0103A314C02789308D01A112A10E9463
:103190009F13FD01048115810E94DB06FD0104A33C
:1031A00020E0028113810E94E908FD0183A300E071
:1031B0000FC023893489068D178D0E949F13FD014E
:1031C0002789308D01A112A10E949F1301E0FD010A
:1031D00000A38991A991B9910895F80125872C3010
:1031E00021F02D3011F020E001D00895BA93AA9378
:1031F0008A93D801822FF8010585222379F00730C0
:1032000011F0083021F4028513850E94BA0CFD01EB
:1032100004851585011781F420E00AC0073011F0FC
:10322000083021F4028513850E94A10C21E0FD01E4
:1032300005A116A10E944E01FD0123A18D016BDFA6
:10324000FD01808B8991A991B9910895BA93AA93B0
:103250008A93D80180E0F80107A110A50E94C2015D
:10326000002309F081E0FD0107A110A50E94C5011E
:10327000002309F08260FD0107A110A50E94C8018A
:10328000002309F084600D911C9111970E94F910A0
:10329000013009F48860FD01048115810E94DB067C
:1032A000002309F08061FD01028113810E94EF0873
:1032B000002309F08062FD010089002309F0806489
:1032C000082F8991A991B9910895BA93AA938A93E5
:1032D000D80180E0F80103A10A9539F00A95B9F008
:1032E0000A9521F10A9551F134C00D911C91119765
:1032F0000E947811002339F40D911C9111970E94BE
:103300008411002321F0FD01058D01FD81E00D9167
:103310001C9111970E9478110023B9F40D911C9112
:1033200011970E948411002381F413C00D911C9108
:1033300011970E948411002341F414C00D911C9137
:1033400011970E947811002369F0FD01058D02FD9F
:1033500002C0882339F0FD0101A112A10E94B81317
:103360000023C9F5FD0100A1002389F0028113812A
:103370000E94EF08002359F0FD01068D178D0E9471
:10338000B813002321F0FD01058D00FD24C0FD01CF
:1033900003A1023010F1048115810E94DB06FD01BA
:1033A00034A121E0102F12273123A9F404A30281B4
:1033B00013810E94EF08002381F4FD0100A1002386
:1033C00061F401A112A10E94B813002331F0FD01A4
:1033D000058D03FF02C001E001C000E08991A991C1
:1033E000B9910895AD01F801218F328F218DA68109
:1033F000B781ED91FC9123833483F801218D328DC7
:10340000A085B185ED91FC9123833483F801218D52
:10341000328DA285B385ED91FC9123833483DA014B
:103420000895F801018D128D0895BA93AA93D801D9
:103430003CE029E20091820A1091830A0E94300642
:103440005D960C931A9748E853E12AE20091820AAC
:103450001091830A0E944B060D931D9340E253E0A6
:103460002CE20091820A1091830A0E944B060D9370
:103470001D9348EE53E02EE20091820A1091830AD8
:103480000E944B060D931D934091800A5091810A32
:1034900020E30091820A1091830A0E944B060D934B
:1034A0001C935A9798018D019DDF97960D911C9161
:1034B00098970E94DB010D911C9113960E94901128
:1034C0000D911C910E94EE06A991B9910895BA93AD
:1034D000AA93D8015D963C911A9729E20091820A3D
:1034E0001091830A0E943D064D915D912AE2009160
:1034F000820A1091830A0E9467064D915D912CE229
:103500000091820A1091830A0E9467064D915D9195
:103510002EE20091820A1091830A0E9467064D9163
:103520005C911D9620E30091820A1091830A0E940B
:1035300067060D911C9198970E94FB010D911C91BB
:1035400013960E946A120D911C910E940407A99182
:10355000B99108959A938A93C8018E9A0091640054
:103560000860009364000091800A1091810A0E9413
:103570001913FC010083118321E0F80126838C01DB
:103580008991999108959A938A93C8018F9ABC9AC8
:103590000091800A1091810A0E941913FC01008396
:1035A000118321E0F80126838C0189919991089576
:1035B0009A938A93C8018D9A8C9A0091800A1091EF
:1035C000810A0E941913FC010083118321E0F80194
:1035D00026838C01899199910895F80100811181C8
:1035E0000E94B813002309F096980895F80100810D
:1035F00011810E94B813002309F097980895F801EB
:10360000008111810E94B813002309F09598089554
:10361000BA93AA93D80107E010E00E94C41D202F9E
:10362000212B29F020E030E00E94871302C000E047
:1036300010E012960D931C9313978D01A991B991E7
:103640000895BA93AA939A938A93D80153962C9388
:103650001B97822F90E004968C010E94C21D0D934F
:103660001C9318968C010E94C21D0D931C935297B7
:1036700000E00C9306E01A960C93199700E00C9367
:1036800011978D0189919991A991B99108951D0181
:1036900040E0F8012181263009F041C025814085B4
:1036A000241B2350278342E82085318523833483DC
:1036B000F9015081552391F4F8016381732F6F5FF5
:1036C0007F4F638374830AC0D0016D91A383B48359
:1036D0004627E42FF0E0EA52FF4F4491F80165815C
:1036E0007681038014806015710570F72F5F3F4F5E
:1036F00023833483442321F4A381B32F4C9101C04D
:1037000041E020E0208B208531852D5F3F4F2383D2
:103710003483218932892D5F3F4F24873587042FD9
:10372000D1010895F801078108959D01F801A38151
:10373000B4810D91A383B483D90108953B2F4A2FFF
:10374000F801A381B4812D91A383B483A3811D913A
:10375000A383B483022FA42FB32F08953B2F2A2EC7
:10376000F8010484158441895289638970E0460F09
:10377000571F4D5F5F4F0416150620F4D0012D939F
:10378000A487B587A22DB32F08950D01F801648594
:10379000758501891289438950E0040F151F0E5F5A
:1037A0001F4F6017710748F4DB012C9311968D01B0
:1037B0000F5F1F4F048715873C93D0010895BA937C
:1037C000AA93382E022EF80124853585268737875F
:1037D00021883289622D22192350208B732F6F5F2D
:1037E0007F4F6487758780818068E22DF32F808307
:1037F000262FFB010082F8016089E22FF72F6183F9
:1038000062E8F801218932892487358720812223C3
:1038100081F424852F5F3F4F248735870AC0D90163
:103820002D91A487B5876227E62FF0E0EA52FF4F7B
:103830006491F801248535850684178420153105A7
:1038400070F3F9016083F801218932892487358773
:103850002081222329F424852F5F3F4F2487358739
:1038600020E02387218324E0228700ECFA010083F3
:10387000832DA991B9910895AA939A938A93C80127
:10388000A22F06E110E00E94C41D202F212B21F061
:103890004A2F9C0107D002C000E010E08991999165
:1038A000A9910895BA93AA939A938A93D801C901CA
:1038B000242F0E94211BA093950AB093960A189A70
:1038C0001098199A119A06E00093950089B990937F
:1038D000900008ED0AB98D0189919991A991B9914A
:1038E0000895BA93AA93FA93EA936A935A934A93E0
:1038F0003A932A931A930A936FB70CB1E091950A01
:10390000F091960A1181163009F454C0003C41F43C
:1039100001E00183008511850383148300E003C067
:103920000B3D19F401E0028345C02281222349F0B6
:103930000D3D11F40BED03C00C3D61F500EC20E0F2
:1039400022831150F9F01A9571F11A9559F01A95D0
:1039500089F523813481458156812417350729F55E
:1039600016E022C014E011831389101708F4012F08
:103970002085318510E0200F311F2D5F3F4F2583BB
:10398000368313C012E0118307FB3EF40F771081DA
:10399000011759F000E001830DC010E0A381B4814C
:1039A0001D93A383B48313E01183A381B4810D938A
:1039B000A383B4836FBF09911991299139914991DA
:1039C00059916991E991F991A991B9911895BA9391
:1039D000AA93FA93EA936A935A934A933A932A934F
:1039E0001A930A936FB7E091950AF091960A0285AF
:1039F000043041F5A485B5850D91A487B587003CB9
:103A000011F00B3DA1F41385112351F40BED11E0DE
:103A1000138724853585215030402487358707C09A
:103A2000003C11F40CED01C00DED10E0138726856C
:103A30003785448555852417350710F415E012871E
:103A40000CB902C006E00287B5CF2197AE010E94F3
:103A5000DF1B08810CB9219608950C941D1E01E00E
:103A600010E00C941D1E0FE70DBF0AE00EBFC0E072
:103A7000D4E00E94C01D002311F00E94F01D0E949E
:103A8000B0080E945F1D0C942D1DE199FECF089592
:103A90004F5F5F4FFADF4EBB5FBBE09A0895FADFDE
:103AA0000DB308954F5F5F4F4EBB5FBBF894E29A32
:103AB000E19A0FBE08950FB6E8DF0DBBF5CF0C9469
:103AC0002D1D4A951AF0000F111FFBCF08954A953E
:103AD0001AF016950795FBCF0895002411241001C4
:103AE000E0E2EA9592F0001F111F221F331F001C15
:103AF000111C221C331C041615062606370688F3F3
:103B0000041A150A260A370AECCF001F111F221FBC
:103B1000331FA001B10100951095209530950895AF
:103B2000FF27772312F4F16015D0332312F4F095B8
:103B300009D00E946D1DF69508F404D0F69508F49E
:103B400009C0089530952095109501951F4F2F4F6E
:103B50003F4F089570956095509541955F4F6F4F19
:103B60007F4F0895BA93AA939A938A930895BB813D
:103B7000AA8199818881F0E0EC0FFD1FEF01089583
:103B800001E008950C94C41D9A938A93C80102C061
:103B90000E94E01D8C010E94D61E202F212B69F46B
:103BA000E7E9FAE02081318100E02030300781F33D
:103BB000E091970AF32F0995EDCF89919991089596
:103BC0000C942F1D20E006D0E9F70895259102D02E
:103BD000E9F708952D9301501040202F212B0895CF
:103BE0008CE59EE3FC0105911491FC013296A591B0
:103BF000B491FC01349625913491422F432B19F056
:103C0000F901E4DF01C0DEDF06961EE38836910786
:103C100048F30895E9E9FAE000811181012B19F0D8
:103C200000E010E0089500E014E00083118320E03C
:103C300036E0F801208331830895FFCF0D01D801CC
:103C4000012B09F452C01297ED91FC911197349712
:103C500008F44BC00BE91AE0F80150D019F0A21794
:103C6000B30728F4FD0122833383F80123C0F9014F
:103C700045D019F02A173B07D0F3408151819F01AD
:103C8000240F351FA217B30780F12A173B0741F411
:103C90002D913C91420F531F40835183DF010CC093
:103CA0002DD021F024D026173707F8F012962D9347
:103CB0003C931397A283B383FD0120D0B1F017D0BA
:103CC0006217730791F440E0F80140834183F901E2
:103CD000008111814D915C91400F511F5C934E9377
:103CE00002811381FD0102831383D00108954D9158
:103CF0005C911197BD01640F751F08952281338176
:103D0000422F432B08950E94B21DC80104C00E5FCC
:103D10001F4F0E941E1EEBE9FAE0A081B1810A2F1D
:103D20000B2B59F4ADE9BAE02FD021F137D000F5D3
:103D300030D0FACF33D0E0F42CD026D0D9F7EBE94D
:103D4000FAE00081F181E02F00811181ADE9BAE054
:103D500001C01FD02D913C9111972017310751F0D0
:103D6000ED91F32F1197208131812817390788F3BE
:103D70008D0107C00E940A1E202F212B41F600E072
:103D800010E0E4E00C94B71D0D911C911197012BEC
:103D90000895FD01A081B18112960895ED91F12F52
:103DA0001197008111810817190708950E94B21D0B
:103DB000C80102960817190758F4843000E09007EC
:103DC00010F484E090E08C019EDF202F212B19F469
:103DD00000E010E03EC0F80120813181F901A081AE
:103DE000B1811497A817B90730F422813381D80123
:103DF0002D933C9316C0280F391FD8012D933C9367
:103E00004281538127D04D935C9340815181481B5F
:103E1000590BD8012D91BC91A22F4D935C938083B7
:103E20009183D8012D913C91232B59F013D02D91E2
:103E30003C91232B31F0D8010D911C910E5F1F4F47
:103E400002C000E010E0ABE9BAE00D931C9332969B
:103E50008F0197CFD8012D91D9019ECF1D00820AE5
:0A3E600000000200800A683EE8033B
:00000001FF
:00000001FF
