:100000000C94CE1D18951895189518951895189557
:10001000189518950C94980D18951895189518958D
:100020001895189518951895189518951895189568
:100030001895189518951895189518951895189558
:100040000C94AC0D189518950C940C1D18951895DA
:100050000C94821D18951895189518951895189553
:1000600018951895189518950C94EC1318951895E3
:100070001895189518951895189518951895189518
:100080001895189518951895189518951309452DD4
:10009000303034001B0E1300000800000B000A0073
:1000A0000000000001000500000000000007000043
:1000B0000000000004020C0000000000000000002E
:1000C0000000000000000000000000000000000030
:1000D000000000000000005EBCE2613FDD83C29CC6
:1000E0007E20A3FD1F419DC3217FFCA2401E5F0116
:1000F000E3BD3E6082DC237D9FC1421CFEA0E1BFC8
:100100005D0380DE3C62BEE0025CDF81633D7C22F9
:10011000C09E1D43A1FF4618FAA427799BC584DA27
:100120003866E5BB5907DB856739BAE406581947D5
:10013000A5FB7826C49A653BD987045AB8E6A7F987
:100140001B45C6987A24F8A6441A99C7257B3A64B9
:1001500086D85B05E7B98CD2306EEDB3510F4E10E7
:10016000F2AC2F7193CD114FADF3702ECC92D38D95
:100170006F31B2EC0E50AFF1134DCE90722C6D3347
:10018000D18F0C52B0EE326C8ED0530DEFB1F0AE79
:100190004C1291CF2D73CA947628ABF517490856A7
:1001A000B4EA6937D58B5709EBB536688AD495CB55
:1001B0002977F4AA4816E9B7550B88D6346A2B7507
:1001C00097C94A14F6A8742AC896154BA9F7B6E839
:1001D0000A54D7896B35A00371037603CE03D90384
:1001E0008803B703EF033904420467048804C30992
:1001F000C509DD09130D130DEE09FB090D0A210ACE
:10020000370A6E0A8E0AA90ACC0A080BD70B6A0CA9
:10021000FE0C050D8315AA15E815AA1583152B16D6
:1002200058168716B41601174C167916E316EC16F5
:10023000169A209161002061209361002091620054
:100240002860209362002091610028602093610063
:10025000209162002460209362002091610024605C
:100260002093610021E0F801258320E02483089594
:10027000F801248325810481202B0091620011F074
:10028000046001C00B7F009362000895F80134817F
:1002900021E0322734830581032BEFCFF80125833A
:1002A000EACF22230091620039F4086000936200D3
:1002B000009162000F7E06C0077F009362000091EC
:1002C00062000061009362000895222311F01E9ADB
:1002D00008951E98089500E01091620012FD01E05B
:1002E0001091620014FD02601E99046008959A93B3
:1002F0008A93C80106E010E00E945F1E202F212B88
:1003000021F09C010E94150202C000E010E08991DA
:1003100099910895BA93AA93D801BA9A01E01596D3
:100320000D9300E00D930C93169700ED17E00E94DB
:1003300077010D931C9312970E944B028D01A99196
:10034000B9910895BA93AA93D80117960C9117976B
:10035000002359F411960D911C9112970E94491493
:10036000002319F001E017960C93A991B991089513
:10037000BA93AA938A93D801822FF80106810217B3
:1003800069F0222311F0C29A01C0C29800E00783ED
:10039000018112810E944B02FD0186838991A991FE
:1003A000B9910895F80105810895F801068108952D
:1003B000F80107810895AD01F80123833483238177
:1003C000A181B28114962D933C93DA010895F8012E
:1003D000038114810895BA93AA93D80140ED57E0A0
:1003E00022E00091820A1091830A0E94E10613968E
:1003F0000D931C931397ED91FC9115962C9122234C
:1004000029F498018F010E942F0202C004831583F2
:10041000A991B9910895F8014381548122E0009196
:10042000820A1091830A0C94FD06F8012483358317
:1004300020E0238322832091910A3091920A208325
:1004400031830895F8012483358320E023832283B8
:100450002091910A3091920A208331830895F80106
:100460002483358321E0238320E022832091910A95
:100470003091920A208331830895F80124833583D3
:1004800021E0238320E022832091910A3091920A77
:1004900020833183089521E0F801238320E0228323
:1004A0002091910A3091920A20833183089521E0AE
:1004B000F80123832091910A3091920A4481558159
:1004C000241B350B208331830895BA93AA93D80156
:1004D0000E94EA0401E010E00E945F1E202F212B01
:1004E00039F00E94B1060093820A1093830A05C076
:1004F00000E00093820A0093830A01E110E00E9469
:100500005F1E202F212B19F00E94E40802C000E09A
:1005100010E00D931D930CE010E00E945F1E202F51
:10052000212B19F00E946D0D02C000E010E00D9328
:100530001C931C9600E00D930C931C9704E010E0B4
:100540000E945F1E202F212B19F00E94520E02C024
:1005500000E010E00D931C9313960AE210E00E9455
:100560005F1E202F212B19F00E94601402C000E0B2
:1005700010E00D931C9313970FE010E00E945F1E94
:10058000202F212B19F00E943D0802C000E010E04E
:100590000D931C93139600E00C931A960C931997E5
:1005A0000D930D930D930C93139601E00C935197BB
:1005B0008D01D7D130E02FEF16960D911C91119738
:1005C0000E9491080D911C9111970E94580808EE05
:1005D00013E00E941A1434E02FEF0D911C91119733
:1005E0000E9491080D911C9113970E9458080D913B
:1005F0001C9115970E94910E8D01A991B9910895B2
:10060000BA93AA93D8010D911C9111970E94CF071C
:10061000FD01028113810E94CF07FD010481158134
:100620000E94700EFD01008511850E9423150D9119
:100630001C9111970E943308002321F00D911C9109
:1006400011970AC0FD01028113810E943308002323
:1006500059F0FD0102811381F8012581FD012787F1
:10066000F8010681FD01008BFD0107851089183016
:1006700039F4023029F401E0078709E0008B02C059
:10068000013019F420898D0115D08D010E941B05C0
:10069000002349F08D010E943A058D010E945B06FE
:1006A0008D010E94810600E0FD010787008BA99162
:1006B000B9910895BA93AA938A93D801822FF80129
:1006C000048115810E94950E8A958C3008F028C10E
:1006D000F2E08F9FF001EA52FE4F05901490F00176
:1006E000099400E0FD01038705876EC0FD0103A1A9
:1006F00002FF06C000E005870385033009F4E5C06A
:1007000001E003870585002309F4DFC02CE03FC02A
:1007100002E0FD01038703A102FF02C000E005879C
:1007200020E01896ED91FC91199706A117A10E945F
:100730006501FD010585002309F4C7C02DE027C030
:1007400003E0FD01038703A101FF02C001E005876B
:1007500021E01896ED91FC91199706A117A10E942E
:100760006501FD010585002309F0CAC0AEC0FD0189
:10077000158501E01027158709F4A7C0038501300E
:1007800029F0023019F0033009F0CAC024E00085D6
:1007900011850E947A1921E0FD0166C0FD010385E3
:1007A000073019F003A103FD02C005E00CC007E00B
:1007B0000AC0FD010385083019F003A103FD02C042
:1007C00006E001C008E0038720E01896ED91FC9157
:1007D000199706A117A10E946501FD0176C0FD01D0
:1007E0000385033069F420E01896ED91FC91199788
:1007F00006A117A10E94650101E0FD01038702C067
:10080000013049F401E0048703A103FF02C008E0BE
:100810000CC006E00AC0023061F402E0048703A1C4
:1008200003FF02C007E001C005E0038701E006877F
:1008300011C0073011F0083041F403A105FF05C0D5
:1008400021E0008511850E948319FD0106850023A2
:1008500009F466C02385008511850E947A19FD017F
:1008600003A104FF5DC021E0008511850E9483196A
:1008700057C0FD010685002341F10485038700E090
:10088000068723C0FD01028901FF12C002E0038731
:1008900020E01896ED91FC91199706A117A10E94EE
:1008A0006501FD0103A102FF0DC000E005870DC039
:1008B00003A102FF05C000E005870385033029F08E
:1008C00001E003870585002371F623851CC0FD0127
:1008D0000385033029F1013039F402E003870585EF
:1008E000002381F422E00FC0023039F401E00387D5
:1008F0000585002329F421E006C0028901FF02C01A
:100900002CE001C02DE0008511850E947A1908C0F5
:100910001896ED91FC91199706A117A10E94460126
:1009200001E0FD01018B00E0048B8991A991B9914F
:100930000895BA93AA93D80193962C935F9726FBB8
:1009400020E020F901E020270D911C911C960E94C7
:10095000890E01E00C93A991B9910895F80103A1C2
:100960000895BA93AA93D80130E022E30091820A55
:100970001091830A0E94C60693960C935F9706FB1C
:1009800020E020F901E020270D911C9113960E9490
:10099000890E0D911C910E94B31AA991B9910895E5
:1009A000BA93AA93D80193963C915B9722E3009166
:1009B000820A1091830A0E94D3060D911C910E9415
:1009C000051B0091820A1091830A0E941E07A991BB
:1009D000B991089500916500016000936500009150
:1009E00064000E7F00936400009164000061009336
:1009F0006400909A8898919A8998929A8A98939A82
:100A00008B9AD29AD19AD09A009161000068009393
:100A10006100009161000064009361000091610039
:100A2000006200936100C19AB998A89508E101BDE0
:100A30000CE001BD0895BA93AA93D8010091940ADD
:100A40000023A1F01A960C9103950C931A970A3083
:100A500069F400E01A960C9312970D911C91199667
:100A60000E94B3190C93A89501E001C000E0A99180
:100A7000B9910895BA93AA93D80116960D911C9135
:100A80001B960E9458080C911E915197112331F426
:100A900053961C915397101709F40AC153960C935F
:100AA000129700E00C931B9734E02FEF0D911C91EF
:100AB0001B960E9491080C91529700FF12C002FFF2
:100AC00002C031E001C033E016960D911C911B96D7
:100AD0002C91529721FF02C020E201C024E00E9425
:100AE00091081B960C911B970023A1F00A9501F128
:100AF0000A9591F10A9509F443C0025009F44FC0D8
:100B00000A9509F45BC00A9509F467C00A9509F4CF
:100B100087C0AEC016960D911C911B962C915297D2
:100B200024FF03C030E022E0A1C034E020E09EC0FA
:100B30001D960C911D97002339F093960C91939775
:100B400000FF02C032E006C052960C91529702FF9D
:100B50008FC030E024E086C01D960C911D970023C5
:100B600039F093960C91939700FF02C032E006C0D3
:100B700052960C91529702FF7BC030E020E272C087
:100B80001D960C911D97002339F093960C91939725
:100B900000FF02C032E001C030E025E063C01E96D5
:100BA0000C911E97002341F030E020E216960D9143
:100BB0001C9117970E94910830E030C01E960C914E
:100BC0001E97002341F030E024E016960D911C9111
:100BD00017970E94910830E044C01E960C911E9712
:100BE000002341F030E020E216960D911C911797FA
:100BF0000E94910852960C91529706FF0EC01696CD
:100C00000D911C911B962C91529733E021FF02C04D
:100C100020E201C024E00E94910832E028E022C0D6
:100C20001E960C911E97002341F030E024E01696AA
:100C30000D911C9117970E94910852960C91529712
:100C400006FF0EC016960D911C911B962C91529783
:100C500033E021FF02C020E201C024E00E9491089D
:100C600032E020E116960D911C9117970E94910891
:100C700052960C9152970872083241F433E022E008
:100C800016960D911C9117970E9491081D960C9134
:100C90001D97002369F016960D911C915C962C917E
:100CA00020FF02C032E001C030E020E40E94910841
:100CB000A991B9910895BA93AA93D80118960D9164
:100CC0001C9119970E94F6190023C1F054960C91BB
:100CD0005497002339F41B960C911A960C9301E05B
:100CE0000E93549700E01B960C93169601E00C931C
:100CF000199729E00D911C910E947A19A991B99137
:100D00000895BA93AA93D80154960C91549700234E
:100D100029F152960C915297007A01F593960C9115
:100D2000939707FF18C055960C915597013011F411
:100D300002E003C0023021F401E01B960C931B97E4
:100D400001E051960C9316972C9113970D911C91DD
:100D500019970E947A1900E054960C93A991B991C1
:100D60000895BA93AA93D80101E00C9340E050E0B3
:100D700020E00A2F26D00A3D1E4B11F401E001C0ED
:100D800000E00C938D01A991B9910895F8010081BB
:100D9000002339F030E040E050E0420F531F0C9444
:100DA000EA1D032F089510E040E050E0420F511F6C
:100DB0000E94EA1D031721F0032F0E94F61DA8953B
:100DC00008952297F8010081002389F030E040E087
:100DD00050E0420F531F0E94EA1D0883239540E014
:100DE00050E0420F531F0E94EA1D098302C048834E
:100DF000598308811981229608952297488359833F
:100E0000188130E040E050E0420F531F0E94EA1D7D
:100E1000011721F0012F0E94F61DA8951981239535
:100E200040E050E0420F531F0E94EA1D011721F0DD
:100E3000012F0E94F61DA89522960895BA93AA93B1
:100E4000D8014AED5EEB20E0D8DF40E050E020E042
:100E50008D01B7DF0A3D1E4B11F401E001C000E037
:100E60000C93A991B991089520E0F8012083089589
:100E7000BA93AA93D8011A9812981B98139800E075
:100E800012960D930C93139608EC10E00E947701D4
:100E90000D931C9317978D01A991B9910895BA9359
:100EA000AA93D801459B02C001E001C000E0129660
:100EB0001C911297101741F012960C9314960D91F5
:100EC0001C910E944B0210C013960C9113970117AE
:100ED00059F016960D911C9117970E944914002302
:100EE00019F012960D910C93A991B9910895F801FA
:100EF00003810895AD01F801248335832481A681FF
:100F0000B78114962D933C93DA010895F80104817A
:100F100015810895BA93AA93D80148EC50E024E0D3
:100F20000091820A1091830A0E94E10614960D93A3
:100F30001D93ED91FC9104831583A991B9910895B6
:100F4000F8014481558124E00091820A1091830ABE
:100F50000C94FD06BA93AA93D80100E012960C9364
:100F6000139602E00C9312970D9300E00C931296E7
:100F70000C93169706E010E00E945F1E202F212B95
:100F800029F020E030E00E94150202C000E010E0ED
:100F90000D931C9311978D01A991B9910895BA935E
:100FA000AA938A93D8010091940A002309F457C0A8
:100FB0000A2F1796ED91FC9118972591F491E22F45
:100FC0000995802FFD010481801759F022E330E05C
:100FD0000D911C9111970E942F02FD01848301E065
:100FE0003DC002810023D9F10D911C9111970E94FF
:100FF00049140023A1F1FD0102810130E1F48823AD
:10100000C1F00581023049F002E0058322E330E0BF
:10101000008111810E942F0222C0868301E0058396
:1010200028EE33E00D911C9111970E942F0202E0EF
:101030000EC002E011C0023061F403E0058328EB2A
:101040003BE00D911C9111970E942F0203E0FD01DE
:1010500005C0033021F404E0058300E00283899198
:10106000A991B9910895F80125813381321711F4BE
:1010700000E00895238301E00895BA93AA93D8016C
:10108000A09AA29AA49AA59AA79AD79AD59A00E06C
:1010900017960C9312960C930E9316960C931E971C
:1010A00034E02FEF0A2F3DD08D01A991B991089519
:1010B000F80122851385112331F40485002319F4E6
:1010C0000585002311F10781053608F4212B0395CE
:1010D0000783083C11F400E007830185033310F413
:1010E0000485202B018503950187043611F400E067
:1010F00001870085093010F40585202B00850395B4
:101100000087003131F400E003C000E0078301876D
:1011100000870685021721F026878F010E94C008EC
:101120000895F801022F00953323128571F4122BD4
:101130001287138510231387323071F41485122B14
:1011400014871585102315870895102312873130D1
:1011500081F71385122B13871485102314873330DE
:1011600081F70585022B05870895F801428553858F
:1011700064857585F9014083518362837383089583
:1011800022FB16F4AC9A01C0AC9825FB16F4DF9A4A
:1011900001C0DF9826FB16F4DD9A01C0DD9820FB24
:1011A00016F4A89A01C0A89823FB16F4AD9A01C0C2
:1011B000AD9824FB16F4AF9A01C0AF9821FB16F44A
:1011C000AA9A0895AA980895BA93AA93D8010E945A
:1011D000AA070CE810E017960D931C93189700913E
:1011E0006500026000936500009164000D7F00932C
:1011F0006400A99AA198AB9AA398AE9AA698009178
:101200006500046000936500009164000B7F00930B
:101210006400DE9AD698DC9AD498DB9AD3988D0134
:10122000A991B991089500E01091630011FF01E0C8
:10123000999B02609B9B04609E9B086010916300D9
:1012400012FF0061CE9B0062CC9B0064CB9B0068C8
:10125000002309F10058E9F0025879F0025079F0C2
:101260000A9549F0035069F0085069F0005169F09F
:10127000005269F010C001E0089502E0089503E013
:10128000089504E0089505E0089506E0089507E054
:10129000089508E0089500E00895BA93AA930E9483
:1012A000D51304E210E00E945F1EA4E8BAE0202FEC
:1012B000212B29F00E9465020D931C9303C000E0CE
:1012C0000D930C93119702E010E00E945F1E202FF7
:1012D000212B31F00E94900912960D931C9304C0AB
:1012E00000E012960D930C9313970E9404140D9135
:1012F0001D910E9400030D911C9113970E949F095C
:10130000F4CF1D9A1598C39ABB9A0895222311F021
:10131000C39A0895C398089500E00D9901E00895D7
:10132000BA93AA93D80128E104E310E00E94D71CE5
:101330000D931C9311978D01A991B9910895DA929B
:10134000CA929A928A927A926A925A924A92BA93DC
:10135000AA939A938A932497D8010D911C9111977F
:101360000E94E21B902F002309F468C30A95033101
:1013700008F059C3F2E00F9FF001E251FE4F0590D3
:101380001490F001099421E04FC30D911C91119725
:101390000E942D1C002309F44CC3802F0D911C9139
:1013A00011970E94301C202F0D911C9111970E94C3
:1013B000491C8A9509F43DC3F1CF0EE8402E00E0A8
:1013C000502EF2010491002309F433C325912F011B
:1013D0000D911C9111970E94491CF3CF0D911C9106
:1013E00011970E94301C202F0091840A1091850AC9
:1013F0000E945A0316C30D911C9111970E94301C34
:10140000202FE091840AF091850A0085F185E02F74
:10141000008111810E94531104C30D911C911197F9
:101420000E94301C01FB20E020F9E091840AF09139
:10143000850A0085F185E02F00A511A50E94B8015D
:10144000F0C20D911C9111970E94301C002311F0E5
:1014500021E001C020E0E091840AF091850A008536
:10146000F185E02F028113810E948609DAC20D9175
:101470001C9111970E94301C802FE091840AF091FA
:10148000850A0085F185E02F0681178180FB1EF417
:101490000E942C0D02C00E94450DE091840AF0913B
:1014A000850A0085F185E02F0085118581FB1EF4FA
:1014B0000E94370D02C00E94550DE091840AF09100
:1014C000850A0085F185E02F0285138582FB1EF4D5
:1014D0000E943E0DA6C20E94610DA3C20D911C91F7
:1014E00011970E94301C802F0D911C9111970E9422
:1014F000391C68010D911C9111970E94391CA6019D
:10150000B801282FE091840AF091850A0085F185C1
:10151000E02F008111810E94F41183C20D911C9172
:1015200011970E94301C202FE091840AF091850AC7
:101530000085F185E02F008111810E9411122801A0
:10154000390120E00D911C9111970E94491C9201D4
:1015500022C10D911C9111970E94391C9801E091B4
:10156000840AF091850A0085F185E02F00811181C0
:101570000E94C2110D911C9111970E94391C980173
:10158000E091840AF091850A0085F185E02F0081C1
:1015900011810E94D81145C20D911C9111970E9492
:1015A000301C802F202F2170E091840AF091850A51
:1015B0000085F185E02F06A117A10E944E0181FB55
:1015C00020E020F9E091840AF091850A0085F185F8
:1015D000E02F06A117A10E94510182FB20E020F913
:1015E000E091840AF091850A0085F185E02F06A13B
:1015F00017A10E94650120E0E091840AF091850A1C
:101600000085F185E02F06A117A10E94380109C2CB
:1016100020E00D911C9111970E94491C9E01E091C0
:10162000840AF091850A068117810E94B5082881F5
:101630000D911C9111970E94491C29810D911C91BB
:1016400011970E94491C2A810D911C9111970E94AB
:10165000491C2B810D911C9111970E94491C80E01F
:101660000091650003FD81E0C499826094998460D3
:10167000E091840AF091850A0085F185E02F0281CE
:1016800013810E948C09002309F08860E091840A8C
:10169000F091850A0085F185E02F048115810E9473
:1016A0007707002309F08061E091840AF091850AB0
:1016B0000085F185E02F00A511A50E94D20100232D
:1016C00009F08062E091840AF091850A0085F18535
:1016D000E02F00A511A50E94D501002309F0806428
:1016E000E091840AF091850A0085F185E02F00A53C
:1016F00011A50E94D801002309F08068282F0D91C0
:101700001C9111970E94491CE091840AF091850A6E
:101710000085F185E02F06A117A10E946B01202F03
:101720000D911C9111970E94491CE091840AF0913F
:10173000850A0085F185E02F008111810E94A211A8
:10174000202F0D911C9111970E94491CE091840A51
:10175000F091850A0085F185E02F008111810E94BA
:101760001B12390198010D911C9111970E94601C68
:1017700093010D911C9111970E94601CE091840AC5
:10178000F091850A0085F185E02F008111810E948A
:10179000EE11390198010D911C9111970E94601C66
:1017A00093010D911C9111970E94601C42C10D91F3
:1017B0001C9111970E94301C802E0D911C91119745
:1017C0000E94301C902E0D911C9111970E94301C8C
:1017D000A401602FE091840AF091850A0085F185CB
:1017E000E02F008111810E94A5110D911C9111978C
:1017F0000E94391C9801E091840AF091850A0085C5
:10180000F185E02F00A511A50E94DB010D911C912F
:1018100011970E94391C9801E091840AF091850A81
:101820000085F185E02F048115810E947A070D91D2
:101830001C9111970E94391C9801E091840AF09143
:10184000850A008511850E94901A0D911C911197AF
:101850000E94391CE091840AF091850A2085F18567
:10186000E22F038B148B0D911C9111970E94391C50
:10187000E091840AF091850A2085F185E22F058B9D
:10188000168B0D911C9111970E94391CE091840ACE
:10189000F091850A2085F185E22F078B108F0D913D
:1018A0001C9111970E94301C202FE091840AF09126
:1018B000850A0085F185E02F258F0D911C911197E8
:1018C0000E94301C202F0091840A1091850A0E94EA
:1018D0009904A7C020E00D911C9111970E94491C0A
:1018E000E091840AF091850A0085F185E02F00815E
:1018F00011810E94BD11512E622E202F0D911C913D
:1019000011970E94491C252D0D911C9111970E9441
:10191000491C262D0D911C9111970E94491CE091A4
:10192000840AF091850A0085F185E02F00A511A5B4
:101930000E94E70198010D911C9111970E94601C73
:10194000E091840AF091850A0085F185E02F0481F9
:1019500015810E94860798010D911C9111970E9494
:10196000601CE091840AF091850A008511850E942F
:10197000AF1A98010D911C9111970E94601CE09183
:10198000840AF091850A0085F185E02F2389348946
:101990000D911C9111970E94601CE091840AF091B6
:1019A000850A0085F185E02F258936890D911C91E6
:1019B00011970E94601CE091840AF091850A0085CD
:1019C000F185E02F2789308D0D911C9111970E9490
:1019D000601CE091840AF091850A0085F185E02F72
:1019E000258D0D911C9111970E94491C0091840A2C
:1019F0001091850A0E94AE04202F16C00091840A1F
:101A00001091850A0E94D0040CC00091820A1091A6
:101A1000830A0E9434070091840A1091850A0E946B
:101A2000B10420E001C024E00D911C9111970E94A7
:101A3000491C292F0D911C910E94C01D249689914B
:101A40009991A991B991499059906990799089900B
:101A50009990C990D99008952091650028602093AD
:101A60006500969AF801008111810C944B02C49A8A
:101A7000979AF801008111810C944B02949A959ADF
:101A8000F801008111810C944B023B2F4A2F2091C9
:101A90006500277F20936500969820E0D801ED919E
:101AA000FC912383A42FB32F08953B2F4A2FC49872
:101AB000979820E0D801ED91FC912383A42FB32FB8
:101AC00008953B2F4A2F9498959820E0D801ED91E6
:101AD000FC912383A42FB32F0895BA93AA93D8011E
:101AE0000E94AA0704E910E017960D931C93129622
:101AF0001C9A149808E710E00E9477010D931C933C
:101B000012970FEF00938C0A0C93199704E003BF10
:101B100001E00ABF03E000938A0A02E202BF01E08B
:101B200006BF07B7016007BF8D01A991B99108955C
:101B30001A930A931FB709B70F7E09BF01E902BFC5
:101B400001E006BF07B7016007BF01E000938A0A02
:101B50001FBF099119911895FA93EA934A933A9302
:101B60002A931A930A933FB70C9B02C021E001C04D
:101B700020E0E8E8FAE00281023011F403E0028399
:101B80000281002329F5268300E108BF09B700611F
:101B900009BF02E202BF01E006BF07B7016007BF4D
:101BA00002E0028305810A95058391F446E00081F5
:101BB00011810E94021E0F71038300810F73048341
:101BC000018103FF03C004810068048303E00283F2
:101BD00002810130C1F40681201799F00081118142
:101BE000000F111F00831183222311F40160008371
:101BF00002E202BF01E006BF07B7016007BF00E0D5
:101C000001C003E002830281033061F40EE005832A
:101C100001E0068307B70E7F07BF00E108BF09B7E1
:101C2000006109BF3FBF09911991299139914991EB
:101C3000E991F9911895BA93AA939A938A93D80146
:101C40008FEFE8E8FAE0948103819F3FA9F0033128
:101C500099F48483EA2FF12F028513850E944B02A9
:101C6000FD010185901709F4892FFD0191878F7778
:101C7000803468F080E010C0EA2FF12F9185028552
:101C800013850E944914002379F39FEFEECFF0E013
:101C9000E82FE956FF4F8491082F89919991A991D6
:101CA000B9910895BA93AA93D80106E010E00E9472
:101CB0005F1E202F212B29F020E030E00E9415022A
:101CC00002C000E010E011960D931D930CE205BDDB
:101CD000BF9A01E00C9313978D01A991B9910895D2
:101CE000F801018112810E944914002311F00CE2D5
:101CF00005BD0895F8013381332341F023BD9A01D6
:101D0000018112810E942F020CE101C00CE205BD8D
:101D10000895F80123830381002311F40CE205BD2B
:101D2000089544E650E02FE1E5CF48E250E02FE18E
:101D3000E1CF40E0F80144834583468347834083F5
:101D400041834283438340870895FA92EA92DA926C
:101D5000CA92BA92AA929A928A927A926A925A9263
:101D60004A92BA93AA939A938A93202E7901F80102
:101D7000C080D180A60160E070E0890120E030E001
:101D800084809580A680B7804084C801A0E0B0E040
:101D90008C199D09A040B040B49DB02DA49DA02DEC
:101DA000B10D949D902DA10DB61F849D910DA61F80
:101DB000B61F402C82E38B9FB02D8A9FA02DB10DC2
:101DC000899F902DA10DB61F849D910DA61FB61F52
:101DD0008018990AAA0ABB0A418483859485A0E0E9
:101DE000B0E0801B910BA040B040B49DB02DA49DED
:101DF000A02DB10D949D902DA10DB61F849D802D19
:101E0000910DA61FB61F880F991FAA1FBB1F880D13
:101E1000991DAA1DBB1D2C013D01EFEF4E0E5E1E4C
:101E20006E1E7E1EEBE04E16EEEF5E06E3EF6E06D4
:101E3000E1E07E06E0F5E22D4284440F551F661F67
:101E4000041B150B260B304042815381040F151FD4
:101E5000271F371F349D302D249D202D310D149DBB
:101E6000102D210D371F049D110D271F731F402DAD
:101E7000512F622F02EE14E0E0E0129F302D079FF9
:101E8000300D159F202D310D069F200D311D149F03
:101E9000102D210D3E1F059F100D211D3E1F049F7B
:101EA000110D2E1F3E1F8019910BA20BB30BBB23EC
:101EB0002AF480E090E0A0E0B0E00CC08D300EEF9E
:101EC000900703EFA00701E0B00724F08CE09EEF3D
:101ED000A3EFB1E0E22D84839583A683B783C2820A
:101EE000D382E082F18244EF51E060E070E08C0147
:101EF0009D010E942B1E89919991A991B9914990B8
:101F000059906990799089909990A990B990C990C9
:101F1000D990E990F9900895BA93AA93D8010091C5
:101F200061000D7F00936100009161000E7F0093BE
:101F30006100BE9ABD9AB89A179A0DE010E00E940F
:101F40005F1E202F212B11F0F4DE02C000E010E014
:101F500057960D931D930DE010E00E945F1E202FF9
:101F6000212B11F0E6DE02C000E010E00D931C937F
:101F7000589704E00D9300E00D930C9311960D9388
:101F80000C9311960D930D930D930C9311960D9345
:101F90000C93119601E807B907EC06B90FEF1FE3A0
:101FA00017BD06BD00E00D930C9311960FEF19BD00
:101FB00008BD00E00D930C9350970FEF1BBD0ABDB9
:101FC00002EF0FBD09E10EBD20E08D016CD18D0146
:101FD000A991B9910895BA93AA93D8010091940A4E
:101FE000002309F458C007B1013804B115B151F408
:101FF00013962D913C91200F311F3C932E931397F4
:1020000000E809C015962D913C91200F311F3C939B
:102010002E93159701E807B907EC06B912960C91B3
:1020200012970230B1F42FEF3FEF13960D911C91F0
:10203000159645E00E94FC1D201B310B2D933C930F
:10204000139701E00C93149700E00D930C931497F1
:1020500017C00130A9F42FEF3FEF15960D911C9199
:10206000159645E00E94FC1D201B310B2D933C93DF
:10207000149701E00C93139700E00D930C931697BF
:1020800012960C910A950C931297002321F404E008
:1020900012960C93129711960C9111970A9561F074
:1020A0000A9571F10A9509F44EC00A9509F479C0B0
:1020B0000A9509F44AC0B6C017960C9117970023E9
:1020C000E9F019962D913C911D960D911C911B974D
:1020D0003CDE0D931C931E974FEF5FEF60E070E0C6
:1020E000401B510B604070408A019B0144E050E06E
:1020F00060E070E00E942B1E19BD08BD189647C015
:1021000018960C911897002309F48CC01B962D91FA
:102110003C911B960D911C911B9717DEA8010D9306
:102120001C931E970FEF1FEF20E030E060E070E09F
:10213000041B150B2040304044E050E00E942B1E51
:1021400019BD08BD6FC017964DC018960C91189711
:10215000002309F467C01B962D913C911B960D91AD
:102160001C911B97F2DDA8010D931C9316970FEF9E
:102170001FEF20E030E060E070E0041B150B204012
:10218000304044E050E00E942B1E19BD08BD0C9168
:102190001897002309F446C01B962D913C911D967B
:1021A00029C017960C9117970023E1F119962D91EC
:1021B0003C911D960D911C911B97C7DDA8010D93B5
:1021C0001C9317970FEF1FEF20E030E060E070E006
:1021D000041B150B2040304044E050E00E942B1EB1
:1021E00019BD08BD0C9117970023E1F019962D91A8
:1021F0003C911F960D911C911B97A7DDA8010D9393
:102200001C9350970FEF1FEF20E030E060E070E08C
:10221000041B150B2040304044E050E00E942B1E70
:102220001BBD0ABD00E017960D930C93A991B991BF
:102230000895BD01F8010789108D293069F426A1A0
:1022400037A12C5C3C40D8011B962D933C9300A5F4
:1022500011A50453134F20C02A3069F422A533A5D9
:102260002453334FD8011B962D933C9304A515A5F9
:102270000C5C1C4011C034E0239F9F01200D311DD8
:10228000D9015E964D915C91D8011B964D935C935C
:10229000D90190960D911C91A18DB28D1B960D9335
:1022A0001C93DB010895BA93AA938A93D801822FD5
:1022B000C0981F98BEDF082F882381F00150E8F1F5
:1022C0000350E0F0E9F00A9539F10A9589F10A9591
:1022D00089F1025099F00A9589F02FC000E0FD01C4
:1022E000058706870FEF1FE319BD08BD00E00787CC
:1022F000008B0FEF1BBD0ABD00E01EC001E01BC03C
:1023000000E0FD010787008B0FEF1FE31BBD0ABD37
:1023100002E00183C09A11C000E0FD010587068735
:102320000FEF1FE319BD08BD03E001831F9A05C02D
:1023300005E001C004E0FD0101838C938991A9911E
:10234000B9910895F801008108959D01F801438F26
:10235000548F658F438D548DA789B08D18964D93FA
:102360005D936C93438D548D658DA18DB28D1896C0
:102370004D935D936C93D9010895F801038D148DED
:10238000258D0895F801258736874FEF5FEF60E0D0
:1023900070E0421B530B604070408A019B0144E097
:1023A00050E060E070E00E942B1E19BD08BD08954A
:1023B000F8012787308B4FEF5FEF60E070E0421B42
:1023C000530B604070408A019B0144E050E060E0A4
:1023D00070E00E942B1E1BBD0ABD0895F801058503
:1023E00016852785308908951D012830C0F434E012
:1023F000239FF801E00DF11D468F578F60A371A355
:10240000F8013081231759F42789F08DE22F438793
:102410005487F801A18DB28D1B966D937C93D101E9
:10242000089534E0239F000D111DF801068D178DCE
:1024300020A131A10895F8010185128523853485F5
:102440000895F801268D378D0185128520173107F3
:1024500010F001E0089500E00895F80120A131A1F5
:10246000038514852017310710F001E0089500E07E
:102470000895F801268D378D41855285241735073B
:1024800038F420A131A1038514852017310710F0FD
:1024900001E0089500E00895BA93AA93D80132E3C9
:1024A00026E00091820A1091830A0E94C6065B967C
:1024B0000D933EE127E00091820A1091830A0E9469
:1024C000C6060D9338E228E00091820A1091830A33
:1024D0000E94C6060C9312974D915D91602F5D97F7
:1024E0008D0133DF4AE754E129E00091820A10911F
:1024F000830A0E94E1065E960D931D934AE754E11C
:102500002BE00091820A1091830A0E94E1060D934C
:102510001D934FEF5FE32DE00091820A1091830A33
:102520000E94E1060D931D934FEF5FE32FE00091B2
:10253000820A1091830A0E94E1060D931D934FEFCA
:102540005FE321E10091820A1091830A0E94E10673
:102550000D931D934FEF5FE323E10091820A1091E9
:10256000830A0E94E1060D931D934FEF5FE325E17F
:102570000091820A1091830A0E94E1060D931D9337
:102580004FEF5FE327E10091820A1091830A0E94D6
:10259000E1060D931D934FEF5FE329E10091820A5D
:1025A0001091830A0E94E1060D931D934FEF5FEF98
:1025B0002BE10091820A1091830A0E94E1060D939B
:1025C0001D934FEF5FEF2DE10091820A1091830A76
:1025D0000E94E1060D931D934FEF5FE32FE1009101
:1025E000820A1091830A0E94E1060D931D9346E62C
:1025F00056E221E20091820A1091830A0E94E106CC
:102600000D931D934CEC5CE423E20091820A10913F
:10261000830A0E94E1060D931D934CEC5CE425E2D5
:102620000091820A1091830A0E94E1060D931D9386
:1026300046E656E227E20091820A1091830A0E9440
:10264000E1060D931C93A991B9910895BA93AA93A9
:10265000D8015B963D9126E00091820A1091830A91
:102660000E94D3063D9127E00091820A1091830ACF
:102670000E94D3063D9128E00091820A1091830ABE
:102680000E94D3064D915D9129E00091820A10913C
:10269000830A0E94FD064D915D912BE00091820A14
:1026A0001091830A0E94FD064D915D912DE00091ED
:1026B000820A1091830A0E94FD064D915D912FE0E0
:1026C0000091820A1091830A0E94FD064D915D914E
:1026D00021E10091820A1091830A0E94FD064D912A
:1026E0005D9123E10091820A1091830A0E94FD0608
:1026F0004D915D9125E10091820A1091830A0E941B
:10270000FD064D915D9127E10091820A1091830AA7
:102710000E94FD064D915D9129E10091820A109180
:10272000830A0E94FD064D915D912BE10091820A82
:102730001091830A0E94FD064D915D912DE100915B
:10274000820A1091830A0E94FD064D915D912FE14E
:102750000091820A1091830A0E94FD064D915D91BD
:1027600021E20091820A1091830A0E94FD064D9198
:102770005D9123E20091820A1091830A0E94FD0676
:102780004D915D9125E20091820A1091830A0E9489
:10279000FD064D915C9127E20091820A1091830A17
:1027A0000E94FD06A991B991089509E000938A005D
:1027B0000FE71EE3109387000093860000E100936B
:1027C0007C0000937D00EFE8FAE000E000830183E5
:1027D00002830383789408957894FA93EA932A9372
:1027E0001A930A932FB7EFE8FAE0008111810F5F87
:1027F0001F4F0083118301E004832FBF09911991BA
:102800002991E991F99118952FB7F894EFE8FAE03A
:1028100000811181028313830481058300E0048316
:102820002FBF08952FB7F89400918F0A1091900A46
:102830002FBF0895BA93AA939A938A93D801F2DF8F
:10284000C801E2DFA8950091910A1091920A081B35
:10285000190B0A171B07A8F389919991A991B991AE
:1028600008952091910A3091920AF8014081518196
:10287000241B350B448155812417350718F021E0BE
:10288000228303C02281222311F00381089500E0F6
:1028900008952091910A3091920AF8014081518166
:1028A000241B350B448155812417350738F02281CC
:1028B000222321F421E022830381089500E008957A
:1028C000BA93AA93D8018D9A8C9A8E9A009164003B
:1028D0000860009364008F9ABC9A02E010E00E94A6
:1028E0005F1E202F212B19F00E94481B02C000E020
:1028F00010E016960D931D9302E010E00E945F1EFB
:10290000202F212B19F00E945E1B02C000E010E076
:102910000D931D9302E010E00E945F1E202F212BDB
:1029200019F00E94701B02C000E010E00D931C9390
:102930005D9608E010E00E945F1E202F212B19F009
:102940000E948A0102C000E010E00D931C9397974B
:1029500002E010E00E945F1E202F212B19F00E9440
:10296000810902C000E010E00D931D9308E010E023
:102970000E945F1E202F212B19F00E94380702C0F1
:1029800000E010E00D931C93919606E010E00E9489
:102990005F1E202F212B19F00E94180102C000E0B9
:1029A00010E00D931C9397970EE310E00E945F1EBA
:1029B000202F212B19F00E948C0F02C000E010E0A4
:1029C0000D931C93509604E010E00E945F1E202F90
:1029D000212B19F00E94A31B02C000E010E00D9310
:1029E0001C931C9606E010E00E945F1E202F212BF6
:1029F00029F020E030E00E94220202C000E010E056
:102A00000D931C93129606E010E00E945F1E202F8B
:102A1000212B29F020E030E00E94220202C000E0D9
:102A200010E00D931C93569700E00D930D930C93BB
:102A300055960C9353970C9355960C9395978D013F
:102A4000A991B9910895BA93AA93D801F801028582
:102A500013850E94981BFD01068117810E94821B2D
:102A6000FD01008511850E948D1BFD0100A511A5AA
:102A70000E94A201FD01048115810E944F070D9162
:102A80001C9111970E94EB0FFD010585148510170D
:102A900009F4DCC126852017D9F0173021F4053060
:102AA00049F41AE005C0183029F4063019F41BE087
:102AB000178701C0078706870EE004875196ED91BE
:102AC000FC91529701E00183028113810E94570219
:102AD0005196ED91FC91529700E0008302811381A1
:102AE0000E943114002309F4B1C1FD0107850E30A5
:102AF00008F0ACC1F2E00F9FF001EC5EFD4F0590D5
:102B00001490F00109944AE050E021E08D0145D392
:102B100044E650E020E08D01FAD140E050E021E0B1
:102B20008D0197D225E08D01F3D28D01CDD220E029
:102B30008D01EED240E951E020E08D0153D244E610
:102B400050E020E08D011AD244E650E020E08D01F3
:102B500080D24EC14AE050E021E08D011ED340E01A
:102B600050E020E08D0175D144E650E020E08D0179
:102B7000CED140E050E021E08D016BD225E08D0107
:102B8000C7D28D01A1D220E08D01C2D240E951E02F
:102B900020E08D0127D244E650E021E08D01EED106
:102BA00021E08D01B5D28D01CDD28D0190D122E0F1
:102BB0008D01AED244E650E029E08D014AD244E6D0
:102BC00050E021E08D01A3D148EC50E022E03DC06F
:102BD0004AE050E021E08D01E0D240E050E021E009
:102BE0008D0137D144E650E020E08D0190D140E0E6
:102BF00050E021E08D012DD225E08D0189D28D019B
:102C000063D220E08D0184D240E951E020E08D01C3
:102C1000E9D144E650E021E08D01B0D121E08D0101
:102C200077D28D018FD28D0152D122E08D0170D2E9
:102C300044E650E02AE08D010CD244E650E021E069
:102C40008D0165D148EC50E023E08D0102D240E0D7
:102C500050E020E0D3C044E150E021E08D019DD25E
:102C600044E650E020E08D0152D140E050E021E008
:102C70008D01EFD125E08D014BD28D0125D220E0D1
:102C80008D0146D244E650E021E08D0177D121E06C
:102C90008D013ED28D0156D244E650E021E08D01F7
:102CA000A1D140E050E024E08D01D3D123E02CC03D
:102CB00044E150E021E08D0170D244E650E020E094
:102CC0008D0125D140E050E021E08D01C2D125E009
:102CD0008D011ED28D01F8D120E08D0119D244E67C
:102CE00050E021E08D014AD121E08D0111D28D010A
:102CF00029D244E650E021E08D0174D140E050E05B
:102D000025E08D01A6D124E08D0102D29DC044E1D1
:102D100050E021E08D0141D244E650E020E08D01F9
:102D2000F6D040E050E021E08D0193D125E08D0107
:102D3000EFD18D01C9D120E08D01EAD144E650E008
:102D400021E08D011BD121E08D01E2D18D01FAD16D
:102D500044E650E021E08D0145D144E650E026E014
:102D60008D0177D123E02CC044E150E021E08D01BA
:102D700014D244E650E020E08D01C9D040E050E09C
:102D800021E08D0166D125E08D01C2D18D019CD15C
:102D900020E08D01BDD144E650E021E08D01EED070
:102DA00021E08D01B5D18D01CDD144E650E021E087
:102DB0008D0118D144E650E027E08D014AD124E08E
:102DC0008D01A6D115C04AE050E021E08D01E5D18A
:102DD0004AE050E020E008C04AE050E021E08D01E8
:102DE000DCD140E050E021E08D0133D08D016FD087
:102DF00040E050E0FD01208901E020278D01CDD188
:102E000023C04AE050E021E08D01C7D140E050E00E
:102E100020E08D017CD040E050E021E08D0119D10F
:102E200044E650E020E08D01A9D08D014DD120E095
:102E30008D016ED148EC50E020E08D01D3D040E010
:102E400050E020E08D0105D18D01DCD1A991B9912F
:102E500008955A924A92BA93AA938A93D801822FDC
:102E60002A01F8010189F289E02F2081239520832E
:102E70000181201731F5EA2FF12F00A511A50E943D
:102E8000D5010817A9F0282FFD0100A511A50E9462
:102E9000B801282FFD0106A117A10E94510192013E
:102EA0005196ED91FC915297028113810E943D024F
:102EB000FD01A189B28911960C9103950C930FE73E
:102EC0000E938991A991B991499059900895BA9317
:102ED000AA93D8015196ED91FC91529700810395E8
:102EE00000831181011781F4FD0100A511A50E9445
:102EF000D801002349F0FD01A189B28911960C91F6
:102F000003950C930FE70E93A991B9910895BA9385
:102F1000AA939A938A93D801CA01F8010189F28988
:102F2000E02F3081339530830181301711F500E0B7
:102F3000C49901E00217A1F0EA2FF12F0085118555
:102F4000222319F00E94370D02C00E94550D9C01EA
:102F50005196ED91FC915297028113810E943D029E
:102F6000FD01A189B28911960C9103950C930FE78D
:102F70000E9389919991A991B9910895BA93AA93C1
:102F80009A938A93D801CA01F8010189F289E02F46
:102F90003081339530830181301719F50091650038
:102FA00003FB10E010F9121799F0FD01068117815B
:102FB000222319F00E942C0D02C00E94450D9C0195
:102FC0005196ED91FC915297028113810E943D022E
:102FD000FD01A189B28911960C9103950C930FE71D
:102FE0000E93C7CFBA93AA939A938A93D801CA0132
:102FF000F8010189F289E02F308133953083018116
:10300000301731F5EA2FF12F0089002309F020E075
:1030100000E0949901E0021791F0028513852223C4
:1030200019F00E943E0D02C00E94610D9C01519654
:10303000ED91FC915297028113810E943D02FD01A6
:10304000A189B28911960C9103950C930FE70E9309
:1030500090CF4A92BA93AA939A938A93D801422E18
:10306000CA01F8010189F289E02F2081239520838C
:103070000181201719F50D911C9111970E94A21141
:103080000D911C9111970E94A211041571F0242D2D
:103090000D911C9150960E9453119C01ED91FC9151
:1030A0005297028113810E943D02FD01A189B289DC
:1030B00011960C9103950C930FE70E9389919991BA
:1030C000A991B99149900895BA93AA93D8015196BC
:1030D000ED91FC91529700810395008311810117B6
:1030E000A1F4FD01028113810E948C09002321F0CB
:1030F000FD0105A1002349F0FD01A189B2891196C6
:103100000C9103950C930FE70E93A991B991089533
:10311000BA93AA93D8015196ED91FC9152970081F0
:10312000039500831181011751F48D0183D05196CD
:10313000ED91FC910181039501830FE70083A99133
:10314000B9910895BA93AA93D8015196ED91FC9143
:10315000529700810395008311810117D9F40D91D5
:103160001C9111970E942112002339F40D911C919A
:1031700011970E942D12002321F0FD01058D01FD04
:1031800009C0FD01A189B28911960C9103950C9398
:103190000FE70E93A991B99108954A92BA93AA9311
:1031A0009A938A93D801422ECA01F8010189F289C3
:1031B000E02F2081239520830181201711F5EA2F2C
:1031C000F12F06A117A10E946B01102F1170141589
:1031D00079F0242DFD0106A117A10E944E019C014A
:1031E0005196ED91FC915297028113810E943D020C
:1031F000FD01A189B28911960C9103950C930FE7FB
:103200000E935CCFAD01D8015196ED91FC912081D8
:10321000239520833181231759F4F80125852487CC
:10322000A189B28911960C9103950C930FE70E9327
:10323000DA010895BA93AA938A93D801822F00E005
:10324000EA2FF12F00A3022F222359F00A9559F0FB
:103250000A9589F00A9529F10A9519F10A95B1F1B3
:1032600045C000E01CC02589368901A112A10E9439
:103270003D0201E013C02789308D01A112A10E94F7
:103280003D02FD01048115810E947707FD0104A321
:1032900021E0028113810E94860902E0FD0103A35F
:1032A00025C02789308D01A112A10E943D02FD0198
:1032B000048115810E947707FD0104A320E00281AB
:1032C00013810E948609FD0183A310C023893489DC
:1032D000068D178D0E943D02FD012789308D01A1C9
:1032E00012A10E943D0201E0FD0100A38991A99174
:1032F000B9910895F80125872C3021F02D3011F077
:1033000020E001D00895BA93AA938A93D801822F1E
:10331000F8010585222379F0073011F0083021F4F7
:10332000028513850E94610DFD0104851585011735
:1033300081F420E00AC0073011F0083021F4028542
:1033400013850E943E0D21E0FD0106A117A10E94F8
:103350004E01FD0123A18D016DDFFD01808B89915F
:10336000A991B9910895BA93AA938A93D80180E05C
:10337000F80100A511A50E94D201002309F081E007
:10338000FD0100A511A50E94D501002309F082606E
:10339000FD0100A511A50E94D801002309F0846059
:1033A0000D911C9111970E94A211013009F48860BF
:1033B000FD01048115810E947707002309F08061D7
:1033C000FD01028113810E948C09002309F08062B3
:1033D000FD010089002309F0806405A1002309F0A4
:1033E0008068082F8991A991B9910895BA93AA93F9
:1033F000D80193960C9193970A9539F00A95A1F00C
:103400000A95C1F00A9501F137C00D911C9194966F
:103410000E9439120C9395970023A9F15D960C91A7
:103420005D9701FD1FC02FC00D911C9194960E94C5
:10343000391205C00D911C9194960E942D120C9387
:103440009597002351F41FC00D911C9194960E94F2
:1034500021120C9395970023B1F05D960C915D9726
:1034600002FF11C091960D911C9192970E94311408
:10347000002309F04FC007C00D911C9194960E9443
:1034800039120C93959790960C9190970023A9F080
:1034900012960D911C9113970E948C09002369F0DC
:1034A0005E960D911C915F970E943114002329F0C4
:1034B0005D960C915D9700FD2DC093960C919397AE
:1034C000023050F114960D911C915F960E9477077F
:1034D0003C91949721E0102F12273123D9F4949630
:1034E0000C9392970D911C9113970E948C090023C5
:1034F00099F490960C919097002371F491960D9108
:103500001C9192970E943114002331F05D960C912A
:1035100003FF02C001E001C000E0A991B991089544
:10352000AD01F801218F328F218DA681B781ED91F8
:10353000FC9124833583F801218D328DA085B185DE
:10354000ED91FC9124833583F801218D328DA28584
:10355000B385ED91FC9124833583DA010895F80158
:10356000018D128D0895BA93AA93D8013FE029E204
:103570000091820A1091830A0E94C6065D960C9300
:103580001A9748E853E12AE20091820A1091830ACF
:103590000E94E1060D931D9340E253E02CE200915E
:1035A000820A1091830A0E94E1060D931D9348EE52
:1035B00053E02EE20091820A1091830A0E94E106F4
:1035C0000D931D934091800A5091810A20E3009150
:1035D000820A1091830A0E94E1060D931C935A9768
:1035E00098018D019DDF98960D911C9199970E94ED
:1035F000EB010D911C9113960E944C120D911C91A0
:103600000E948A07A991B9910895BA93AA93D80103
:103610005D963C911A9729E20091820A1091830AE3
:103620000E94D3064D915D912AE20091820A109189
:10363000830A0E94FD064D915D912CE20091820A61
:103640001091830A0E94FD064D915D912EE200913A
:10365000820A1091830A0E94FD064D915C911E968C
:1036600020E30091820A1091830A0E94FD060D91C9
:103670001C9199970E940B020D911C9113960E9428
:1036800026130D911C910E94A007A991B99108954C
:10369000BA93AA93D8018E9A0091640008600093AF
:1036A00064000091800A1091810A0E9477010D93B5
:1036B0001C9311978D01A991B9910895BA93AA937A
:1036C000D8018F9ABC9A0091800A1091810A0E94B9
:1036D00077010D931C9311978D01A991B9910895CC
:1036E000BA93AA93D8018D9A8C9A0091800A10916E
:1036F000810A0E9477010D931C9311978D01A99166
:10370000B9910895969B08C0F801008111810E942B
:103710004914002309F096980895979B08C0F80172
:10372000008111810E944914002309F0979808959F
:10373000959B08C0F801008111810E944914002363
:1037400009F095980895BA93AA93D80106E010E07D
:103750000E945F1E202F212B29F020E030E00E94E4
:10376000220202C000E010E012960D931C93139702
:103770008D01A991B9910895BA93AA939A938A93C6
:10378000D80153962C931B97822F90E004968C01BE
:103790000E945D1E0D931C9318968C010E945D1E65
:1037A0000D931C93529700E00C9306E01A960C932D
:1037B000199700E00C9311978D0189919991A99126
:1037C000B99108951D0140E0F8012181263009F0EA
:1037D00041C025814085241B2350278342E8208552
:1037E000318523833483F9015081552391F4F80105
:1037F0006381732F6F5F7F4F638374830AC0D0012F
:103800006D91A383B4834627E42FF0E0EA52FF4F83
:103810004491F801658176810380148060157105FB
:1038200070F72F5F3F4F23833483442321F4A38118
:10383000B32F4C9101C041E020E0208B20853185E1
:103840002D5F3F4F23833483218932892D5F3F4F82
:1038500024873587042FD1010895F8010781089541
:103860009D01F801A381B4810D91A383B483D90193
:1038700008953B2F4A2FF801A381B4812D91A38392
:10388000B483A3811D91A383B483022FA42FB32FEC
:1038900008953B2F2A2EF80104841584418952890A
:1038A000638970E0460F571F4D5F5F4F0416150682
:1038B00020F4D0012D93A487B587A22DB32F0895AE
:1038C0000D01F8016485758501891289438950E0ED
:1038D000040F151F0E5F1F4F6017710748F4DB01BF
:1038E0002C9311968D010F5F1F4F048715873C9312
:1038F000D0010895BA93AA93382E022EF801248598
:1039000035852687378721883289622D22192350F1
:10391000208B732F6F5F7F4F6487758780818068EE
:10392000E22DF32F8083262FFB010082F8016089AE
:10393000E22FF72F618362E8F80121893289248719
:1039400035872081222381F424852F5F3F4F2487F0
:1039500035870AC0D9012D91A487B5876227E62F44
:10396000F0E0EA52FF4F6491F80124853585068422
:1039700017842015310570F3F9016083F80121895E
:103980003289248735872081222329F424852F5FDB
:103990003F4F2487358720E02387218324E0228737
:1039A00000ECFA010083832DA991B9910895AA939F
:1039B0009A938A93C801A22F06E110E00E945F1E2D
:1039C000202F212B21F04A2F9C0107D002C000E0BC
:1039D00010E089919991A9910895BA93AA939A9325
:1039E0008A93D801C901242F0E94BC1BA093950A79
:1039F000B093960A189A1098199A119A06E00093B3
:103A0000950089B99093900008ED0AB98D018991CC
:103A10009991A991B9910895BA93AA93FA93EA93C7
:103A20006A935A934A933A932A931A930A936FB7D5
:103A30000CB1E091950AF091960A1181163009F4C3
:103A400054C0003C41F401E00183008511850383EB
:103A5000148300E003C00B3D19F401E0028345C06C
:103A60002281222349F00D3D11F40BED03C00C3DE2
:103A700061F500EC20E022831150F9F01A9571F104
:103A80001A9559F01A9589F523813481458156811B
:103A90002417350729F516E022C014E01183138995
:103AA000101708F4012F2085318510E0200F311FF9
:103AB0002D5F3F4F2583368313C012E0118307FB30
:103AC0003EF40F771081011759F000E001830DC01B
:103AD00010E0A381B4811D93A383B48313E0118309
:103AE000A381B4810D93A383B4836FBF099119910E
:103AF00029913991499159916991E991F991A99146
:103B0000B9911895BA93AA93FA93EA936A935A9340
:103B10004A933A932A931A930A936FB7E091950ABE
:103B2000F091960A0285043041F5A485B5850D9182
:103B3000A487B587003C11F00B3DA1F41385112338
:103B400051F40BED11E01387248535852150304069
:103B50002487358707C0003C11F40CED01C00DED42
:103B600010E013872685378544855585241735074A
:103B700010F415E012870CB902C006E00287B5CF39
:103B80002197AE010E947A1C08810CB921960895F4
:103B90000C94B81E01E010E00C94B81E0FE70DBFA6
:103BA0000AE00EBFC0E0D4E00E945B1E002311F0CB
:103BB0000E948B1E0E944D090E94FA1D0C94C81D84
:103BC000E199FECF08954F5F5F4FFADF4EBB5FBBB9
:103BD000E09A0895FADF0DB308954F5F5F4F4EBB33
:103BE0005FBBF894E29AE19A0FBE08950FB6E8DF42
:103BF0000DBBF5CF0C94C81D4A951AF0000F111F8C
:103C0000FBCF08954A951AF016950795FBCF0895B6
:103C1000002411241001E0E2EA9592F0001F111F28
:103C2000221F331F001C111C221C331C04161506F6
:103C30002606370688F3041A150A260A370AECCF37
:103C4000001F111F221F331FA001B1010095109505
:103C5000209530950895FF27772312F4F16015D051
:103C6000332312F4F09509D00E94081EF69508F44B
:103C700004D0F69508F409C0089530952095109564
:103C800001951F4F2F4F3F4F0895709560955095A8
:103C900041955F4F6F4F7F4F0895BA93AA939A93C0
:103CA0008A930895BB81AA8199818881F0E0EC0F05
:103CB000FD1FEF01089501E008950C945F1E9A9393
:103CC0008A93C80102C00E947B1E8C010E94711F52
:103CD000202F212B69F4E7E9FAE02081318100E00F
:103CE0002030300781F3E091970AF32F0995EDCF4B
:103CF0008991999108950C94CA1D20E006D0E9F7A6
:103D00000895259102D0E9F708952D9301501040B0
:103D1000202F212B089582E99FE3FC010591149146
:103D2000FC013296A591B491FC0134962591349111
:103D3000422F432B19F0F901E4DF01C0DEDF0696C4
:103D40001FE38E39910748F30895E9E9FAE000810D
:103D50001181012B19F000E010E0089500E014E05B
:103D60000083118320E036E0F80120833183089539
:103D7000FFCF0D01D801012B09F452C01297ED912C
:103D8000FC911197349708F44BC00BE91AE0F80145
:103D900050D019F0A217B30728F4FD012283338312
:103DA000F80123C0F90145D019F02A173B07D0F3D9
:103DB000408151819F01240F351FA217B30780F165
:103DC0002A173B0741F42D913C91420F531F40832A
:103DD0005183DF010CC02DD021F024D026173707E6
:103DE000F8F012962D933C931397A283B383FD01B1
:103DF00020D0B1F017D06217730791F440E0F801BA
:103E000040834183F901008111814D915C91400F04
:103E1000511F5C934E9302811381FD010283138332
:103E2000D00108954D915C911197BD01640F751FEC
:103E3000089522813381422F432B08950E944D1E05
:103E4000C80104C00E5F1F4F0E94B91EEBE9FAE0E3
:103E5000A081B1810A2F0B2B59F4ADE9BAE02FD024
:103E600021F137D000F530D0FACF33D0E0F42CD0A8
:103E700026D0D9F7EBE9FAE00081F181E02F00814B
:103E80001181ADE9BAE001C01FD02D913C9111978D
:103E90002017310751F0ED91F32F119720813181D7
:103EA0002817390788F38D0107C00E94A51E202F0F
:103EB000212B41F600E010E0E4E00C94521E0D913D
:103EC0001C911197012B0895FD01A081B1811296DB
:103ED0000895ED91F12F11970081118108171907AD
:103EE00008950E944D1EC80102960817190758F43C
:103EF000843000E0900710F484E090E08C019EDFB5
:103F0000202F212B19F400E010E03EC0F8012081A1
:103F10003181F901A081B1811497A817B90730F454
:103F200022813381D8012D933C9316C0280F391F6D
:103F3000D8012D933C934281538127D04D935C93BC
:103F400040815181481B590BD8012D91BC91A22F62
:103F50004D935C9380839183D8012D913C91232BC9
:103F600059F013D02D913C91232B31F0D8010D91B4
:103F70001C910E5F1F4F02C000E010E0ABE9BAE0F9
:103F80000D931C9332968F0197CFD8012D91D901B3
:103F90009ECF1D00820A00000200800A9E3FE803B7
:00000001FF
:00000001FF
